:1000000066C000008CC000008AC000000C94B90AD1
:100010000C94DE0A0C94030B82C0000080C0000028
:100020007EC000007CC000007AC0000078C00000E4
:1000300076C0000074C0000072C0000070C00000F4
:100040000C94A2136CC000000C9424100C945E104D
:1000500066C0000064C0000062C0000060C0000014
:100060005EC000005CC0000000000007000201004C
:100070000003040600000000000000000102040864
:100080001020408001020408102001020408102002
:10009000040404040404040402020202020203032E
:1000A00003030303000000002300260029000000D2
:1000B0000000250028002B0000000000240027007D
:1000C0002A00A2015703280B790B22117211112467
:1000D0001FBECFEFD8E0DEBFCDBF14E0A0E0B1E09F
:1000E000E8E2F4E302C005900D92A631B107D9F71A
:1000F00018E0A6E1B4E001C01D92A235B107E1F716
:1001000010E0CCECD0E004C02297FE010E94B015B4
:10011000C23CD107C9F70E9496130C94081A70CFFD
:10012000089508951F93CF93DF93162FFC01EC5889
:10013000FF4FEC01CF58DF4F6081888199810E9489
:10014000B2114AE050E0612F88819981DF91CF910F
:100150001F910C9445128091240490912504FC0178
:100160002081222311F064E0DDCF08950F931F93C7
:10017000CF93DF9384E291E0909317048093160469
:1001800087E391E090931904809318048DE090E048
:1001900090931B0480931A048CE090E090931D04CC
:1001A00080931C048BEA90E09093210480932004B8
:1001B00081E990E0909323048093220486E194E007
:1001C0009FD161E08DE00E94B11460E08DE00E945B
:1001D000D014C6E0D1E08E0160E088810E94B114A5
:1001E00061E089910E94D01441E050E060E970E044
:1001F000F80180810E945D0AF1E0CA30DF0759F7FB
:10020000DF91CF911F910F910895CF92DF92EF92DE
:10021000FF920F931F93CF93DF938DD2CED188237C
:1002200009F487C00E94EC13009126041091270462
:100230002091280430912904061717072807390749
:1002400020F460E08DE00E94D01400E010E08FE028
:10025000D82EC02ED09EE001D19ED00D1124C65DB7
:10026000DB4FCE010E942D0FCE010E94710F811134
:1002700038C0CE010E94670F811133C02BC06C2D96
:1002800051DFE0912404F091250480818823B9F0A6
:10029000DF01AC58BF4FEF01CF58DF4F6C91888121
:1002A00099810E94B21161E070E0EF2811F060E0E6
:1002B00070E04AE050E0888199810E94931228E81A
:1002C00033E141E050E060E0809124049091250406
:1002D0000E94DD0D0F5F1F4F0430110509F0B9CFEB
:1002E00028C061E08DE00E94D0140E94EC1366509B
:1002F0007F4F8F4F9F4F6093260470932704809306
:10030000280490932904CE010E94F90E7C0166E135
:1003100070E080912404909125040E94CD0B80917F
:10032000240490912504FC012081222309F4A9CF03
:10033000A6CFDF91CF911F910F91FF90EF90DF90AB
:10034000CF90089525E030E040E050E06BE08AE295
:1003500094E00E94DF0E25E030E040E050E069E0EC
:1003600089E394E00E94DF0E25E030E040E050E0B9
:100370006AE088E494E00E94DF0E25E030E040E08F
:1003800050E068E087E594E00E94DF0E25E030E071
:1003900040E050E060E086E694E00E94DF0E25E059
:1003A00030E040E050E060E085E794E00E94DF0E3E
:1003B00025E030E040E050E060E084E894E00E9416
:1003C000DF0E25E030E040E050E060E083E994E0BB
:1003D0000E94DF0E25E030E040E050E060E082EA7D
:1003E00094E00E94DF0E25E030E040E050E060E065
:1003F00081EB94E00C94DF0E8091E306843069F485
:1004000085E08093E306E091FF05F0910006048407
:10041000F585E02D309709F009940895809107063D
:1004200081110FC063E070E087E096E00E94CD0B81
:1004300028E833E141E050E060E087E096E00C948A
:10044000DD0D08950F931F93CF93DF938C01EB0184
:1004500020E830E04CE755E06AE08AE695E00E944B
:1004600066139C01009779F0C817D9070CF49E0118
:10047000F901E458FA4F10826CE775E0C8010E9458
:10048000041781E001C080E0DF91CF911F910F91AF
:1004900008950F931F939093FE058093FD05E091BF
:1004A000FF05F091000684819581181619062CF538
:1004B00060E00E94D0148091FD059091FE05892B8B
:1004C000E1F010920206109201060E94EC13E091F6
:1004D000FD05F091FE0500811181222717FD209571
:1004E000322F600F711F821F931F6093030670935A
:1004F000040680930506909306061F910F910895B8
:10050000CF93DF93EC0140E054E060E070E088E9D5
:1005100097E00E94490BD0930006C093FF0587E047
:1005200096E09F878E878C819D81181619065CF452
:1005300061E00E94B114E091FF05F091000660E0D7
:1005400084810E94D0141092FE051092FD05E09166
:10055000FF05F091000686819781181619065CF454
:1005600060E00E94B114E091FF05F091000661E0A7
:1005700086810E94D0144CEF51E062E087E096E063
:100580000E94C10B4EE052E063E087E096E00E94DB
:10059000C10BE091FF05F09100060084F185E02D8C
:1005A000309709F0099540E051EE60E070E08EE987
:1005B00097E0DF91CF910C94A41081E09091E30635
:1005C000953009F080E00895CF92DF92EF92FF928C
:1005D0000F931F93CF93DF936A01E9017B01B90168
:1005E0006E0D7F1D0E94770B811110C0C0E0D0E01E
:1005F00012C0B8016E0D7F1D41E050E0C601800FB2
:10060000911F0E9439190F5F1F4F02C000E010E0D8
:100610000C171D0770F3CE01DF91CF911F910F9141
:10062000FF90EF90DF90CF9008958F929F92AF92BE
:10063000BF92CF92DF92EF92FF920F931F93CF93CF
:10064000DF936C014A018901EB017901E60EF71E87
:10065000B7010E94770B811117C000E010E019C0AC
:100660005E018FEFA81AB80AB501C6010E94770B88
:10067000882341F041E050E0BE01C4018C0F9D1F72
:100680000E944E19E50102C08C1A9D0ACE15DF05A5
:1006900039F7C801DF91CF911F910F91FF90EF9033
:1006A000DF90CF90BF90AF909F908F9008950F9361
:1006B0006EE977E08AE695E0E1D40FE22BE34CE2C5
:1006C0006AE675E087E096E00E94BD0B0F91089501
:1006D000DF92EF92FF920F931F93CF93DF938C01E2
:1006E000EC0109900020E9F72197C81BD90B8AE695
:1006F00095E07ED48C179D077CF480E014C08AE6D8
:1007000095E082D4F801EE0DFF1D208130E08217C4
:10071000930799F7D39401C0D12CED2CF12CEC1652
:10072000FD066CF381E0DF91CF911F910F91FF9057
:10073000EF90DF900895FF920F931F93CF93DF9375
:10074000E091FF05F0910006848195811816190645
:10075000DCF58091FD059091FE05892BA9F10E94A1
:10076000EC130091030610910406209105063091C8
:100770000606061717072807390708F40AC424C015
:1007800010920206109201060E94EC1320910106BD
:1007900030910206220F331FE091FD05F091FE0516
:1007A000E20FF31F00811181222717FD2095322FC0
:1007B000600F711F821F931F6093030670930406DE
:1007C00080930506909306068091E306873009F42E
:1007D00066C180F4833009F411C330F4813009F428
:1007E00013C208F0BCC219C0853009F4A3C308F0D5
:1007F0009FC085C38B3009F4ADC130F4893009F452
:1008000079C108F08DC156C18D3009F458C008F483
:100810009FC18E3009F0E6C379C0E091FF05F091E9
:1008200000068681978118161906BCF40E940615E9
:10083000892B99F480E191E02CDE0E94EC1368543E
:10084000744F8F4F9F4F6093E4067093E50680933B
:10085000E6069093E7068DE062C360E070E088E909
:1008600097E036D790936905809368058E3F9A4C40
:1008700009F06EC124E230E043E455E062E070E04C
:1008800088E997E0A1DE20E230E042E255E067E24D
:1008900070E088E997E098DE20E230E041E055E042
:1008A00068E470E088E997E08FDE20E430E040EC17
:1008B00054E069E670E088E997E086DEA3C1E09144
:1008C000FF05F091000686819781181619060CF035
:1008D00089C30E940615019739F46AE070E080E050
:1008E00090E00E9428141EC00E94EC130091E406C0
:1008F0001091E5062091E6063091E70606171707E6
:100900002807390708F06EC38EE009C3C0E0D0E0C5
:100910004FEFBE0188E997E0DED62196C11584E04D
:10092000D807B1F780E090E0B4DD1092E3065AC337
:1009300086E191E0AEDD8AE695E04ED528EE33E023
:1009400040E050E068E771E08AE695E0FFD428EEE9
:1009500033E047E851E061E971E08AE695E0F6D4DA
:1009600028EE33E041E150E068EE76E08AE695E07B
:1009700084D41092F90628EE33E04EE453E068E99F
:1009800071E08AE695E0E2D428EE33E04EE453E0ED
:1009900063EA71E08AE695E0D9D48091F8061F9267
:1009A0008F938091F7061F928F938091F5061F9287
:1009B0008F938091F4061F928F938091F2061F927D
:1009C0008F938091F1061F928F938091EF061F9273
:1009D0008F938091EE061F928F938091EC061F9269
:1009E0008F938091EB061F928F938091E9061F925F
:1009F0008F938091E8061F928F938EEA91E09F93E8
:100A00008F938CE795E09F938F930E94411728EE78
:100A100033E04EE453E06CE775E08AE695E096D467
:100A200028EE33E04EE453E06AED71E08AE695E0AB
:100A30008DD428EE33E04EE453E06CEE71E08AE6AC
:100A400095E084D428EE33E04EE453E067EF71E0A4
:100A50008AE695E07BD428EE33E04EE453E06CE088
:100A600072E08AE695E072D428EE33E04EE453E07B
:100A700063E272E08AE695E069D48AE695E0A5D45F
:100A80008AE695E093D487E08093E3068DB79EB71E
:100A90004C960FB6F8949EBF0FBE8DBFA3C288E3DD
:100AA00092E016DE882309F49DC28CE191E0F1DC2E
:100AB00088E035C28AE695E00E94B91168EE76E0DA
:100AC0008AE695E00E94CD11E091FF05F0910006C5
:100AD000608171818AE695E00E94CD11E091FF0569
:100AE000F0910006628173818AE695E00E94CD1143
:100AF00089E015C28FE392E0EBDD882309F472C22E
:100B00000E94EC1360527C468B4F9F4F6093E4062B
:100B10007093E5068093E6069093E7068AE0FFC1AE
:100B200088E392E0D5DD882311F08BE0F8C10E94C4
:100B3000EC130091E4061091E5062091E606309151
:100B4000E706061717072807390708F04BC225C024
:100B500086E0E5C18AE695E00E94B91164E270E0A2
:100B600083E495E06FDC811101C017C060E270E0A2
:100B700082E295E067DC811101C00FC060E270E0A5
:100B800081E095E05FDC811101C007C060E470E0A6
:100B900080EC94E057DC811102C08CE0C0C18FE38F
:100BA00092E096DD8823D9F34EEF5AEC60E070E0D6
:100BB00088E997E096D524E230E043E455E062E02E
:100BC00070E088E997E031DD20E230E042E255E074
:100BD00067E270E088E997E028DD20E230E041E05C
:100BE00055E068E470E088E997E01FDD20E430E03C
:100BF00040EC54E069E670E088E997E016DD80E0BB
:100C000090E047DC81E08BC18AE695E0E5D328EEF1
:100C100033E040E050E068E771E08AE695E096D383
:100C200028EE33E04EE453E066E472E08AE695E0B5
:100C30008DD328EE33E04EE453E067E572E08AE6B8
:100C400095E084D328EE33E04EE453E065E672E0AD
:100C50008AE695E07BD328EE33E04EE453E060E78C
:100C600072E08AE695E072D328EE33E04EE453E07A
:100C70006BE772E08AE695E069D328EE33E04EE454
:100C800053E066E872E08AE695E060D328EE33E050
:100C90004EE453E061E972E08AE695E057D328EE2E
:100CA00033E04EE453E06CE972E08AE695E04ED31F
:100CB00081E095E09F938F9387EA92E09F938F93D3
:100CC0001F92C0E8CF930CE715E01F930F930E948B
:100CD000131728EE33E04EE453E0B8018AE695E0BE
:100CE00035D380EC94E09F938F9383EB92E09F93B6
:100CF0008F931F92CF931F930F930E94131728EE89
:100D000033E04EE453E0B8018AE695E01FD382E277
:100D100095E09F938F938FEB92E09F938F931F9219
:100D2000CF931F930F930E94131728EE33E04EE4E6
:100D300053E0B8018AE695E009D38AE695E045D309
:100D40008AE695E033D382E08093E3068DB79EB7C1
:100D500048960FB6F8949EBF0FBE8DBF43C18BEC73
:100D600092E0B6DC882309F43DC16FE070E08AEFC1
:100D700096E068DB882309F435C1CAEFD6E0DF933B
:100D8000CF9385ED92E09F938F931F9230E8F32EDF
:100D9000FF920CE715E01F930F930E941317DF9348
:100DA000CF938AEF92E09F938F931F92FF921F93AE
:100DB0000F930E94131728EE33E04EE453E0B8017E
:100DC0008AE695E0C3D228EE33E04EE453E066E0D5
:100DD00073E08AE695E0BAD28AE695E0F6D28AE632
:100DE00095E029D283E08093E3068DB79EB74096C5
:100DF0000FB6F8949EBF0FBE8DBFF4C061E070E0E7
:100E000087E096E0CAD480910706882381F060913C
:100E10007B0680917806909179060E94B21163E476
:100E200075E080917806909179060E94B111E09169
:100E3000FF05F0910006C081D181809107068823CB
:100E400079F060917B0680917806909179060E94F6
:100E5000B211BE0180917806909179060E94B1117D
:100E600080910706882381F060917B068091780647
:100E7000909179060E94B21162E275E08091780645
:100E8000909179060E94B111E091FF05F091000662
:100E9000C281D38180910706882379F060917B0617
:100EA00080917806909179060E94B211BE018091DE
:100EB0007806909179060E94B111E091FF05F091BA
:100EC00000060284F385E02D309709F0099528E8A3
:100ED00033E141E050E060E087E096E06ED60E94AA
:100EE000EC13605E714B8F4F9F4F6093E4067093DD
:100EF000E5068093E6069093E70684E010C00E9422
:100F0000EC130091E4061091E5062091E60630917D
:100F1000E706061717072807390720F483E08093B0
:100F2000E30660C087E096E0DF91CF911F910F91BB
:100F3000FF9031C50E94EC1300910A0710910B0736
:100F400020910C0730910D0706171707280739075E
:100F500048F78091070681110DC063E070E087E0DB
:100F600096E01BD428E833E141E050E060E087E000
:100F700096E023D60E94EC1360527C468B4F9F4F25
:100F800060930A0770930B0780930C0790930D07EB
:100F9000C9CFE091FF05F091000684810E940615FB
:100FA00061E0019709F460E0E091FF05F09100062F
:100FB00084810E94D01480910106909102060196CE
:100FC0009093020680930106880F991FE091FD051A
:100FD000F091FE05E80FF91F80819181892B09F4BA
:100FE000CFCBD2CBDF91CF911F910F91FF9008957E
:100FF000DC011C968D919C911D97DC01ED91FC917B
:101000000480F581E02D0994DC011C968D919C9162
:101010001D97DC01ED91FC910680F781E02D09948C
:10102000DC011C968D919C911D97DC01ED91FC914A
:101030000084F185E02D0994DC011C968D919C9132
:101040001D97DC01ED91FC910284F385E02D09945C
:10105000FC01A485B585ED91FC9111970190F0817B
:10106000E02DCD010994FC01A485B585ED91FC919D
:1010700011970280F381E02DCD010994CF93DF9386
:10108000EC01CB011B821A8248EE53E060E070E075
:101090004C835D836E837F8326EF33E0398328831F
:1010A000D0930F07C0930E079D878C87CE010E94B7
:1010B000C8121E861F86DF91CF9108952F923F920E
:1010C0004F925F926F927F928F929F92AF92BF9258
:1010D000CF92DF92EF92FF920F931F93CF93DF9304
:1010E0001F92CDB7DEB78C015B014A012901611562
:1010F0007105A1F130E0212C312C662457FC60945D
:10110000762C28C0D801ED91FC91D501A20DB31D1C
:101110000190F081E02D6C91C801398309953981E6
:10112000019729F4BFEF2B1A3B0A30E013C0332399
:1011300061F00E94EC136C197D098E099F09461617
:1011400057066806790660F004C00E94EC136B0134
:101150007C0131E028143904ACF202C0212C312C7E
:10116000C1010F90DF91CF911F910F91FF90EF90F0
:10117000DF90CF90BF90AF909F908F907F906F90B7
:101180005F904F903F902F900895EF92FF920F93B2
:101190001F93CF93DF937C01EA018901FB0101904A
:1011A0000020E9F7AF0141505109461B570B86DF7C
:1011B000209711F481E013C0A801662757FD6095C0
:1011C000762FC7010E94C8120E94EC13BE01C7010E
:1011D0000E9440138111EECF0E94EC1380E0DF915A
:1011E000CF911F910F91FF90EF900895CF93DF93D0
:1011F000EC018E85882319F089898230C0F028EEB1
:1012000033E041E153E065E173E0CE01BEDF8823C6
:1012100019F081E08E870CC028EE33E049E153E0FD
:101220006AE972E0CE01B1DF8111F3CF01C081E044
:10123000DF91CF910895CF93DF93EC018E858823C2
:10124000C1F028EE33E04DE153E062E273E0CE01FD
:101250009CDF882311F01E860CC028EE33E049E1A4
:1012600053E06AE972E0CE0190DF8823A1F380E0C9
:1012700001C081E0DF91CF9108954F925F926F920C
:101280007F928F929F92AF92BF92CF92DF92EF9216
:10129000FF920F931F93CF93DF935C014A018B0161
:1012A000C0E0D0E02901662457FC6094762C1AC077
:1012B0000E94EC136B017C01C40CD51CE61CF71CCE
:1012C000D501ED91FC910680F781E02DC5010995CE
:1012D00097FF0CC00E94EC136C157D058E059F05D1
:1012E00078F309C0C815D9051CF305C0F80181932E
:1012F0008F012196F7CFCE01DF91CF911F910F91F2
:10130000FF90EF90DF90CF90BF90AF909F908F9025
:101310007F906F905F904F9008950F931F93CF939E
:10132000DF931F92CDB7DEB78C012AE030E041E0B9
:1013300050E0BE016F5F7F4FC8019FDF0197A9F3A7
:101340000F90DF91CF911F910F9108950F931F93ED
:10135000CF93DF9300D000D000D0CDB7DEB78C01A3
:101360002D833E834B835C8369837A83D6DFC801F8
:101370003DDF2D813E814B815C8169817A81C8018D
:1013800004DFF801811105C081898F5F818B80E0C6
:1013900002C0118A81E026960FB6F894DEBF0FBE18
:1013A000CDBFDF91CF911F910F910895CF93DF9320
:1013B000EC0128EE33E040E050E060E873E0C6DF87
:1013C0001E8681E0DF91CF91089528EE33E048E852
:1013D00053E06DE873E0BACF28EE33E043E953E021
:1013E0006CE973E0B3CFDC01FB01EE0FFF1FE855A2
:1013F000FF4F859194918C9311969C93119713961E
:101400005C934E93129781E090E001C0880F6A953B
:10141000EAF714968C93149715961C92159780E012
:1014200090E0FD01E80FF91F1782168202968231C3
:101430009105B9F70895CF92DF92EF92FF920F9343
:101440001F93CF93DF93E8E5F7E08C010A5F1F4F0E
:101450007C0156E1E50EF11C5281511120C0D801EA
:10146000ED011296C880D980CD28B1F46283F9834A
:10147000E883318320834383DC011296ED91FC9154
:1014800013972081242B20832091680014968C913F
:10149000282B2093680008C0AE15BF050CF33496C6
:1014A000B7E0E839FB07C4F2DF91CF911F910F91AC
:1014B000FF90EF90DF90CF9008959B01642F90E014
:1014C000FC01E057FF4F5491552379F02115310568
:1014D00061F0FC01E458FF4F4491525078E1579F6E
:1014E000C0011124805F984FA6CF0895CF92DF925C
:1014F000EF92FF920F931F93CF93DF93EC017C0148
:1015000086E0E80EF11CE881F981C080DD80DC24F2
:10151000EA81FB818081D82219F1CD82870114C034
:1015200083819D2D982381F09281913049F09230F2
:1015300019F48C2129F008C0933031F48C2121F06A
:101540000190F081E02D0995D801ED91FD918D017B
:10155000309731F78BB39C8189238BBB8111D3CF1B
:10156000DF91CF911F910F91FF90EF90DF90CF907F
:1015700008951F920F920FB60F9211242F933F934D
:101580004F935F936F937F938F939F93AF93BF938B
:10159000EF93FF9380E197E0A9DFFF91EF91BF9177
:1015A000AF919F918F917F916F915F914F913F91FB
:1015B0002F910F900FBE0F901F9018951F920F92B2
:1015C0000FB60F9211242F933F934F935F936F9316
:1015D0007F938F939F93AF93BF93EF93FF9388E293
:1015E00097E084DFFF91EF91BF91AF919F918F9131
:1015F0007F916F915F914F913F912F910F900FBE0F
:101600000F901F9018951F920F920FB60F921124F2
:101610002F933F934F935F936F937F938F939F93FA
:10162000AF93BF93EF93FF9380E497E05FDFFF9169
:10163000EF91BF91AF919F918F917F916F915F914A
:101640004F913F912F910F900FBE0F901F901895C3
:1016500080E090E0FC01E85AF84F1182108212827B
:10166000049680349105B1F74BE650E060E070E0FD
:1016700080E197E0B8DE4CE650E061E070E088E29F
:1016800097E0B1DE4DE650E062E070E080E497E084
:10169000AACE20919A0730919B0780919C07909148
:1016A0009D072817390721F470939D0760939C07C5
:1016B00080919C0790919D0790939B0780939A0738
:1016C0004817590724F050932301409322010895AD
:1016D000CB010C944919CB01642F0E94571981E06A
:1016E0000895CB01BA010E94651981E0089581E057
:1016F000089584E690E09093990780939807089561
:101700000F93FC01DC01AA58BF4F1D921C92DC0113
:10171000AF58BF4F6D937C931086DC01AC58BF4F20
:101720004C93DC01AD58BF4F2C93DC01AB58BF4F3D
:101730000C9380E483838FE384831282DF01A459B6
:10174000BF4F1D921C92DF01A259BF4F1D921C92E8
:10175000DF01A659BF4F81E08C9380E090E0DF016C
:10176000A80FB91FA858BF4F1D921C92029684362D
:101770009105A9F717820F9108950F93C1DF0F917B
:101780000895623348F4E62FF0E0FC96EE0FFF1F59
:10179000E80FF91F518340830895FC018081811176
:1017A0000AC081E080838783EF58FF4F4AE050E012
:1017B00080819181B8C60895F90121E03081341308
:1017C00020E0DB013C913083DC01AB58BF4F8C91B2
:1017D000381302C021111082822F08954F925F9218
:1017E0006F927F928F929F92AF92BF92CF92DF9231
:1017F000EF92FF920F931F93CF93DF938C01FC0125
:1018000015827B01EB012C01F5E04F0E511C3C01D0
:1018100085E7680E711C4801E4E78E0E911C0FC02D
:101820009201F3014081BE01C801C6DF2196F50196
:101830002081F4019081291302C0882339F05E01D0
:101840006E01CE18DF0888818111EACFC601DF91D1
:10185000CF911F910F91FF90EF90DF90CF90BF90AD
:10186000AF909F908F907F906F905F904F90089572
:10187000BF92CF92DF92EF92FF920F931F93CF937D
:10188000DF936C01B42E79016115710519F4D9014A
:101890006D917C918B01E8014B2DB801C6019EDF53
:1018A000892B21F08881811107C014C00F5F1F4F61
:1018B00088818111F0CFF6CF4B2DBE01C6018EDF9E
:1018C000FE01E80FF91F808181111192D701ED937C
:1018D000FC9302C0C0E0D0E0CE01DF91CF911F9118
:1018E0000F91FF90EF90DF90CF90BF900895CF932E
:1018F000DF93EC01FC01E759FF4F8081882351F110
:10190000813031F4BE01675F7F4F82E0808302C087
:1019100060E070E0FE01E659FF4F8081882371F09E
:101920009E0122593F4FFE01EC58FF4F4081CE01EE
:101930009FDFFE01E459FF4F91838083FE01E4594C
:10194000FF4F80819181892B29F0C659DF4F81E0BB
:10195000888301C080E0DF91CF910895CF93DF931A
:10196000EC01C5DFFE01E559FF4F882371F0DE0170
:10197000A659BF4F81E08C938083C459DF4F888183
:101980009981DF91CF910C94E716108280E090E06E
:10199000DF91CF9108952F923F924F925F926F9275
:1019A0007F928F929F92AF92BF92CF92DF92EF92EF
:1019B000FF920F931F93CF93DF93CDB7DEB72B9793
:1019C0000FB6F894DEBF0FBECDBF8C017C0181E75E
:1019D000E80EF11C580199E6A90EB11CD801AB58CC
:1019E000BF4FBD83AC83F801ED58FF4FFF83EE83FB
:1019F0001801FCE62F0E311CC8018A589F4F9987A9
:101A00008887D801A559BF4FBB87AA879BC0F7011C
:101A100080819181DC01ED91FC910480F581E02DC4
:101A200009954C01B801675B7F4FA401F7018081E4
:101A3000918129D66801C401800F911F9B838A83FD
:101A4000280196E0490E511C4801AEE68A0E911C11
:101A50003801BAE66B0E711C6FC0F601E75BFF4FF1
:101A600080818983F50110829201AC81BD814C9106
:101A7000BE016F5F7F4FC8019FDE2981EE81FF812C
:101A80003081D80112969C911297F801E90FF11D4F
:101A9000231316C0811114C01186992329F081E007
:101AA000F501808316961C92F8011282D1011D92D5
:101AB0001C92F40111821082E1E0D301EC9316C074
:101AC00021879F5FD80112969C93129714968C9150
:101AD0001497981758F012961C92F10111821082F7
:101AE000D4011D921C9281E0F3018083D5018C9179
:101AF0008130F9F4C80132DFF8018183823390F438
:101B0000AA85BB852C91222369F0FC01FF27FC9656
:101B1000EE0FFF1FE00FF11F0190F081E02D3097D5
:101B200009F006C0A885B985ED91FC91309709F0C0
:101B30000995BFEFCB1ADB0AEA81FB81CE16DF06DF
:101B400009F08BCFD80117968C9181111DC0F70138
:101B500080819181DC01ED91FC910480F581E02D83
:101B60000995892B89F0F70180819181DC01ED9144
:101B7000FC910480F581E02D099580970CF447CF06
:101B800030E2832E912C4ECF2B960FB6F894DEBF09
:101B90000FBECDBFDF91CF911F910F91FF90EF90BE
:101BA000DF90CF90BF90AF909F908F907F906F907D
:101BB0005F904F903F902F9008952F923F924F92B9
:101BC0005F926F927F928F929F92AF92BF92CF92CD
:101BD000DF92EF92FF920F931F93CF93DF93CDB7D6
:101BE000DEB765970FB6F894DEBF0FBECDBF8C0190
:101BF000D62E5D874C872901DC018C91811102C0B2
:101C0000312CC0C0F801ED58FF4F7801B1E7EB0E61
:101C1000F11C6081F70180819181A4D3D8011896CD
:101C20008C91882321F0F70180819181A2D3DD205E
:101C300039F3662457FC6094762CCED56B017C0179
:101C40004B015C01312C98012F583F4F3D832C8371
:101C5000C80187599F4F9B838A83D8011696BF87F7
:101C6000AE87F801EB58FF4FF98BE88B98012D58A0
:101C70003F4F3B8B2A8BC80185599F4F9D8B8C8B87
:101C8000D801A459BF4FBF83AE83F801E259FF4F7B
:101C9000F987E887980126593F4F3B872A872224F6
:101CA000239454C0AC81BD818D919C91DC01ED9158
:101CB000FC910680F781E02D09958983EA81FB81FB
:101CC00010822E853F85A889B9894C91BE016F5F2E
:101CD0007F4FC80171DD2981EA89FB893081D801F4
:101CE00012969C911297F801E90FF11D23130CC075
:101CF00081110AC01186992329F0EA81FB81208293
:101D000016961C92F80107C021879F5FF801928305
:101D10008481981760F01282AE81BF811D921C925F
:101D2000E885F98511821082AA85BB852C92EA810B
:101D3000FB818081813051F4C80110DE2C853D8506
:101D40002817390719F4AC89BD893C908C189D0877
:101D5000AE08BF0884149504A604B70498F43110A3
:101D600011C03AD54B015C01AC81BD818D919C9134
:101D7000DC01ED91FC910480F581E02D0995892B22
:101D800029F390CFF80117821082832D65960FB644
:101D9000F894DEBF0FBECDBFDF91CF911F910F91A1
:101DA000FF90EF90DF90CF90BF90AF909F908F907B
:101DB0007F906F905F904F903F902F9008951F936A
:101DC000CF93DF93EC01162F2C833D834E835F83EB
:101DD000188619861A861B86FFD4688379838A83BE
:101DE0009B83812F13D68C871D87DF91CF911F9105
:101DF0000895FC01848590E00895FF920F931F934E
:101E0000CF93DF93EC018D8501D6F82E8C858F1151
:101E100003C020E030E01AC0DFD4088119812A8194
:101E20003B81601B710B820B930B0C811D812E81FA
:101E30003F81601771078207930758F3CDD46883F9
:101E400079838A839B83FC8621E030E0C901DF919E
:101E5000CF911F910F91FF9008950F931F93CF93F0
:101E6000DF93EC01CADF892B09F01FC088859985B3
:101E7000AA85BB85892B8A2B8B2B01F1ADD40881D8
:101E800019812A813B81601B710B820B930B0885A2
:101E900019852A853B85601771078207930770F0C3
:101EA0009BD4688379838A839B83188619861A86D4
:101EB0001B8681E08E8721E030E003C01E8620E093
:101EC00030E0C901DF91CF911F910F910895FC017E
:101ED0008685882321F081E09485911101C080E0FE
:101EE0000895FC018685882319F081E0948591117D
:101EF00080E0089526E034E0FC01318320830895DA
:101F0000FC0184859585FC01E05CFF4F20813181D7
:101F1000FC01EE5BFF4F80819181281B390B2F73F1
:101F20003327C9010895FC0184859585FC01E05C97
:101F3000FF4F40815181FC01EE5BFF4F20813181D9
:101F40004217530741F00190F081E02DE80FF91F8F
:101F5000208130E002C02FEF3FEFC9010895FC015E
:101F600084859585FC01E05CFF4F40815181FC0137
:101F7000EE5BFF4F208131814217530781F0A08132
:101F8000B181A80FB91F8C91208131812F5F3F4F04
:101F90002F73332731832083282F30E002C02FEFA7
:101FA0003FEFC9010895FC0186859785FC01E05C3F
:101FB000FF4FDC01AE5BBF4F408151812D913C91C1
:101FC000119742175307C1F708951F93CF93DF93DB
:101FD000FC01162F26853785E901C05CDF4F88811B
:101FE0009981019660E470E039D5D901AE5BBF4FAD
:101FF0004D915C91119784179507D1F3A881B98110
:10200000A20FB31F1C93A685B785A05CBF4F119686
:102010009C938E93A689B7892C9181E090E0058CE2
:1020200002C0880F991F0A94E2F7282B2C9381E0B5
:1020300090E0DF91CF911F91089526E034E0FC01FC
:10204000318320837EC308951F920F920FB60F92A3
:1020500011242F933F934F938F939F93EF93FF936D
:102060004091C600809141089091420801968F737B
:10207000992720914308309144088217930759F01B
:10208000E0914108F0914208EF5FF74F4083909351
:10209000420880934108FF91EF919F918F914F915A
:1020A0003F912F910F900FBE0F901F9018958EE9C2
:1020B00097E026DF892B09F0C6CF08951F920F9273
:1020C0000FB60F9211242F933F935F936F937F93DB
:1020D0008F939F93AF93BF93EF93FF932091FD074F
:1020E0003091FE078091FF0790910008281739076B
:1020F00031F48091C1008F7D8093C10015C0E091C3
:10210000FF07F0910008E354F84F20818091FF070A
:1021100090910008019660E470E0A0D490930008CC
:102120008093FF072093C600FF91EF91BF91AF917D
:102130009F918F917F916F915F913F912F910F9020
:102140000FBE0F901F901895CF92DF92EF92FF92E3
:10215000CF93DF93EC016A017B01411581EE5807B3
:1021600061057105F1F0EC89FD8981E090E00E8C4C
:1021700002C0880F991F0A94E2F7808360E079E03B
:102180008DE390E0A70196017CD4215031094109EB
:1021900051095695479537952795211580E13807C0
:1021A00090F0EC89FD89108260E874E88EE190E09F
:1021B000A701960166D4215031094109510956956C
:1021C000479537952795E889F9893083EA89FB890E
:1021D0002083EE89FF89408181E090E09C010A8C98
:1021E00002C0220F331F0A94E2F7422B4083EE898C
:1021F000FF8940819C010B8C02C0220F331F0A947F
:10220000E2F7422B4083EE89FF8940819C010C8CD0
:1022100002C0220F331F0A94E2F7422B4083EE895B
:10222000FF8920810D8C02C0880F991F0A94E2F764
:10223000809582238083DF91CF91FF90EF90DF9094
:10224000CF9008951092A1071092A00788EE93E016
:10225000A0E0B0E08093A2079093A307A093A40707
:10226000B093A50786E094E090939F0780939E0724
:1022700081E098E09093AB078093AA078DEB97E0FD
:102280009093AD078093AC0785EC90E09093AF07F7
:102290008093AE0784EC90E09093B1078093B007F1
:1022A00080EC90E09093B3078093B20781EC90E0CC
:1022B0009093B5078093B40786EC90E09093B707AE
:1022C0008093B60784E08093B80783E08093B907D2
:1022D00087E08093BA0785E08093BB0781E0809315
:1022E000BC07089586E094E090939F0780939E0733
:1022F0000895DB010D900020E9F7AD01415051092F
:10230000461B570BDC01ED91FC910280F381E02D1F
:102310000994CF92DF92EF92FF920F931F93CF9386
:10232000DF936C01EB017A01E60EF71E00E010E08E
:102330000BC06991D601ED91FC910190F081E02DE7
:10234000C6010995080F191FCE15DF0591F7C801C1
:10235000DF91CF911F910F91FF90EF90DF90CF9081
:102360000895C7CFDC01ED91FC910190F081E02D43
:1023700009940F931F93CF93DF93EC016DE0F2DF8D
:102380008C016AE0CE01EEDF9C01200F311FC901F4
:10239000DF91CF911F910F9108950F931F93CF93CA
:1023A000DF93EC01A6DF8C01CE01E3DF9801280F5B
:1023B000391FC901DF91CF911F910F9108954F925D
:1023C0005F926F927F929F92AF92BF92CF92DF9275
:1023D000EF92FF920F931F93CF93DF93CDB7DEB7AA
:1023E000A1970FB6F894DEBF0FBECDBF5C016A01A6
:1023F0007B01922E19A281E0821710F08AE0982EBC
:102400008E010F5D1F4F492C512C612C712CC7017F
:10241000B601A301920135D38C2D929E801911240F
:10242000015011098A3014F4805D01C0895CF80103
:10243000808369017A01C114D104E104F10439F700
:10244000B801C50156DFA1960FB6F894DEBF0FBEE6
:10245000CDBFDF91CF911F910F91FF90EF90DF9053
:10246000CF90BF90AF909F907F906F905F904F9074
:1024700008952115310541F4DC01ED91FC910190A5
:10248000F081E02D642F09949ACF9A01462F50E0F5
:1024900060E070E0EECFCF92DF92EF92FF920F9369
:1024A0001F93CF93DF93EC016A017B012115310566
:1024B00079F4E881F9810190F081E02D642FDF91BA
:1024C000CF911F910F91FF90EF90DF90CF900994E3
:1024D0002A30310519F477FD0DC02AE0B701A601B5
:1024E000CE01DF91CF911F910F91FF90EF90DF9080
:1024F000CF9065CF6DE236DF8C0144275527BA01B6
:102500004C195D096E097F092AE0CE0158DF080FDA
:10251000191FC801DF91CF911F910F91FF90EF908C
:10252000DF90CF9008959A01AB01662757FD609523
:10253000762FB1CF0F931F93CF93DF93EC014CD144
:10254000688779878A879B87E881F9810680F78188
:10255000E02DCE0109959C0197FF14C03DD108855F
:1025600019852A853B85601B710B820B930B0C81AF
:102570001D812E813F81601771078207930720F329
:102580002FEF3FEFC901DF91CF911F910F91089578
:10259000FC01448355836683778308956F927F920D
:1025A0008F929F92AF92BF92CF92DF92EF92FF9263
:1025B0000F931F93CF93DF935C016B014A013901A5
:1025C000FB018081882399F1C0E0D0E0E12CF12C5F
:1025D00027C0F601EE0DFF1D2081332727FD309522
:1025E0008217930739F4FFEFEF1AFF0AE814F90492
:1025F00018F01DC0E12CF12C0115110579F0F30143
:10260000EC0FFD1F2081332727FD3095821793079C
:1026100029F42196C017D10718F007C0C0E0D0E018
:10262000C50188DF18161906A4F280E001C081E018
:10263000DF91CF911F910F91FF90EF90DF90CF909E
:10264000BF90AF909F908F907F906F9008950F9361
:102650001F939A01DA010D900020E9F78D010150D6
:102660001109041B150BFB0101900020E9F7AF01D4
:1026700041505109461B570B91DF1F910F9108954F
:1026800040E050E0E4CFCF92DF92EF92FF920F93C1
:102690001F93CF93DF937C018B016A01C0E0D0E0F0
:1026A00008C0C70147DF97FD07C0F80181938F017C
:1026B0002196CC15DD05A9F7CE01DF91CF911F91B1
:1026C0000F91FF90EF90DF90CF900895AF92BF925F
:1026D000CF92DF92EF92FF920F931F93CF93DF93EE
:1026E0006C018A017901C0E0D0E02115310591F03B
:1026F000A62EBB24A7FCB094C6011CDF97FD0AC020
:102700008A159B0539F0F80181938F012196CE152A
:10271000DF0591F7CE01DF91CF911F910F91FF90CF
:10272000EF90DF90CF90BF90AF900895B5D00E940A
:10273000B600C7E5D0E10E9405012097E1F3B7DCC0
:10274000FACFACC21F920F920FB60F9211242F93A3
:102750003F938F939F93AF93BF9380914508909140
:102760004608A0914708B091480830914D08232FA2
:102770002D5F2D3720F40196A11DB11D05C0232F1B
:102780002A570296A11DB11D20934D08809345083C
:1027900090934608A0934708B09348088091490851
:1027A00090914A08A0914B08B0914C080196A11D48
:1027B000B11D8093490890934A08A0934B08B093A9
:1027C0004C08BF91AF919F918F913F912F910F90A6
:1027D0000FBE0F901F9018950F931F938FB7F8940B
:1027E000009145081091460820914708309148080B
:1027F0008FBFB801C9011F910F9108950F931F93C7
:102800009FB7F8940091490810914A0820914B080D
:1028100030914C0886B5A89B06C08F3F21F00F5F12
:102820001F4F2F4F3F4F9FBF322F212F102F0027B9
:10283000080F111D211D311D42E0000F111F221F25
:10284000331F4A95D1F7B801C9011F910F9108951F
:10285000CF92DF92EF92FF92CF93DF936B017C01D7
:10286000CDDFEB010DC0CADF6C1B7D0B683E7340F2
:1028700038F081E0C81AD108E108F108C851DC4FEE
:10288000C114D104E104F10471F7DF91CF91FF90FD
:10289000EF90DF90CF900895789484B5826084BDE6
:1028A00084B5816084BD85B5826085BD85B5816054
:1028B00085BDEEE6F0E0808181608083E1E8F0E0B4
:1028C0001082808182608083808181608083E0E8E3
:1028D000F0E0808181608083E1EBF0E080818460C2
:1028E0008083E0EBF0E0808181608083EAE7F0E0C4
:1028F0008081846080838081826080838081816028
:1029000080838081806880831092C1000895833025
:1029100069F028F48130A1F0823011F514C08630BE
:10292000B1F08730C1F08430D9F404C080918000C8
:102930008F7703C0809180008F7D80938000089501
:1029400084B58F7702C084B58F7D84BD0895809152
:10295000B0008F7703C08091B0008F7D8093B0006E
:10296000089590E0FC01E458FF4F2491FC01E057EA
:10297000FF4FE491EE2399F0F0E0EE0FFF1FE854D3
:10298000FF4F85919491DC019FB7F8948C91611170
:1029900003C02095822301C0822B8C939FBF089592
:1029A0000F931F93CF93DF931F92CDB7DEB7282FDE
:1029B00030E0F901E859FF4F8491F901E458FF4FE5
:1029C0001491F901E057FF4F04910023C9F08823C7
:1029D00019F069839CDF6981E02FF0E0EE0FFF1FA3
:1029E000E255FF4F85919491DC019FB7F8948C914B
:1029F000611103C01095812301C0812B8C939FBF6F
:102A00000F90DF91CF911F910F910895CF93DF9396
:102A1000282F30E0F901E859FF4F8491F901E4587B
:102A2000FF4FD491F901E057FF4FC491CC2381F0BF
:102A300081116DDFEC2FF0E0EE0FFF1FEC55FF4F23
:102A400085919491DC018C918D2321E030E011F48B
:102A500020E030E0C901DF91CF91089597FB072E68
:102A600016F4009406D077FD08D02DD007FC05D0D1
:102A70003EF4909581959F4F0895709561957F4F95
:102A80000895A1E21A2EAA1BBB1BFD010DC0AA1FAF
:102A9000BB1FEE1FFF1FA217B307E407F50720F0C7
:102AA000A21BB30BE40BF50B661F771F881F991F42
:102AB0001A9469F760957095809590959B01AC018B
:102AC000BD01CF010895AA1BBB1B51E107C0AA1F7E
:102AD000BB1FA617B70710F0A61BB70B881F991FBF
:102AE0005A95A9F780959095BC01CD0108952F9234
:102AF0003F924F925F926F927F928F929F92AF928E
:102B0000BF92CF92DF92EF92FF920F931F93CF93DA
:102B1000DF93CDB7DEB7CA1BDB0B0FB6F894DEBF71
:102B20000FBECDBF09942A88398848885F846E8497
:102B30007D848C849B84AA84B984C884DF80EE80E1
:102B4000FD800C811B81AA81B981CE0FD11D0FB6EA
:102B5000F894DEBF0FBECDBFED010895EE0FFF1F4D
:102B60000590F491E02D0994CF93DF938230910585
:102B700010F482E090E0E0915008F091510840E0BC
:102B800050E020E030E026C060817181681779074D
:102B9000E0F06817790781F482819381211531056E
:102BA00031F0D90113969C938E9312972BC090937A
:102BB00051088093500826C04115510519F064173B
:102BC000750718F4AB01E901DF019F017281638190
:102BD000E72FF62F3097C1F64115510501F1481B3B
:102BE000590B4430510580F412968D919C911397A6
:102BF000209719F09B838A8304C090935108809397
:102C00005008FD01329646C0FD01E40FF51F819387
:102C100091934250504011965C934E933BC020914B
:102C20004E0830914F082115310541F420910201E1
:102C30003091030130934F0820934E0820910401F6
:102C4000309105012115310541F42DB73EB7409172
:102C5000000150910101241B350BE0914E08F091C9
:102C60004F08E217F307A0F42E1B3F0B2817390774
:102C700078F0AC014E5F5F4F2417350748F04E0FD8
:102C80005F1F50934F0840934E088193919302C069
:102C9000E0E0F0E0CF01DF91CF910895CF93DF9393
:102CA000009709F491C0FC0132971382128260915F
:102CB0005008709151086115710581F420813181AE
:102CC000280F391F80914E0890914F088217930763
:102CD00099F5F0934F08E0934E0876C0DB0180E051
:102CE00090E002C0CD01D901AE17BF0748F412969B
:102CF0002D913C91139721153105A1F7CD0121C0EC
:102D0000B383A283EF01499159919E01240F351F8E
:102D1000A217B30779F42D913C911197240F351F19
:102D20002E5F3F4F3183208312962D913C91139754
:102D300033832283009729F4F0935108E0935008DD
:102D400043C0DC011396FC93EE9312974D915D9175
:102D5000A40FB51FEA17FB0769F420813181240F06
:102D6000351F2E5F3F4FEC01398328832281338149
:102D70003B832A83E0E0F0E002C0FB01BC01DB0101
:102D800012968D919C9113970097B9F79B012E5F36
:102D90003F4F8D919C911197820F931F40914E0848
:102DA00050914F084817590779F4309729F4109239
:102DB00051081092500802C01382128222503040F3
:102DC00030934F0820934E08DF91CF910895FC0176
:102DD00088279927E89421912032E9F3293010F0CF
:102DE0002E30C8F32B3239F02D3231F4689403C001
:102DF00012D0820F911D219120532A30C8F31EF466
:102E0000909581959F4F0895FB01DC0101900D92F3
:102E10000020E1F708957AE0979F902D879F802DFD
:102E2000910D11240895AEE0B0E0E8E1F7E16DCE38
:102E30000D891E898F89988D26E02C831A8309833A
:102E400097FF02C080E090E801979E838D839E01EA
:102E5000255E3F4FCE010196698D7A8DA90131D053
:102E60004D815E8157FD0AC02F8138854217530777
:102E70000CF49A01020F131FF80110822E96E4E061
:102E800060CEAEE0B0E0E6E4F7E13FCE0D891E890A
:102E900086E08C831A8309838FEF9FE79E838D835F
:102EA0009E01275E3F4FCE0101966F89788DA90163
:102EB00008D0EF81F885E00FF11F10822E96E4E034
:102EC00040CEACE0B0E0E6E6F7E111CE6C011B01CC
:102ED0008A01FC0117821682838181FFC4C12E0101
:102EE0000894411C511CF6019381F10193FD8591D9
:102EF00093FF81911F01882309F4B1C1853239F410
:102F000093FD859193FF81911F01853221F490E01B
:102F1000B601F4D1E8CFEE24FF2420E02032B0F453
:102F20008B3269F08C3228F4803251F0833271F4A4
:102F30000BC08D3239F0803349F421602CC02260FF
:102F4000246029C0286027C0206125C027FD2CC02F
:102F5000382F30533A3098F426FF08C08E2D880F52
:102F6000E82EEE0CEE0CE80EE30E15C08F2D880F48
:102F7000F82EFF0CFF0CF80EF30E20620CC08E3200
:102F800021F426FD6CC1206406C08C3611F4206843
:102F900002C0883649F4F10193FD859193FF819138
:102FA0001F01882309F0BACF982F9554933018F059
:102FB0009052933028F40C5F1F4FFFE3F9830DC04C
:102FC000833631F0833771F0833509F05CC021C05E
:102FD000F801808189830E5F1F4F420171E0A72EA7
:102FE000B12C15C062E0662E712C600E711EF801C6
:102FF0008080918026FF03C06E2D70E002C06FEFCD
:103000007FEFC4012C876FD15C0183012C852F7762
:1030100016C052E0652E712C600E711EF801808082
:10302000918026FF03C06E2D70E002C06FEF7FEF2E
:10303000C4012C874DD15C012C852068830123FDC0
:103040001EC007C080E290E0B6012C8757D1FA94E9
:103050002C858F2D90E0A816B906A0F310C0F401BE
:1030600027FD859127FF81914F0190E0B6012C87C4
:1030700045D12C85F110FA940894A108B108A11447
:10308000B10469F7E9C0843611F0893641F527FFAC
:1030900008C0F80160817181828193810C5F1F4FAC
:1030A00009C0F80160817181882777FD8095982F8C
:1030B0000E5F1F4F4FE6B42EB22297FF09C09095C6
:1030C0008095709561957F4F8F4F9F4FF0E8BF2A95
:1030D000A2012AE030E03ED1782E741844C0853732
:1030E00031F43FEEB32EB2222AE030E025C099EF52
:1030F000B92EB2228F36C1F0803720F4883509F01E
:10310000AEC00DC0803721F0883709F0A8C002C0DA
:1031100020E1B22AB4FE0BC084E0B82A08C0B4FE95
:1031200009C0E6E0BE2A06C028E030E005C020E184
:1031300030E002C020E132E0B7FE08C0F801608153
:103140007181828193810C5F1F4F07C0F8016081FC
:10315000718180E090E00E5F1F4FA201FBD0782EBE
:103160007418FFE7BF22B6FE0BC02EEFB2227E140A
:1031700038F4B4FE07C0B2FC05C08FEEB82202C01E
:10318000A72C01C0AE2C8B2D90E0B4FE0DC0FE012B
:10319000E70DF11D2081203319F4E9EEBE2209C0AC
:1031A000A394B2FE06C004C086789070009709F020
:1031B000A3948B2C9924B3FC13C0B0FE0EC0AF14A3
:1031C00028F4E72CEF0CEA18AF2C07C0E72C05C059
:1031D00080E290E0B60192D0A394AF14C8F304C08B
:1031E000AF1410F4FA1801C0FF2484FE0EC080E36F
:1031F00090E0B60183D082FE1DC081FE03C088E549
:1032000090E010C088E790E00DC0C401867890700F
:10321000009781F081FC02C080E201C08BE2B7FC24
:103220008DE290E0B6016AD005C080E390E0B6017F
:1032300065D0EA947E14C8F37A94F201E70DF11D8B
:10324000808190E0B6015AD07720B1F705C080E2C6
:1032500090E0B60153D0FA94FF20C9F744CEF601AE
:103260002681378102C02FEF3FEFC9012C96E2E1A2
:103270005ACCDC01CB01FC01F999FECF06C0F2BDAE
:10328000E1BDF89A319600B40D9241505040B8F724
:103290000895A8E1B0E042E050E0EDCFDC01CB01C1
:1032A00002C02D9105D041505040D8F70895262FE7
:1032B000F999FECF1FBA92BD81BD20BD0FB6F8941B
:1032C000FA9AF99A0FBE01960895F1DF272FF0CFF1
:1032D000FC010590615070400110D8F780959095E1
:1032E0008E0F9F1F0895FC016150704001900110E6
:1032F000D8F7809590958E0F9F1F08950F931F9379
:10330000CF93DF938C01EB018B8181FF1BC082FF88
:103310000DC02E813F818C819D812817390764F46F
:10332000E881F9810193F983E88306C0E885F9858E
:10333000802F0995009731F48E819F8101969F839C
:103340008E8302C00FEF1FEFC801DF91CF911F9155
:103350000F910895FA01AA27283051F1203181F107
:10336000E8946F936E7F6E5F7F4F8F4F9F4FAF4F8D
:10337000B1E03ED0B4E03CD0670F781F891F9A1FA0
:10338000A11D680F791F8A1F911DA11D6A0F711D54
:10339000811D911DA11D20D009F468943F912AE060
:1033A000269F11243019305D3193DEF6CF01089548
:1033B000462F4770405D4193B3E00FD0C9F7F6CF79
:1033C000462F4F70405D4A3318F0495D31FD405241
:1033D000419302D0A9F7EACFB4E0A69597958795D7
:1033E00077956795BA95C9F70097610571050895B6
:1033F0009B01AC010A2E0694579547953795279562
:10340000BA95C9F7620F731F841F951FA01D0895F9
:1034100010E0CCECD0E003C0FE01A2DB2296CE3C53
:08342000D107D1F7F894FFCFAA
:103428002000520800000B090A08000000000000F4
:10343800320032000000DC0564000000F401F401F1
:103448000000000244656D6F536869656C642D4225
:103458007574746F6E730041726475696E6F204481
:10346800656D6F20536869656C642077697468209E
:103478003420627574746F6E7300736574207320E2
:103488006920307831300D00736574207320732003
:1034980025640D0047573D00736574207520622030
:1034A80035373630300D004D616320416464723D1C
:1034B80000676574206D0D007365742077206A209D
:1034C800370D007365742077206320360D0073650F
:1034D8007420612073204361726574616B65722D7D
:1034E8002563256325632563256325632563256394
:1034F80025632563256325630D00736574206120AA
:10350800702030333437333432640D0073657420DF
:1035180069206420340D00736574206920612031AE
:1035280039322E3136382E302E310D007365742025
:1035380069206E203235352E3235352E3235352E0E
:10354800300D0073657420692067203139322E31BF
:1035580036382E302E310D002A4F50454E2A002A7B
:10356800434C4F532A007365742069206820302E1D
:10357800302E302E300D007365742069206620309F
:103588007834300D007365742069206420310D0093
:103598007365742069207020310D00736574206292
:1035A800206920370D007365742077206120340D61
:1035B800007365742077206320300D0073657420D4
:1035C80077206A20310D00736574207720732025D9
:1035D800730D00736574207720702025730D0073B8
:1035E8006574206F20642025730D002A53455256B8
:1035F80045522A0A002D2042726F61646361737418
:1036080020726573706F6E73652066726F6D2073BC
:1036180065727665723A2025730073657420692097
:10362800682025730D007365742062206920300DB1
:1036380000434D4400242424004552520045584973
:103648005400657869740D00446541757468006CB0
:10365800656176650D0073686F77206E0D00736F76
:10366800633D4F006A6F696E2025730D00414F4B13
:10367800007365742069206420300D007365742020
:103688006920612025730D007365742069206E2000
:1036980025730D00736574206920672025730D005C
:1036A8007265626F6F740D0072696E670073617680
:1036B800650D0044656661756C74730066616374BA
:1036C8006F727920520D006F70656E0D00636C6F1C
:1036D80073650D006F70656E2025732025640D00DD
:1036E800736574207720612025640D00736574204C
:1036F80077206B2025730D004173736F63696174C4
:103708006564006A6F696E0D0056657200766572B1
:103718000D000000000028083308F8070408100806
:103728001C0800000000E50F8911800FAF0F930FF0
:06373800D30F7A0F1D10F3
:00000001FF
