:1000000065C000008BC0000089C0000087C00000F0
:1000100085C0000083C0000081C000007FC00000D8
:100020007DC000007BC0000079C0000077C00000E8
:1000300075C0000073C0000071C000006FC00000F8
:100040000C94DC116BC000000C945E0E0C94980EA6
:1000500065C0000063C0000061C000005FC0000018
:100060005DC000005BC0000000000007000201004E
:100070000003040600000000000000000102040864
:100080001020408001020408102001020408102002
:10009000040404040404040402020202020203032E
:1000A00003030303000000002300260029000000D2
:1000B0000000250028002B0000000000240027007D
:1000C0002A009801F602C1095C0FAC0F11241FBE73
:1000D000CFEFD8E0DEBFCDBF13E0A0E0B1E0ECE9A8
:1000E000F0E302C005900D92AA3EB107D9F717E0E0
:1000F000AAEEB3E001C01D92A331B107E1F710E011
:10010000CAECD0E004C02297FE010E94EA13C23C70
:10011000D107C9F70E94D0110C94421871CFCF9328
:10012000DF93C7E0D4E049E051E064E08881998141
:100130000E94090A4EED50E065E088819981DF91C7
:10014000CF910C94090ACF93DF93E0910704F091CB
:10015000080480818823A1F0DF01AC58BF4FEF0174
:10016000CF58DF4F6C91888199810E94EC0F4AE053
:1001700050E061E088819981DF91CF910C947F10EC
:10018000DF91CF9108950F931F93CF93DF938B014E
:10019000FC01EC58FF4FEC01CF58DF4F60818881A4
:1001A00099810E94EC0F4AE050E0B8018881998162
:1001B000DF91CF911F910F910C94CD1066E070E00C
:1001C00080910704909108040E94150A8091070409
:1001D00090910804FC012081222319F060E070E076
:1001E000D2DF89E00E944013E0910704F0910804F7
:1001F0002081222319F0BC01CF01C5DF28E833E1BB
:1002000041E050E060E080910704909108040C9474
:10021000250C80910704909108040E94BF0A8091E8
:100220000704909108040E94F60A83309105F9F0C2
:100230003CF48130910559F0A4F4892B39F12AC09E
:100240008530910519F1ACF0069721F519C0809120
:100250000704909108040E94F60A61E0892BB9F422
:1002600015C080910704909108040E94BF0A61E0C4
:100270000EC080910704909108040E94BF0A06C036
:1002800089E00E94401361E0892B09F060E089E079
:100290000E940A1393CF86E291E09093FA03809331
:1002A000F9038AE191E09093FC038093FB038DE0D6
:1002B00090E09093FE038093FD038CE090E0909398
:1002C00000048093FF038FE890E0909302048093F2
:1002D000010483EA90E0909304048093030489EF7F
:1002E00093E0B3D060E088E00E94EB1261E088E028
:1002F0000E940A1361E089E00C94EB12BAD1FFD09E
:100300008823A9F08AEE93E00E94710D8AEE93E0B3
:100310000E94AB0D882359F089E00E94401361E0F0
:10032000019709F460E089E00E940A1347CF08951D
:1003300025E030E040E050E068E08AEE93E00C9485
:10034000270D80912C06843069F485E080932C067B
:10035000E0914805F09149050484F585E02D30973A
:1003600009F0099408958091500581110FC063E050
:1003700070E080E595E00E94150A28E833E141E04D
:1003800050E060E080E595E00C94250C08950F9313
:100390001F93CF93DF938C01EB0120E830E045EC15
:1003A00054E06AE083EB94E00E94A0119C01009766
:1003B00079F0C817D9070CF49E01F901EB53FB4FF4
:1003C000108265EC74E0C8010E943E1581E001C016
:1003D00080E0DF91CF911F910F9108950F931F93AC
:1003E0009093470580934605E0914805F0914905B3
:1003F00084819581181619062CF560E00E940A1375
:100400008091460590914705892BE1F010924B05AC
:1004100010924A050E942612E0914605F091470588
:1004200000811181222717FD2095322F600F711F47
:10043000821F931F60934C0570934D0580934E056A
:1004400090934F051F910F910895CF93DF93EC0187
:1004500040E054E060E070E089E596E062D7D09338
:100460004905C093480580E595E09F878E878C817C
:100470009D81181619065CF461E00E94EB12E09170
:100480004805F091490560E084810E940A131092AA
:10049000470510924605E0914805F091490586818F
:1004A0009781181619065CF460E00E94EB12E09147
:1004B0004805F091490561E086810E940A1341EAEE
:1004C00051E062E080E595E0A4D743EB51E063E0C2
:1004D00080E595E09ED7E0914805F09149050084BC
:1004E000F185E02D309709F0099540E051EE60E08C
:1004F00070E08FE596E0DF91CF910C94DE0E81E005
:1005000090912C06953009F080E00895CF92DF920B
:10051000EF92FF920F931F93CF93DF936A01E9014C
:100520007B01B9016E0D7F1D2AD7811110C0C0E07B
:10053000D0E012C0B8016E0D7F1D41E050E0C60151
:10054000800F911F0E9473170F5F1F4F02C000E0C2
:1005500010E00C171D0770F3CE01DF91CF911F91B2
:100560000F91FF90EF90DF90CF9008958F929F9220
:10057000AF92BF92CF92DF92EF92FF920F931F93B1
:10058000CF93DF936C014A018901EB017901E60EFB
:10059000F71EB701F4D6811116C000E010E018C0B4
:1005A0005E018FEFA81AB80AB501C601E8D6882304
:1005B00041F041E050E0BE01C4018C0F9D1F0E943C
:1005C0008817E50102C08C1A9D0ACE15DF0541F798
:1005D000C801DF91CF911F910F91FF90EF90DF90B5
:1005E000CF90BF90AF909F908F9008950F936FE53D
:1005F00076E083EB94E0E0D40FE22BE34CE263EB94
:1006000074E080E595E001D70F910895DF92EF92B5
:10061000FF920F931F93CF93DF938C01EC0109900E
:100620000020E9F72197C81BD90B83EB94E07ED417
:100630008C179D077CF480E014C083EB94E082D497
:10064000F801EE0DFF1D208130E08217930799F726
:10065000D39401C0D12CED2CF12CEC16FD066CF3DB
:1006600081E0DF91CF911F910F91FF90EF90DF908C
:100670000895FF920F931F93CF93DF93E091480566
:10068000F09149058481958118161906DCF5809151
:10069000460590914705892BA9F10E9426120091E9
:1006A0004C0510914D0520914E0530914F050617D0
:1006B00017072807390708F40AC424C010924B050D
:1006C00010924A050E94261220914A0530914B054E
:1006D000220F331FE0914605F0914705E20FF31F0B
:1006E00000811181222717FD2095322F600F711F85
:1006F000821F931F60934C0570934D0580934E05A8
:1007000090934F0580912C06873009F466C180F4E0
:10071000833009F411C330F4813009F413C208F0B6
:10072000BCC219C0853009F4A3C308F09FC085C3BB
:100730008B3009F4ADC130F4893009F479C108F087
:100740008DC156C18D3009F458C008F49FC18E3058
:1007500009F0E6C379C0E0914805F091490586812A
:10076000978118161906BCF40E944013892B99F43E
:1007700086E091E033DE0E9426126854744F8F4F5A
:100780009F4F60932D0670932E0680932F069093B3
:1007900030068DE062C360E070E089E596E0E0D568
:1007A0009093B2048093B1048E3F9A4C09F06EC1CD
:1007B00024E230E04CE854E062E070E089E596E045
:1007C000A5DE20E230E04BE654E067E270E089E528
:1007D00096E09CDE20E230E04AE454E068E470E019
:1007E00089E596E093DE20E430E049E054E069E6F4
:1007F00070E089E596E08ADEA3C1E0914805F091BA
:10080000490586819781181619060CF089C30E9444
:100810004013019739F46AE070E080E090E00E94B4
:1008200062121EC00E94261200912D0610912E0603
:1008300020912F0630913006061717072807390731
:1008400008F06EC38EE009C3C0E0D0E04FEFBE01F8
:1008500089E596E088D52196C11584E0D807B1F7DF
:1008600080E090E0BBDD10922C065AC38CE091E052
:10087000B5DD83EB94E04ED528EE33E040E050E068
:100880006BE471E083EB94E0FFD428EE33E04AE5BB
:1008900051E064E671E083EB94E0F6D428EE33E0B7
:1008A00041E150E061E376E083EB94E084D4109280
:1008B000420628EE33E041E253E06BE671E083EB61
:1008C00094E0E2D428EE33E041E253E066E771E0E1
:1008D00083EB94E0D9D4809141061F928F9380914D
:1008E00040061F928F9380913E061F928F938091B6
:1008F0003D061F928F9380913B061F928F938091AC
:100900003A061F928F93809138061F928F938091A1
:1009100037061F928F93809135061F928F93809197
:1009200034061F928F93809132061F928F9380918D
:1009300031061F928F9381E891E09F938F9385EC0E
:1009400094E09F938F930E947B1528EE33E041E261
:1009500053E065EC74E083EB94E096D428EE33E04A
:1009600041E253E06DEA71E083EB94E08DD428EE30
:1009700033E041E253E06FEB71E083EB94E084D429
:1009800028EE33E041E253E06AEC71E083EB94E05F
:100990007BD428EE33E041E253E06FED71E083EB6E
:1009A00094E072D428EE33E041E253E066EF71E068
:1009B00083EB94E069D483EB94E0A5D483EB94E0DB
:1009C00093D487E080932C068DB79EB74C960FB6D4
:1009D000F8949EBF0FBE8DBFA3C28BE092E016DEDF
:1009E000882309F49DC282E191E0F8DC88E035C2F9
:1009F00083EB94E00E94F30F61E376E083EB94E0F5
:100A00000E940710E0914805F091490560817181CD
:100A100083EB94E00E940710E0914805F0914905AE
:100A20006281738183EB94E00E94071089E015C214
:100A300082E192E0EBDD882309F472C20E94261263
:100A400060527C468B4F9F4F60932D0670932E060D
:100A500080932F06909330068AE0FFC18BE092E0EE
:100A6000D5DD882311F08BE0F8C10E942612009199
:100A70002D0610912E0620912F0630913006061774
:100A800017072807390708F04BC225C086E0E5C1E3
:100A900083EB94E00E94F30F64E270E08CE894E052
:100AA00076DC811101C017C060E270E08BE694E053
:100AB0006EDC811101C00FC060E270E08AE494E056
:100AC00066DC811101C007C060E470E089E094E059
:100AD0005EDC811102C08CE0C0C182E192E096DD53
:100AE0008823D9F34EEF5AEC60E070E089E596E098
:100AF00040D424E230E04CE854E062E070E089E564
:100B000096E034DD20E230E04BE654E067E270E04E
:100B100089E596E02BDD20E230E04AE454E068E429
:100B200070E089E596E022DD20E430E049E054E021
:100B300069E670E089E596E019DD80E090E04EDC42
:100B400081E08BC183EB94E0E5D328EE33E040E015
:100B500050E06BE471E083EB94E096D328EE33E051
:100B600041E253E069E172E083EB94E08DD328EE3B
:100B700033E041E253E06AE272E083EB94E084D335
:100B800028EE33E041E253E068E372E083EB94E067
:100B90007BD328EE33E041E253E063E472E083EB81
:100BA00094E072D328EE33E041E253E06EE472E069
:100BB00083EB94E069D328EE33E041E253E069E54A
:100BC00072E083EB94E060D328EE33E041E253E03F
:100BD00064E672E083EB94E057D328EE33E041E221
:100BE00053E06FE672E083EB94E04ED38AE494E046
:100BF0009F938F938AE792E09F938F931F92C0E811
:100C0000CF9305EC14E01F930F930E944D1528EE2F
:100C100033E041E253E0B80183EB94E035D389E05F
:100C200094E09F938F9386E892E09F938F931F9217
:100C3000CF931F930F930E944D1528EE33E041E2AE
:100C400053E0B80183EB94E01FD38BE694E09F93CD
:100C50008F9382E992E09F938F931F92CF931F937C
:100C60000F930E944D1528EE33E041E253E0B801A6
:100C700083EB94E009D383EB94E045D383EB94E0DA
:100C800033D382E080932C068DB79EB748960FB67B
:100C9000F8949EBF0FBE8DBF43C18EE992E0B6DCD3
:100CA000882309F43DC16FE070E083E496E06FDBD8
:100CB000882309F435C1C3E4D6E0DF93CF9388EAF3
:100CC00092E09F938F931F9230E8F32EFF9205ECF2
:100CD00014E01F930F930E944D15DF93CF938DEC7B
:100CE00092E09F938F931F92FF921F930F930E9406
:100CF0004D1528EE33E041E253E0B80183EB94E078
:100D0000C3D228EE33E041E253E069ED72E083EBB9
:100D100094E0BAD283EB94E0F6D283EB94E029D24C
:100D200083E080932C068DB79EB740960FB6F8945B
:100D30009EBF0FBE8DBFF4C061E070E080E595E01E
:100D400074D380915005882381F06091C40580910F
:100D5000C1059091C2050E94EC0F6CE874E080918F
:100D6000C1059091C2050E94EB0FE0914805F091FA
:100D70004905C081D18180915005882379F0609127
:100D8000C4058091C1059091C2050E94EC0FBE017F
:100D90008091C1059091C2050E94EB0F8091500592
:100DA000882381F06091C4058091C1059091C205AE
:100DB0000E94EC0F6BE674E08091C1059091C20532
:100DC0000E94EB0FE0914805F0914905C281D38163
:100DD00080915005882379F06091C4058091C10508
:100DE0009091C2050E94EC0FBE018091C1059091C7
:100DF000C2050E94EB0FE0914805F091490502847D
:100E0000F385E02D309709F0099528E833E141E0BA
:100E100050E060E080E595E018D50E942612605E03
:100E2000714B8F4F9F4F60932D0670932E068093CA
:100E30002F069093300684E010C00E942612009185
:100E40002D0610912E0620912F06309130060617A0
:100E500017072807390720F483E080932C0660C029
:100E600080E595E0DF91CF911F910F91FF90DBC35B
:100E70000E942612009153061091540620915506A7
:100E800030915606061717072807390748F780914B
:100E9000500581110DC063E070E080E595E0C5D29A
:100EA00028E833E141E050E060E080E595E0CDD412
:100EB0000E94261260527C468B4F9F4F60935306D0
:100EC000709354068093550690935606C9CFE091CF
:100ED0004805F091490584810E94401361E0019723
:100EE00009F460E0E0914805F091490584810E9491
:100EF0000A1380914A0590914B05019690934B05FA
:100F000080934A05880F991FE0914605F0914705A7
:100F1000E80FF91F80819181892B09F4CFCBD2CBC7
:100F2000DF91CF911F910F91FF900895DC011C96E6
:100F30008D919C911D97DC01ED91FC910480F581D0
:100F4000E02D0994DC011C968D919C911D97DC018C
:100F5000ED91FC910680F781E02D0994DC011C964F
:100F60008D919C911D97DC01ED91FC910084F185A0
:100F7000E02D0994DC011C968D919C911D97DC015C
:100F8000ED91FC910284F385E02D0994FC01A48588
:100F9000B585ED91FC9111970190F081E02DCD0187
:100FA0000994FC01A485B585ED91FC91119702800F
:100FB000F381E02DCD010994CF93DF93EC01CB01B8
:100FC0001B821A8248EE53E060E070E04C835D8340
:100FD0006E837F8329EC33E039832883D0935806CE
:100FE000C09357069D878C87CE010E9402111E86F2
:100FF0001F86DF91CF9108952F923F924F925F927B
:101000006F927F928F929F92AF92BF92CF92DF9218
:10101000EF92FF920F931F93CF93DF931F92CDB761
:10102000DEB78C015B014A01290161157105A1F14F
:1010300030E0212C312C662457FC6094762C28C09B
:10104000D801ED91FC91D501A20DB31D0190F08165
:10105000E02D6C91C801398309953981019729F4F4
:10106000BFEF2B1A3B0A30E013C0332361F00E941C
:1010700026126C197D098E099F09461657066806C7
:10108000790660F004C00E9426126B017C0131E0F9
:1010900028143904ACF202C0212C312CC1010F906C
:1010A000DF91CF911F910F91FF90EF90DF90CF9044
:1010B000BF90AF909F908F907F906F905F904F9078
:1010C0003F902F900895EF92FF920F931F93CF932D
:1010D000DF937C01EA018901FB0101900020E9F71F
:1010E000AF0141505109461B570B86DF209711F481
:1010F00081E013C0A801662757FD6095762FC701D0
:101100000E9402110E942612BE01C7010E947A119C
:101110008111EECF0E94261280E0DF91CF911F91C6
:101120000F91FF90EF900895CF93DF93EC018E85A0
:10113000882319F089898230C0F028EE33E044EE2C
:1011400052E068EE72E0CE01BEDF882319F081E044
:101150008E870CC028EE33E04CEE52E06DE672E074
:10116000CE01B1DF8111F3CF01C081E0DF91CF91DA
:101170000895CF93DF93EC018E858823C1F028EE8C
:1011800033E040EF52E065EF72E0CE019CDF882350
:1011900011F01E860CC028EE33E04CEE52E06DE6F6
:1011A00072E0CE0190DF8823A1F380E001C081E0EE
:1011B000DF91CF9108954F925F926F927F928F92BD
:1011C0009F92AF92BF92CF92DF92EF92FF920F93D6
:1011D0001F93CF93DF935C014A018B01C0E0D0E005
:1011E0002901662457FC6094762C1AC00E942612AE
:1011F0006B017C01C40CD51CE61CF71CD501ED91DC
:10120000FC910680F781E02DC501099597FF0CC080
:101210000E9426126C157D058E059F0578F309C086
:10122000C815D9051CF305C0F80181938F012196DB
:10123000F7CFCE01DF91CF911F910F91FF90EF90EB
:10124000DF90CF90BF90AF909F908F907F906F90E6
:101250005F904F9008950F931F93CF93DF931F924A
:10126000CDB7DEB78C012AE030E041E050E0BE01AE
:101270006F5F7F4FC8019FDF0197A9F30F90DF9148
:10128000CF911F910F9108950F931F93CF93DF93E9
:1012900000D000D000D0CDB7DEB78C012D833E83C7
:1012A0004B835C8369837A83D6DFC8013DDF2D8160
:1012B0003E814B815C8169817A81C80104DFF8013C
:1012C000811105C081898F5F818B80E002C0118A06
:1012D00081E026960FB6F894DEBF0FBECDBFDF913A
:1012E000CF911F910F910895CF93DF93EC0128EEDA
:1012F00033E040E050E063E573E0C6DF1E8681E046
:10130000DF91CF91089528EE33E04BE553E060E69E
:1013100073E0BACF28EE33E046E653E06FE673E0C1
:10132000B3CF20915B0630915C0680915D06909171
:101330005E062817390721F470935E0660935D06F8
:1013400080915D0690915E0690935C0680935B06AB
:101350004817590724F05093190140931801089534
:10136000CB010C948317CB01642F0E94911781E06D
:101370000895CB01BA010E949F1781E0089581E092
:10138000089584E690E090935A0680935906089554
:101390000F93FC01DC01AA58BF4F1D921C92DC0187
:1013A000AF58BF4F6D937C931086DC01AC58BF4F94
:1013B0004C93DC01AD58BF4F2C93DC01AB58BF4FB1
:1013C0000C9380E483838FE384831282DF01A4592A
:1013D000BF4F1D921C92DF01A259BF4F1D921C925C
:1013E000DF01A659BF4F81E08C9380E090E0DF01E0
:1013F000A80FB91FA858BF4F1D921C9202968436A1
:101400009105A9F717820F9108950F93C1DF0F91EE
:101410000895623348F4E62FF0E0FC96EE0FFF1FCC
:10142000E80FF91F518340830895FC0180818111E9
:101430000AC081E080838783EF58FF4F4AE050E085
:1014400080819181AAC60895F90121E03081341389
:1014500020E0DB013C913083DC01AB58BF4F8C9125
:10146000381302C021111082822F08954F925F928B
:101470006F927F928F929F92AF92BF92CF92DF92A4
:10148000EF92FF920F931F93CF93DF938C01FC0198
:1014900015827B01EB012C01F5E04F0E511C3C0144
:1014A00085E7680E711C4801E4E78E0E911C0FC0A1
:1014B0009201F3014081BE01C801C6DF2196F5010A
:1014C0002081F4019081291302C0882339F05E0144
:1014D0006E01CE18DF0888818111EACFC601DF9145
:1014E000CF911F910F91FF90EF90DF90CF90BF9021
:1014F000AF909F908F907F906F905F904F900895E6
:10150000BF92CF92DF92EF92FF920F931F93CF93F0
:10151000DF936C01B42E79016115710519F4D901BD
:101520006D917C918B01E8014B2DB801C6019EDFC6
:10153000892B21F08881811107C014C00F5F1F4FD4
:1015400088818111F0CFF6CF4B2DBE01C6018EDF11
:10155000FE01E80FF91F808181111192D701ED93EF
:10156000FC9302C0C0E0D0E0CE01DF91CF911F918B
:101570000F91FF90EF90DF90CF90BF900895CF93A1
:10158000DF93EC01FC01E759FF4F8081882351F183
:10159000813031F4BE01675F7F4F82E0808302C0FB
:1015A00060E070E0FE01E659FF4F8081882371F012
:1015B0009E0122593F4FFE01EC58FF4F4081CE0162
:1015C0009FDFFE01E459FF4F91838083FE01E459C0
:1015D000FF4F80819181892B29F0C659DF4F81E02F
:1015E000888301C080E0DF91CF910895CF93DF938E
:1015F000EC01C5DFFE01E559FF4F882371F0DE01E4
:10160000A659BF4F81E08C938083C459DF4F8881F6
:101610009981DF91CF910C942115108280E090E0A8
:10162000DF91CF9108952F923F924F925F926F92E8
:101630007F928F929F92AF92BF92CF92DF92EF9262
:10164000FF920F931F93CF93DF93CDB7DEB72B9706
:101650000FB6F894DEBF0FBECDBF8C017C0181E7D1
:10166000E80EF11C580199E6A90EB11CD801AB583F
:10167000BF4FBD83AC83F801ED58FF4FFF83EE836E
:101680001801FCE62F0E311CC8018A589F4F99871C
:101690008887D801A559BF4FBB87AA879BC0F70190
:1016A00080819181DC01ED91FC910480F581E02D38
:1016B00009954C01B801675B7F4FA401F701808158
:1016C00091811BD66801C401800F911F9B838A837F
:1016D000280196E0490E511C4801AEE68A0E911C85
:1016E0003801BAE66B0E711C6FC0F601E75BFF4F65
:1016F00080818983F50110829201AC81BD814C917A
:10170000BE016F5F7F4FC8019FDE2981EE81FF819F
:101710003081D80112969C911297F801E90FF11DC2
:10172000231316C0811114C01186992329F081E07A
:10173000F501808316961C92F8011282D1011D9248
:101740001C92F40111821082E1E0D301EC9316C0E7
:1017500021879F5FD80112969C93129714968C91C3
:101760001497981758F012961C92F101118210826A
:10177000D4011D921C9281E0F3018083D5018C91EC
:101780008130F9F4C80132DFF8018183823390F4AB
:10179000AA85BB852C91222369F0FC01FF27FC96CA
:1017A000EE0FFF1FE00FF11F0190F081E02D309749
:1017B00009F006C0A885B985ED91FC91309709F034
:1017C0000995BFEFCB1ADB0AEA81FB81CE16DF0653
:1017D00009F08BCFD80117968C9181111DC0F701AC
:1017E00080819181DC01ED91FC910480F581E02DF7
:1017F0000995892B89F0F70180819181DC01ED91B8
:10180000FC910480F581E02D099580970CF447CF79
:1018100030E2832E912C4ECF2B960FB6F894DEBF7C
:101820000FBECDBFDF91CF911F910F91FF90EF9031
:10183000DF90CF90BF90AF909F908F907F906F90F0
:101840005F904F903F902F9008952F923F924F922C
:101850005F926F927F928F929F92AF92BF92CF9240
:10186000DF92EF92FF920F931F93CF93DF93CDB749
:10187000DEB765970FB6F894DEBF0FBECDBF8C0103
:10188000D62E5D874C872901DC018C91811102C025
:10189000312CC0C0F801ED58FF4F7801B1E7EB0ED5
:1018A000F11C6081F7018081918196D3D80118964F
:1018B0008C91882321F0F7018081918194D3DD20E0
:1018C00039F3662457FC6094762CC0D56B017C01FB
:1018D0004B015C01312C98012F583F4F3D832C83E5
:1018E000C80187599F4F9B838A83D8011696BF876B
:1018F000AE87F801EB58FF4FF98BE88B98012D5814
:101900003F4F3B8B2A8BC80185599F4F9D8B8C8BFA
:10191000D801A459BF4FBF83AE83F801E259FF4FEE
:10192000F987E887980126593F4F3B872A87222469
:10193000239454C0AC81BD818D919C91DC01ED91CB
:10194000FC910680F781E02D09958983EA81FB816E
:1019500010822E853F85A889B9894C91BE016F5FA1
:101960007F4FC80171DD2981EA89FB893081D80167
:1019700012969C911297F801E90FF11D23130CC0E8
:1019800081110AC01186992329F0EA81FB81208206
:1019900016961C92F80107C021879F5FF801928379
:1019A0008481981760F01282AE81BF811D921C92D3
:1019B000E885F98511821082AA85BB852C92EA817F
:1019C000FB818081813051F4C80110DE2C853D857A
:1019D0002817390719F4AC89BD893C908C189D08EB
:1019E000AE08BF0884149504A604B70498F4311017
:1019F00011C02CD54B015C01AC81BD818D919C91B6
:101A0000DC01ED91FC910480F581E02D0995892B95
:101A100029F390CFF80117821082832D65960FB6B7
:101A2000F894DEBF0FBECDBFDF91CF911F910F9114
:101A3000FF90EF90DF90CF90BF90AF909F908F90EE
:101A40007F906F905F904F903F902F9008951F93DD
:101A5000CF93DF93EC01162F2C833D834E835F835E
:101A6000188619861A861B86F1D4688379838A833F
:101A70009B83812F05D68C871D87DF91CF911F9186
:101A80000895FF920F931F93CF93DF93EC018D8501
:101A9000F7D5F82E8C858F1103C020E030E01AC0F6
:101AA000D5D4088119812A813B81601B710B820B7F
:101AB000930B0C811D812E813F8160177107820776
:101AC000930758F3C3D4688379838A839B83FC8606
:101AD00021E030E0C901DF91CF911F910F91FF907C
:101AE00008950F931F93CF93DF93EC01CADF892BE7
:101AF00009F01FC088859985AA85BB85892B8A2B0B
:101B00008B2B01F1A3D4088119812A813B81601BB1
:101B1000710B820B930B088519852A853B8560170D
:101B200071078207930770F091D4688379838A8361
:101B30009B83188619861A861B8681E08E8721E092
:101B400030E003C01E8620E030E0C901DF91CF9174
:101B50001F910F910895FC018685882319F081E07B
:101B60009485911180E0089529ED33E0FC013183E3
:101B700020830895FC0184859585FC01E05CFF4F7E
:101B800020813181FC01EE5BFF4F80819181281B18
:101B9000390B2F733327C9010895FC01848595857E
:101BA000FC01E05CFF4F40815181FC01EE5BFF4F87
:101BB000208131814217530741F00190F081E02DDF
:101BC000E80FF91F208130E002C02FEF3FEFC9017D
:101BD0000895FC0184859585FC01E05CFF4F408100
:101BE0005181FC01EE5BFF4F208131814217530789
:101BF00081F0A081B181A80FB91F8C912081318122
:101C00002F5F3F4F2F73332731832083282F30E0FE
:101C100002C02FEF3FEFC9010895FC01868597852B
:101C2000FC01E05CFF4FDC01AE5BBF4F40815181A6
:101C30002D913C91119742175307C1F708951F93B7
:101C4000CF93DF93FC01162F26853785E901C05C11
:101C5000DF4F88819981019660E470E039D5D90120
:101C6000AE5BBF4F4D915C91119784179507D1F3EF
:101C7000A881B981A20FB31F1C93A685B785A05C6C
:101C8000BF4F11969C938E93A689B7892C9181E0C2
:101C900090E0058C02C0880F991F0A94E2F7282B68
:101CA0002C9381E090E0DF91CF911F91089529ED71
:101CB00033E0FC01318320837EC308951F920F928D
:101CC0000FB60F9211242F933F934F938F939F93AF
:101CD000EF93FF934091C600809102079091030714
:101CE00001968F7399272091040730910507821779
:101CF000930759F0E0910207F0910307EE53F94F73
:101D000040839093030780930207FF91EF919F9187
:101D10008F914F913F912F910F900FBE0F901F9079
:101D200018958FE596E026DF892B09F0C6CF089538
:101D30001F920F920FB60F9211242F933F935F9330
:101D40006F937F938F939F93AF93BF93EF93FF9383
:101D50002091BE063091BF068091C0069091C106C9
:101D60002817390731F48091C1008F7D8093C1001D
:101D700015C0E091C006F091C106E258F94F2081EC
:101D80008091C0069091C106019660E470E0A0D4F5
:101D90009093C1068093C0062093C600FF91EF91F7
:101DA000BF91AF919F918F917F916F915F913F9183
:101DB0002F910F900FBE0F901F901895CF92DF922A
:101DC000EF92FF92CF93DF93EC016A017B01411503
:101DD00081EE580761057105F1F0EC89FD8981E01C
:101DE00090E00E8C02C0880F991F0A94E2F780835E
:101DF00060E079E08DE390E0A70196017CD421506A
:101E0000310941095109569547953795279521156F
:101E100080E1380790F0EC89FD89108260E874E871
:101E20008EE190E0A701960166D421503109410965
:101E300051095695479537952795E889F989308353
:101E4000EA89FB892083EE89FF89408181E090E067
:101E50009C010A8C02C0220F331F0A94E2F7422B26
:101E60004083EE89FF8940819C010B8C02C0220FC8
:101E7000331F0A94E2F7422B4083EE89FF894081A9
:101E80009C010C8C02C0220F331F0A94E2F7422BF4
:101E90004083EE89FF8920810D8C02C0880F991F35
:101EA0000A94E2F7809582238083DF91CF91FF909F
:101EB000EF90DF90CF900895109262061092610625
:101EC00088EE93E0A0E0B0E0809363069093640610
:101ED000A0936506B093660689ED93E09093600643
:101EE00080935F0682EC96E090936C0680936B067D
:101EF0008EE796E090936E0680936D0685EC90E0F9
:101F00009093700680936F0684EC90E09093720635
:101F10008093710680EC90E0909374068093730632
:101F200081EC90E0909376068093750686EC90E0C5
:101F3000909378068093770684E08093790683E017
:101F400080937A0687E080937B0685E080937C0609
:101F500081E080937D06089589ED93E0909360067B
:101F600080935F060895DB010D900020E9F7AD0135
:101F700041505109461B570BDC01ED91FC91028049
:101F8000F381E02D0994CF92DF92EF92FF920F93AD
:101F90001F93CF93DF936C01EB017A01E60EF71EDE
:101FA00000E010E00BC06991D601ED91FC91019029
:101FB000F081E02DC6010995080F191FCE15DF0528
:101FC00091F7C801DF91CF911F910F91FF90EF9092
:101FD000DF90CF900895C7CFDC01ED91FC91019087
:101FE000F081E02D09940F931F93CF93DF93EC01C1
:101FF0006DE0F2DF8C016AE0CE01EEDF9C01200F84
:10200000311FC901DF91CF911F910F9108950F9357
:102010001F93CF93DF93EC01A6DF8C01CE01E3DFAA
:102020009801280F391FC901DF91CF911F910F919E
:1020300008954F925F926F927F929F92AF92BF925C
:10204000CF92DF92EF92FF920F931F93CF93DF9384
:10205000CDB7DEB7A1970FB6F894DEBF0FBECDBFE8
:102060005C016A017B01922E19A281E0821710F0B7
:102070008AE0982E8E010F5D1F4F492C512C612C48
:10208000712CC701B601A301920135D38C2D929E0C
:1020900080191124015011098A3014F4805D01C0A7
:1020A000895CF801808369017A01C114D104E104DB
:1020B000F10439F7B801C50156DFA1960FB6F894BF
:1020C000DEBF0FBECDBFDF91CF911F910F91FF906B
:1020D000EF90DF90CF90BF90AF909F907F906F90E8
:1020E0005F904F9008952115310541F4DC01ED9189
:1020F000FC910190F081E02D642F09949ACF9A0110
:10210000462F50E060E070E0EECFCF92DF92EF928A
:10211000FF920F931F93CF93DF93EC016A017B0132
:102120002115310579F4E881F9810190F081E02DE4
:10213000642FDF91CF911F910F91FF90EF90DF906F
:10214000CF9009942A30310519F477FD0DC02AE0AB
:10215000B701A601CE01DF91CF911F910F91FF90A2
:10216000EF90DF90CF9065CF6DE236DF8C01442792
:102170005527BA014C195D096E097F092AE0CE0185
:1021800058DF080F191FC801DF91CF911F910F91E0
:10219000FF90EF90DF90CF9008959A01AB016627F2
:1021A00057FD6095762FB1CF0F931F93CF93DF9399
:1021B000EC014CD1688779878A879B87E881F98110
:1021C0000680F781E02DCE0109959C0197FF14C090
:1021D0003DD1088519852A853B85601B710B820BD3
:1021E000930B0C811D812E813F816017710782073F
:1021F000930720F32FEF3FEFC901DF91CF911F919C
:102200000F910895FC014483558366837783089575
:102210006F927F928F929F92AF92BF92CF92DF92F6
:10222000EF92FF920F931F93CF93DF935C016B01AB
:102230004A013901FB018081882399F1C0E0D0E097
:10224000E12CF12C27C0F601EE0DFF1D2081332774
:1022500027FD30958217930739F4FFEFEF1AFF0A35
:10226000E814F90418F01DC0E12CF12C011511053A
:1022700079F0F301EC0FFD1F2081332727FD309506
:102280008217930729F42196C017D10718F007C0C9
:10229000C0E0D0E0C50188DF18161906A4F280E07E
:1022A00001C081E0DF91CF911F910F91FF90EF90DE
:1022B000DF90CF90BF90AF909F908F907F906F9066
:1022C00008950F931F939A01DA010D900020E9F70A
:1022D0008D0101501109041B150BFB010190002019
:1022E000E9F7AF0141505109461B570B91DF1F9190
:1022F0000F91089540E050E0E4CFCF92DF92EF924B
:10230000FF920F931F93CF93DF937C018B016A01A0
:10231000C0E0D0E008C0C70147DF97FD07C0F80163
:1023200081938F012196CC15DD05A9F7CE01DF91B0
:10233000CF911F910F91FF90EF90DF90CF90089574
:10234000AF92BF92CF92DF92EF92FF920F931F93C3
:10235000CF93DF936C018A017901C0E0D0E02115B1
:10236000310591F0A62EBB24A7FCB094C6011CDF5A
:1023700097FD0AC08A159B0539F0F80181938F01FA
:102380002196CE15DF0591F7CE01DF91CF911F91F8
:102390000F91FF90EF90DF90CF90BF90AF90089596
:1023A000B5D00E944B01C1E9DEE00E947E0120977A
:1023B000E1F3B7DCFACFACC21F920F920FB60F92C7
:1023C00011242F933F938F939F93AF93BF9380914B
:1023D000060790910707A0910807B091090730916F
:1023E0000E07232F2D5F2D3720F40196A11DB11D5F
:1023F00005C0232F2A570296A11DB11D20930E0759
:102400008093060790930707A0930807B0930907E6
:1024100080910A0790910B07A0910C07B0910D07CE
:102420000196A11DB11D80930A0790930B07A093FD
:102430000C07B0930D07BF91AF919F918F913F9182
:102440002F910F900FBE0F901F9018950F931F9311
:102450008FB7F8940091060710910707209108079D
:10246000309109078FBFB801C9011F910F910895DD
:102470000F931F939FB7F89400910A0710910B07D1
:1024800020910C0730910D0786B5A89B06C08F3FA1
:1024900021F00F5F1F4F2F4F3F4F9FBF322F212F34
:1024A000102F0027080F111D211D311D42E0000FC4
:1024B000111F221F331F4A95D1F7B801C9011F917F
:1024C0000F910895CF92DF92EF92FF92CF93DF9317
:1024D0006B017C01CDDFEB010DC0CADF6C1B7D0BF6
:1024E000683E734038F081E0C81AD108E108F1086D
:1024F000C851DC4FC114D104E104F10471F7DF913C
:10250000CF91FF90EF90DF90CF900895789484B5AD
:10251000826084BD84B5816084BD85B5826085BDDF
:1025200085B5816085BDEEE6F0E0808181608083C5
:10253000E1E8F0E0108280818260808380818160A8
:102540008083E0E8F0E0808181608083E1EBF0E06F
:10255000808184608083E0EBF0E080818160808313
:10256000EAE7F0E0808184608083808182608083FC
:102570008081816080838081806880831092C10027
:102580000895833069F028F48130A1F0823011F58C
:1025900014C08630B1F08730C1F08430D9F404C063
:1025A000809180008F7703C0809180008F7D809321
:1025B0008000089584B58F7702C084B58F7D84BD77
:1025C00008958091B0008F7703C08091B0008F7D17
:1025D0008093B000089590E0FC01E458FF4F2491EF
:1025E000FC01E057FF4FE491EE2399F0F0E0EE0F8D
:1025F000FF1FE854FF4F85919491DC019FB7F89439
:102600008C91611103C02095822301C0822B8C9391
:102610009FBF08950F931F93CF93DF931F92CDB762
:10262000DEB7282F30E0F901E859FF4F8491F90116
:10263000E458FF4F1491F901E057FF4F0491002334
:10264000C9F0882319F069839CDF6981E02FF0E0ED
:10265000EE0FFF1FE255FF4F85919491DC019FB76C
:10266000F8948C91611103C01095812301C0812BD6
:102670008C939FBF0F90DF91CF911F910F91089581
:10268000CF93DF93282F30E0F901E859FF4F849171
:10269000F901E458FF4FD491F901E057FF4FC4917D
:1026A000CC2381F081116DDFEC2FF0E0EE0FFF1FE6
:1026B000EC55FF4F85919491DC018C918D2321E0A5
:1026C00030E011F420E030E0C901DF91CF910895AE
:1026D00097FB072E16F4009406D077FD08D02DD076
:1026E00007FC05D03EF4909581959F4F0895709515
:1026F00061957F4F0895A1E21A2EAA1BBB1BFD0115
:102700000DC0AA1FBB1FEE1FFF1FA217B307E407D0
:10271000F50720F0A21BB30BE40BF50B661F771F28
:10272000881F991F1A9469F7609570958095909508
:102730009B01AC01BD01CF010895AA1BBB1B51E158
:1027400007C0AA1FBB1FA617B70710F0A61BB70B21
:10275000881F991F5A95A9F780959095BC01CD01C6
:1027600008952F923F924F925F926F927F928F9235
:102770009F92AF92BF92CF92DF92EF92FF920F9310
:102780001F93CF93DF93CDB7DEB7CA1BDB0B0FB61A
:10279000F894DEBF0FBECDBF09942A8839884888D7
:1027A0005F846E847D848C849B84AA84B984C8846D
:1027B000DF80EE80FD800C811B81AA81B981CE0F64
:1027C000D11D0FB6F894DEBF0FBECDBFED01089549
:1027D000EE0FFF1F0590F491E02D0994CF93DF9346
:1027E0008230910510F482E090E0E0911107F091C1
:1027F000120740E050E020E030E026C060817181A7
:1028000068177907E0F06817790781F4828193816E
:102810002115310531F0D90113969C938E931297AF
:102820002BC0909312078093110726C041155105C4
:1028300019F06417750718F4AB01E901DF019F0176
:1028400072816381E72FF62F3097C1F6411551054C
:1028500001F1481B590B4430510580F412968D91BB
:102860009C911397209719F09B838A8304C09093BF
:10287000120780931107FD01329646C0FD01E40F57
:10288000F51F819391934250504011965C934E9363
:102890003BC020910F07309110072115310541F4FD
:1028A00020910201309103013093100720930F070C
:1028B00020910401309105012115310541F42DB716
:1028C0003EB74091000150910101241B350BE0916E
:1028D0000F07F0911007E217F307A0F42E1B3F0B30
:1028E0002817390778F0AC014E5F5F4F2417350782
:1028F00048F04E0F5F1F5093100740930F078193CE
:10290000919302C0E0E0F0E0CF01DF91CF91089514
:10291000CF93DF93009709F491C0FC0132971382A3
:10292000128260911107709112076115710581F48F
:1029300020813181280F391F80910F079091100756
:102940008217930799F5F0931007E0930F0776C06D
:10295000DB0180E090E002C0CD01D901AE17BF07D6
:1029600048F412962D913C91139721153105A1F74A
:10297000CD0121C0B383A283EF01499159919E01FA
:10298000240F351FA217B30779F42D913C911197AD
:10299000240F351F2E5F3F4F3183208312962D91D8
:1029A0003C91139733832283009729F4F093120705
:1029B000E093110743C0DC011396FC93EE9312974A
:1029C0004D915D91A40FB51FEA17FB0769F42081B3
:1029D0003181240F351F2E5F3F4FEC01398328834F
:1029E000228133813B832A83E0E0F0E002C0FB01D7
:1029F000BC01DB0112968D919C9113970097B9F75A
:102A00009B012E5F3F4F8D919C911197820F931FD9
:102A100040910F07509110074817590779F43097E4
:102A200029F4109212071092110702C01382128229
:102A3000225030403093100720930F07DF91CF9141
:102A40000895FC0188279927E89421912032E9F321
:102A5000293010F02E30C8F32B3239F02D3231F4FA
:102A6000689403C012D0820F911D219120532A3007
:102A7000C8F31EF4909581959F4F0895FB01DC01EA
:102A800001900D920020E1F708957AE0979F902D34
:102A9000879F802D910D11240895AEE0B0E0E2E50E
:102AA000F5E16DCE0D891E898F89988D26E02C83E6
:102AB0001A83098397FF02C080E090E801979E8304
:102AC0008D839E01255E3F4FCE010196698D7A8DE3
:102AD000A90131D04D815E8157FD0AC02F81388513
:102AE000421753070CF49A01020F131FF8011082CA
:102AF0002E96E4E060CEAEE0B0E0E0E8F5E13FCE57
:102B00000D891E8986E08C831A8309838FEF9FE7E6
:102B10009E838D839E01275E3F4FCE0101966F8974
:102B2000788DA90108D0EF81F885E00FF11F1082A0
:102B30002E96E4E040CEACE0B0E0E0EAF5E111CE64
:102B40006C011B018A01FC0117821682838181FFBF
:102B5000C4C12E010894411C511CF6019381F1015E
:102B600093FD859193FF81911F01882309F4B1C1E1
:102B7000853239F493FD859193FF81911F01853250
:102B800021F490E0B601F4D1E8CFEE24FF2420E058
:102B90002032B0F48B3269F08C3228F4803251F05C
:102BA000833271F40BC08D3239F0803349F42160E7
:102BB0002CC02260246029C0286027C0206125C065
:102BC00027FD2CC0382F30533A3098F426FF08C028
:102BD0008E2D880FE82EEE0CEE0CE80EE30E15C0DD
:102BE0008F2D880FF82EFF0CFF0CF80EF30E2062CD
:102BF0000CC08E3221F426FD6CC1206406C08C36D8
:102C000011F4206802C0883649F4F10193FD8591E2
:102C100093FF81911F01882309F0BACF982F955413
:102C2000933018F09052933028F40C5F1F4FFFE35D
:102C3000F9830DC0833631F0833771F0833509F0A5
:102C40005CC021C0F801808189830E5F1F4F420163
:102C500071E0A72EB12C15C062E0662E712C600EBB
:102C6000711EF8018080918026FF03C06E2D70E0F8
:102C700002C06FEF7FEFC4012C876FD15C0183012D
:102C80002C852F7716C052E0652E712C600E711EB8
:102C9000F8018080918026FF03C06E2D70E002C095
:102CA0006FEF7FEFC4012C874DD15C012C8520682C
:102CB000830123FD1EC007C080E290E0B6012C878F
:102CC00057D1FA942C858F2D90E0A816B906A0F361
:102CD00010C0F40127FD859127FF81914F0190E0FD
:102CE000B6012C8745D12C85F110FA940894A108DF
:102CF000B108A114B10469F7E9C0843611F089362E
:102D000041F527FF08C0F8016081718182819381BC
:102D10000C5F1F4F09C0F80160817181882777FD22
:102D20008095982F0E5F1F4F4FE6B42EB22297FF6B
:102D300009C090958095709561957F4F8F4F9F4FFB
:102D4000F0E8BF2AA2012AE030E03ED1782E7418C4
:102D500044C0853731F43FEEB32EB2222AE030E092
:102D600025C099EFB92EB2228F36C1F0803720F4FA
:102D7000883509F0AEC00DC0803721F0883709F0E2
:102D8000A8C002C020E1B22AB4FE0BC084E0B82A79
:102D900008C0B4FE09C0E6E0BE2A06C028E030E064
:102DA00005C020E130E002C020E132E0B7FE08C0FB
:102DB000F80160817181828193810C5F1F4F07C090
:102DC000F8016081718180E090E00E5F1F4FA201E9
:102DD000FBD0782E7418FFE7BF22B6FE0BC02EEF93
:102DE000B2227E1438F4B4FE07C0B2FC05C08FEEE8
:102DF000B82202C0A72C01C0AE2C8B2D90E0B4FEEF
:102E00000DC0FE01E70DF11D2081203319F4E9EE1C
:102E1000BE2209C0A394B2FE06C004C0867890709A
:102E2000009709F0A3948B2C9924B3FC13C0B0FE37
:102E30000EC0AF1428F4E72CEF0CEA18AF2C07C033
:102E4000E72C05C080E290E0B60192D0A394AF14C5
:102E5000C8F304C0AF1410F4FA1801C0FF2484FEB4
:102E60000EC080E390E0B60183D082FE1DC081FEDB
:102E700003C088E590E010C088E790E00DC0C40171
:102E800086789070009781F081FC02C080E201C0DA
:102E90008BE2B7FC8DE290E0B6016AD005C080E31A
:102EA00090E0B60165D0EA947E14C8F37A94F201FA
:102EB000E70DF11D808190E0B6015AD07720B1F77F
:102EC00005C080E290E0B60153D0FA94FF20C9F724
:102ED00044CEF6012681378102C02FEF3FEFC901B2
:102EE0002C96E2E15ACCDC01CB01FC01F999FECF32
:102EF00006C0F2BDE1BDF89A319600B40D92415082
:102F00005040B8F70895A8E1B0E042E050E0EDCFBE
:102F1000DC01CB0102C02D9105D041505040D8F7C3
:102F20000895262FF999FECF1FBA92BD81BD20BD0D
:102F30000FB6F894FA9AF99A0FBE01960895F1DF48
:102F4000272FF0CFFC010590615070400110D8F799
:102F5000809590958E0F9F1F0895FC0161507040E1
:102F600001900110D8F7809590958E0F9F1F0895BE
:102F70000F931F93CF93DF938C01EB018B8181FF24
:102F80001BC082FF0DC02E813F818C819D8128173F
:102F9000390764F4E881F9810193F983E88306C075
:102FA000E885F985802F0995009731F48E819F81FE
:102FB00001969F838E8302C00FEF1FEFC801DF9140
:102FC000CF911F910F910895FA01AA27283051F14E
:102FD000203181F1E8946F936E7F6E5F7F4F8F4F4A
:102FE0009F4FAF4FB1E03ED0B4E03CD0670F781FA9
:102FF000891F9A1FA11D680F791F8A1F911DA11D8E
:103000006A0F711D811D911DA11D20D009F46894C6
:103010003F912AE0269F11243019305D3193DEF66E
:10302000CF010895462F4770405D4193B3E00FD024
:10303000C9F7F6CF462F4F70405D4A3318F0495D0F
:1030400031FD4052419302D0A9F7EACFB4E0A695F2
:103050009795879577956795BA95C9F70097610514
:10306000710508959B01AC010A2E0694579547956A
:1030700037952795BA95C9F7620F731F841F951F5F
:10308000A01D089510E0CAECD0E003C0FE01A2DB51
:0C3090002296CC3CD107D1F7F894FFCF7A
:10309C00200013070000320032000000DC05640041
:1030AC000000F401F4010000000253696E676C65C6
:1030BC0020506F7274205377697463680073657461
:1030CC002073206920307831300D007365742073C3
:1030DC0020732025640D0047573D007365742075DF
:1030EC0020622035373630300D004D61632041644D
:1030FC0064723D00676574206D0D007365742077F4
:10310C00206A20370D007365742077206320360DFC
:10311C000073657420612073204361726574616B68
:10312C0065722D256325632563256325632563253A
:10313C0063256325632563256325630D007365741F
:10314C00206120702030333437333432640D0073F7
:10315C0065742069206420340D0073657420692027
:10316C0061203139322E3136382E302E310D00732C
:10317C0065742069206E203235352E3235352E326D
:10318C0035352E300D007365742069206720313978
:10319C00322E3136382E302E310D002A4F50454EFE
:1031AC002A002A434C4F532A007365742069206807
:1031BC0020302E302E302E300D0073657420692097
:1031CC006620307834300D007365742069206420DB
:1031DC00310D007365742069207020310D0073650A
:1031EC00742062206920370D00736574207720618C
:1031FC0020340D007365742077206320300D00732C
:10320C0065742077206A20310D0073657420772057
:10321C00732025730D00736574207720702025733F
:10322C000D00736574206F20642025730D002A53E4
:10323C0045525645522A0A002D2042726F61646332
:10324C0061737420726573706F6E73652066726F34
:10325C006D207365727665723A2025730073657400
:10326C00206920682025730D007365742062206925
:10327C0020300D00434D44002424240045525200BC
:10328C004558495400657869740D0044654175745E
:10329C0068006C656176650D0073686F77206E0D44
:1032AC0000736F633D4F006A6F696E2025730D00CC
:1032BC00414F4B007365742069206420300D0073FE
:1032CC006574206920612025730D00736574206975
:1032DC00206E2025730D00736574206920672025EE
:1032EC00730D007265626F6F740D0072696E67000A
:1032FC00736176650D0044656661756C7473006668
:10330C006163746F727920520D006F70656E0D00E1
:10331C00636C6F73650D006F70656E2025732025CF
:10332C00640D00736574207720612025640D007393
:10333C0065742077206B2025730D004173736F63C8
:10334C006961746564006A6F696E0D005665720080
:10335C007665720D0000000000C607D1079607A223
:10336C0007AE07BA07000000001F0EC30FBA0DE925
:0A337C000DCD0D0D0EB40D570E001F
:00000001FF
