:10000000A4C10000CAC10000C8C100000C94FB0FCD
:100010000C941E100C944110C0C10000BEC1000021
:10002000BCC10000BAC10000B8C10000B6C10000E8
:10003000B4C100000C94E40DB0C10000AEC10000DA
:100040000C94021BAAC100000C944B170C9485174A
:10005000A4C10000A2C10000A0C100009EC1000018
:100060009CC100009AC100002D20555549443A20FA
:10007000002D204E616D653A20002D205479706569
:100080003A20002D20535349443A20002D20575048
:1000900041323A200053544154455F00494E49547F
:1000A0000056616C696420454550524F4D204461B3
:1000B00074610053544154455F00464143544F52CC
:1000C000595F52455345545F434F4E4649524D0088
:1000D00053544154455F00464143544F52595F5277
:1000E000455345540053544154455F004E45575FB6
:1000F000444556494345002D204D41433A20002DAB
:10010000204163746976617465204150206D6F648D
:10011000650053544154455F00574149545F464F71
:10012000525F444953434F5645525900535441542A
:10013000455F0053454E445F494E464F005354417E
:1001400054455F00574149545F464F525F53454EF7
:10015000445F494E464F5F41434B00535441544521
:100160005F00574149545F464F525F434F4E4649E7
:10017000470053544154455F00434F4E4649475F43
:1001800054494D454F55540053544154455F004325
:100190004F4E4649475552455F44455649434500F1
:1001A00053544154455F00434F4E4E4543545F57AF
:1001B0004C414E0053544154455F00574149545FF0
:1001C000464F525F42524F4144434153545F524560
:1001D00053504F4E53450053544154455F005245D0
:1001E0004749535445525F574954485F5345525607
:1001F00045520053544154455F00574149545F46AE
:100200004F525F52454749535445525F57495448EE
:100210005F5345525645525F524553504F4E5345DA
:100220000053544154455F004F5045524154494F8B
:100230004E414C002A20536572766572526567699B
:1002400073746572526573706F6E7365002A205007
:10025000696E670000C201000100110011000C006E
:1002600000E100000A0025002500210000960000A2
:100270001900390039003600127A00001F004600CC
:10028000460044008070000022004D004D004A00EE
:10029000004B000036007500750072004038000009
:1002A0004A009C009C009900802500007200EC0030
:1002B000EC00E900C0120000E900DA01DA01D70120
:1002C00060090000D701B603B603B303B004000011
:1002D000B3036E076E076B072C010000DC0EC11D17
:1002E000C11DBE1D0000000700020100000304063E
:1002F00000000000000000000102040810204080FF
:10030000010204081020010204081020040404045F
:1003100004040404020202020202030303030303AF
:100320000000000023002600290000000000250036
:1003300028002B0000000000240027002A00B00342
:100340008505DE114918A305991811241FBECFEFAA
:10035000D8E0DEBFCDBF14E0A0E0B1E0E6EAF3E410
:1003600002C005900D92A632B107D9F717E0A6E2B8
:10037000B4E001C01D92A13CB107E1F713E0C6E46F
:10038000D3E004C02297FE010E946F1DCE33D10737
:10039000C9F70E94F61A0C94C72132CE0F931F930F
:1003A000CF93DF9369E170E0809146049091470418
:1003B0000E9432120091280410912904E091460411
:1003C000F09147048081882391F0DF01AC58BF4F42
:1003D000EF01CF58DF4F6C91888199810E94FA1804
:1003E0004AE050E0B801888199810E94DB1928E831
:1003F00033E141E050E060E0809146049091470491
:10040000DF91CF911F910F910C944214CF93DF9302
:10041000C6E4D4E047E253E068E1888199810E9414
:1004200026124EEC51E067E188819981DF91CF91EE
:100430000C9426128AE294E00C948B15CF93DF93F0
:10044000C1E001C0CF5F2C2F30E0D901AA0FBB1F44
:10045000FB01EA0FFB1F0190F081E02DE817F9077F
:100460008CF3A40FB51F8E179F0719F46D917C9123
:1004700025C021503109220F331FEB01C20FD31FBA
:1004800068817981EA01C20FD31F0990D881C02DFC
:10049000AC01461B570B2D913C912C1B3D0B429FF1
:1004A000C001439F900D529F900D11249F01261B68
:1004B000370BB9010E94ED1C6C0F7D1FCB01DF9142
:1004C000CF91089584E391E09093390480933804A8
:1004D0008FE391E090933B0480933A048DE090E0A9
:1004E00090933D0480933C048CE090E090933F0413
:1004F00080933E0486E092E0909341048093400410
:1005000088E394E023D261E089E00E94701C60E0FF
:1005100070E089E00E94E71B1092290410922804E1
:10052000109227041092260481E08093370448EE4D
:1005300053E060E070E086EB96E00E94740E2FEFCF
:100540003FEFA9016AE172E086EB96E00C94830E1E
:10055000CF93DF93BC018F3F910519F014F06FEF3B
:1005600070E077FF02C060E070E070932904609350
:10057000280480912604909127046817790709F4CC
:1005800063C0C0910E05D0910F054AE050E0CE0146
:100590000E94DB1967E571E0CE010E94F918809195
:1005A00028049091290420911201309113012817F9
:1005B00039072CF0809106019091070111C020911C
:1005C0001C0130911D018217930734F446E051E07D
:1005D00062E171E033DF04C080911001909111015C
:1005E0004AE050E0BC01CE010E94E219809128044B
:1005F0009091290420911201309113012817390795
:100600002CF0809106019091070111C020911C01EE
:1006100030911D018217930734F446E051E062E106
:1006200071E00CDF04C08091100190911101BC01B8
:1006300089E00E94E71BB2DE809128049091290492
:100640009093270480932604DF91CF910895CF9350
:10065000DF9380914604909147040E9413138330E6
:10066000910529F144F48130910569F09CF4892BBE
:1006700009F442C046C08530910571F1F4F0069747
:1006800009F03FC02FC080914604909147040E941A
:10069000131334C0C0912804D091290480914604DA
:1006A000909147040E9413138C0F9D1F27C08091C7
:1006B0002804909129040A9621C0C0912804D09161
:1006C000290480914604909147040E9413139E01CF
:1006D000281B390BC90112C080912804909129046C
:1006E0000A970CC080912804909129048F3F9105AE
:1006F00019F08FEF90E002C080E090E0DF91CF91A1
:1007000027CFDF91CF910895CF93DF9353D283D139
:10071000882319F1C0912804D09129048AE294E039
:100720000E949616853061F48091280490912904E6
:10073000181619061CF4C0E0D0E002C0CFEFD0E0DC
:100740008AE294E00E945A16880F991F880F991F19
:100750008C0F9D1FDF91CF91FBCEDF91CF9108953C
:10076000EF920F93E12C01E028E04AE06BE08AE28F
:1007700094E00E9444150F91EF90089564E372E0B5
:1007800080910E0590910F050E94151980918906A0
:10079000843069F485E080938906E0911005F0913A
:1007A00011050484F585E02D309709F0099408952A
:1007B0006DE472E080910E0590910F050E9415196D
:1007C0008091AD0581110FC063E070E08DEA95E086
:1007D0000E94321228E833E141E050E060E08DEA07
:1007E00095E00C944214089568E670E080910E053F
:1007F00090910F050E94D81867EE74E080910E0565
:1008000090910F050E94271961E770E080910E0515
:1008100090910F050E94D81866EC74E080910E0547
:1008200090910F050E9427196AE770E080910E05EC
:1008300090910F050E94D818E0911005F0911105D4
:100840006081718180910E0590910F050E9427199A
:1008500063E870E080910E0590910F050E94D81812
:1008600065EA74E080910E0590910F050E942719AA
:100870006CE870E080910E0590910F050E94D818E9
:1008800064E674E080910E0590910F050C94271991
:100890000F931F93CF93DF938C01EB0120E830E09F
:1008A00044E255E06AE082E195E00E94C61A9C01AC
:1008B000009779F0C817D9070CF49E01F901EC5D97
:1008C000FA4F108264E275E0C8010E94C31E81E005
:1008D00001C080E0DF91CF911F910F9108950F9398
:1008E0001F939093A6058093A505E0911005F091C4
:1008F000110584819581181619062CF560E00E9477
:100900008F1C8091A5059091A605892BE1F010928E
:10091000A8051092A7050E944C1BE091A505F09137
:10092000A60500811181222717FD2095322F600F27
:10093000711F821F931F6093A9057093AA0580936E
:10094000AB059093AC051F910F910895CF93DF9362
:10095000EC0140E855E260E070E08DE097E00E9435
:10096000CB1740E054E060E070E080E097E00E9448
:10097000AE11D0931105C09310058DEA95E09F87C5
:100980008E878C819D81181619065CF461E00E94A7
:10099000701CE0911005F091110560E084810E94C7
:1009A0008F1C1092A6051092A505E0911005F091FC
:1009B000110586819781181619065CF460E00E9483
:1009C000701CE0911005F091110561E086810E9494
:1009D0008F1C4EEB53E062E08DEA95E00E942612F8
:1009E00048ED53E063E08DEA95E00E942612E09125
:1009F0001005F09111050084F185E02D309709F084
:100A0000099540E855E260E070E088E494E0DF9109
:100A1000CF910C94E01081E090918906953009F017
:100A200080E00895CF92DF92EF92FF920F931F9391
:100A3000CF93DF936A01E9017B01B9016E0D7F1D40
:100A40000E94DC11811110C0C0E0D0E012C0B801DA
:100A50006E0D7F1D41E050E0C601800F911F0E9486
:100A6000F8200F5F1F4F02C000E010E00C171D07B9
:100A700070F3CE01DF91CF911F910F91FF90EF9016
:100A8000DF90CF9008958F929F92AF92BF92CF92B6
:100A9000DF92EF92FF920F931F93CF93DF936C013E
:100AA0004A018901EB017901E60EF71EB7010E94A8
:100AB000DC11811117C000E010E019C05E018FEF5A
:100AC000A81AB80AB501C6010E94DC11882341F0BA
:100AD00041E050E0BE01C4018C0F9D1F0E940D211A
:100AE000E50102C08C1A9D0ACE15DF0539F7C80151
:100AF000DF91CF911F910F91FF90EF90DF90CF90FA
:100B0000BF90AF909F908F9008950F938DE097E0E6
:100B100090930F0580930E0520E043E062E088E4A7
:100B200094E00E94B21068E474E082E195E097D608
:100B30000FE22BE34CE262E175E08DEA95E00E9462
:100B400022120F91089588E494E00C94A811DF928A
:100B5000EF92FF920F931F93CF93DF938C01EC01E1
:100B600009900020E9F72197C81BD90B82E195E095
:100B700030D68C179D077CF480E014C082E195E0AC
:100B800034D6F801EE0DFF1D208130E08217930767
:100B900099F7D39401C0D12CED2CF12CEC16FD0665
:100BA0006CF381E0DF91CF911F910F91FF90EF9057
:100BB000DF900895FF920F931F93CF93DF93E091FF
:100BC0001005F09111058481958118161906DCF540
:100BD0008091A5059091A605892BA9F10E944C1B37
:100BE0000091A9051091AA052091AB053091AC05A3
:100BF000061717072807390708F4BCC524C0109248
:100C0000A8051092A7050E944C1B2091A7053091C2
:100C1000A805220F331FE091A505F091A605E20F6C
:100C2000F31F00811181222717FD2095322F600FBD
:100C3000711F821F931F6093A9057093AA0580936B
:100C4000AB059093AC0520918906273009F4F9C1D2
:100C5000A0F480911E0190911F01233009F475C406
:100C600030F4213009F440C308F001C41DC0253020
:100C700009F438C508F0FEC002C52B3009F4BCC227
:100C800050F480911E0190911F01293009F438C25F
:100C900008F064C2FDC12D3009F47AC008F48EC298
:100CA0002E3009F090C5B7C0892BB1F065E970E02E
:100CB00080910E0590910F050E94D8186CE970E0A4
:100CC00080910E0590910F050E941519809189065B
:100CD00080931E0110921F01E0911005F091110503
:100CE0008681978118161906BCF40E94C51C892BB1
:100CF00099F480E291E0F3DD0E944C1B6854744F3C
:100D00008F4F9F4F60938A0670938B0680938C065B
:100D100090938D068DE0DBC460E070E080E097E0AA
:100D20000E94CD1190930D0580930C058E3F9A4C37
:100D300009F060C261EA70E080910E0590910F05A4
:100D40000E94151924E230E047EE54E062E070E0C2
:100D500080E097E067DE20E230E046EC54E067E2B6
:100D600070E080E097E05EDE20E230E045EA54E0AB
:100D700068E470E080E097E055DE20E430E044E68F
:100D800054E069E670E080E097E04CDE2DDDAAC219
:100D900080911E0190911F010D97B1F063EB70E0FF
:100DA00080910E0590910F050E94D8186AEB70E0B3
:100DB00080910E0590910F050E941519809189066A
:100DC00080931E0110921F01E0911005F091110512
:100DD00086819781181619060CF0F5C40E94C51C6F
:100DE000019739F46AE070E080E090E00E94881B8F
:100DF0003BC00E944C1B00918A0610918B062091EB
:100E00008C0630918D06061717072807390708F05A
:100E1000DAC48EE05CC480911E0190911F010E9790
:100E2000B1F060ED70E080910E0590910F050E9489
:100E3000D81867ED70E080910E0590910F050E9423
:100E400015198091890680931E0110921F01C0E040
:100E5000D0E04FEFBE0180E097E00E94D0112196D4
:100E6000C11584E0D807A9F780E090E038DD109242
:100E70008906A9C40697B1F065EE70E080910E0571
:100E800090910F050E94D8186CEE70E080910E05CD
:100E900090910F050E9415198091890680931E017B
:100EA00010921F0186E291E01ADD82E195E085D67D
:100EB00028EE33E040E050E068E771E082E195E041
:100EC00036D628EE33E046E851E060E971E082E191
:100ED00095E02DD628EE33E041E150E06EE876E073
:100EE00082E195E0BBD510929F0667EF70E080919C
:100EF0000E0590910F050E94D8186EE876E080915B
:100F00000E0590910F050E9427196FEF70E08091F8
:100F10000E0590910F050E94151928EE33E04DE45F
:100F200053E067E971E082E195E001D628EE33E015
:100F30004DE453E062EA71E082E195E0F8D58091FA
:100F40009E061F928F9380919D061F928F93809192
:100F50009B061F928F9380919A061F928F93809188
:100F600098061F928F93809197061F928F9380917E
:100F700095061F928F93809194061F928F93809174
:100F800092061F928F93809191061F928F9380916A
:100F90008F061F928F9380918E061F928F938DEAFA
:100FA00091E09F938F9384E295E09F938F930E94AB
:100FB000001F28EE33E04DE453E064E275E082E187
:100FC00095E0B5D528EE33E04DE453E069ED71E0EE
:100FD00082E195E0ACD528EE33E04DE453E06BEED2
:100FE00071E082E195E0A3D528EE33E04DE453E0D3
:100FF00066EF71E082E195E09AD528EE33E04DE4AA
:1010000053E06BE072E082E195E091D528EE33E0A9
:101010004DE453E062E272E082E195E088D582E13E
:1010200095E0C4D582E195E0B2D587E0809389064A
:101030008DB79EB74C960FB6F8949EBF0FBE8DBF6E
:10104000C2C380911E0190911F010797B1F062E128
:1010500071E080910E0590910F050E94D81869E10A
:1010600071E080910E0590910F050E9415198091F5
:10107000890680931E0110921F0187E392E067DDCD
:10108000882309F4A0C38CE291E029DC88E01FC327
:101090000897B1F06CE271E080910E0590910F0518
:1010A0000E94D81863E371E080910E0590910F05BE
:1010B0000E9415198091890680931E0110921F01CC
:1010C00082E195E00E9401196EE876E082E195E008
:1010D0000E942719E0911005F0911105608171813E
:1010E00082E195E00E942719E0911005F091110529
:1010F0006281738182E195E00E94271989E0E7C24D
:101100000997B1F06DE371E080910E0590910F05A4
:101110000E94D81864E471E080910E0590910F054B
:101120000E9415198091890680931E0110921F015B
:101130008EE392E00CDD882309F445C30E944C1B2A
:1011400060527C468B4F9F4F60938A0670938B064C
:1011500080938C0690938D068AE0B9C20A97B1F00D
:101160006BE571E080910E0590910F050E94D818F3
:1011700062E671E080910E0590910F050E941519AD
:101180008091890680931E0110921F0187E392E0EF
:10119000DEDC882311F08BE09AC20E944C1B009188
:1011A0008A0610918B0620918C0630918D060617C9
:1011B00017072807390708F006C35DC080911E0194
:1011C00090911F010C97B1F062E771E080910E05DC
:1011D00090910F050E94D81869E771E080910E0583
:1011E00090910F050E9415198091890680931E0128
:1011F00010921F0186E06BC280911E0190911F0129
:101200000B97B1F068E871E080910E0590910F05A1
:101210000E94D8186FE871E080910E0590910F053B
:101220000E9415198091890680931E0110921F015A
:1012300082E195E00E94011964E270E087EE94E09B
:1012400027DB811101C017C060E270E086EC94E0FA
:101250001FDB811101C00FC060E270E085EA94E0FD
:1012600017DB811101C007C060E470E084E694E000
:101270000FDB811102C08CE02AC28EE392E067DCB2
:101280008823D9F3B1DA4EEF5AEC60E070E080E0E9
:1012900097E00E94D61124E230E047EE54E062E08D
:1012A00070E080E097E0EFDB20E230E046EC54E0D5
:1012B00067E270E080E097E0E6DB20E230E045EABC
:1012C00054E068E470E080E097E0DDDB20E430E0AB
:1012D00044E654E069E670E080E097E0D4DB80E02B
:1012E00090E0FDDA81E0F3C10197B1F060EA71E0CE
:1012F00080910E0590910F050E94D81867EA71E061
:1013000080910E0590910F050E9415198091890614
:1013100080931E0110921F0182E195E04ED428EEC9
:1013200033E040E050E068E771E082E195E0FFD310
:1013300028EE33E04DE453E065E472E082E195E0AD
:10134000F6D328EE33E04DE453E066E572E082E147
:1013500095E0EDD328EE33E04DE453E064E672E02F
:1013600082E195E0E4D328EE33E04DE453E06FE60C
:1013700072E082E195E0DBD328EE33E04DE453E008
:101380006AE772E082E195E0D2D328EE33E04DE4E3
:1013900053E065E872E082E195E0C9D328EE33E0DE
:1013A0004DE453E060E972E082E195E0C0D328EEBD
:1013B00033E04DE453E06BE972E082E195E0B7D3AE
:1013C00085EA94E09F938F9386EA92E09F938F93B0
:1013D0001F92C0E8CF9304E215E01F930F930E9481
:1013E000D21E28EE33E04DE453E0B80182E195E0EF
:1013F0009ED384E694E09F938F9382EB92E09F9339
:101400008F931F92CF931F930F930E94D21E28EEAB
:1014100033E04DE453E0B80182E195E088D386ECF7
:1014200094E09F938F938EEB92E09F938F931F9204
:10143000CF931F930F930E94D21E28EE33E04DE40A
:1014400053E0B80182E195E072D382E195E0AED33A
:1014500082E195E09CD382E0809389068DB79EB7A8
:1014600048960FB6F8949EBF0FBE8DBFACC10297D1
:10147000B1F064EB71E080910E0590910F050E9430
:10148000D8186BEB71E080910E0590910F050E94CA
:1014900015198091890680931E0110921F018AEC14
:1014A00092E055DB882309F48EC16FE070E080EA9A
:1014B00096E0EED9882309F486C1C0EAD6E0DF932E
:1014C000CF9384ED92E09F938F931F9230E8F32E99
:1014D000FF9204E215E01F930F930E94D21EB80101
:1014E00080910E0590910F050E942719DF93CF93ED
:1014F00089EF92E09F938F931F92FF921F930F9318
:101500000E94D21E28EE33E04DE453E0B80182E1A0
:1015100095E00DD328EE33E04DE453E065E073E051
:1015200082E195E004D382E195E040D382E195E049
:1015300073D283E0809389068DB79EB740960FB62D
:10154000F8949EBF0FBE8DBF3EC10397B1F067ED0B
:1015500071E080910E0590910F050E94D8186EEDF4
:1015600071E080910E0590910F050E9415198091F0
:10157000890680931E0110921F0161E070E08DEAE0
:1015800095E070D78091AD05882381F060912106A8
:1015900080911E0690911F060E94FA1867EE74E073
:1015A00080911E0690911F060E94F918E091100587
:1015B000F0911105C081D1818091AD05882379F02A
:1015C0006091210680911E0690911F060E94FA18D4
:1015D000BE0180911E0690911F060E94F91880910D
:1015E000AD05882381F06091210680911E069091BF
:1015F0001F060E94FA1866EC74E080911E06909116
:101600001F060E94F918E0911005F0911105C281A2
:10161000D3818091AD05882379F060912106809176
:101620001E0690911F060E94FA18BE0180911E06A8
:1016300090911F060E94F918E0911005F091110594
:101640000284F385E02D309709F0099528E833E10D
:1016500041E050E060E08DEA95E00E9442140E9473
:101660004C1B605E714B8F4F9F4F60938A06709347
:101670008B0680938C0690938D0684E028C0049797
:10168000B1F063EF71E080910E0590910F050E941B
:10169000D8186AEF71E080910E0590910F050E94B5
:1016A00015198091890680931E0110921F010E94D6
:1016B0004C1B00918A0610918B0620918C0630916C
:1016C0008D06061717072807390720F483E0809353
:1016D000890679C08DEA95E0DF91CF911F910F9136
:1016E000FF90BEC70597B1F061E272E080910E05F0
:1016F00090910F050E94D81868E272E080910E0563
:1017000090910F050E9415198091890680931E0102
:1017100010921F010E944C1B0091B0061091B1065F
:101720002091B2063091B30606171707280739072C
:1017300088F68091AD0581110EC063E070E08DEAFE
:1017400095E090D628E833E141E050E060E08DEA92
:1017500095E00E9442140E944C1B60527C468B4FC5
:101760009F4F6093B0067093B1068093B20690933A
:10177000B306B0CFE0911005F091110584810E946D
:10178000C51C61E0019709F460E0E0911005F0915B
:10179000110584810E948F1C8091A7059091A80556
:1017A00001969093A8058093A705880F991FE09153
:1017B000A505F091A605E80FF91F80819181892B7D
:1017C00009F41DCA20CADF91CF911F910F91FF909C
:1017D0000895DC011C968D919C911D97DC01ED9183
:1017E000FC910480F581E02D0994DC011C968D911B
:1017F0009C911D97DC01ED91FC910680F781E02D15
:101800000994DC011C968D919C911D97DC01ED9152
:10181000FC910084F185E02D0994DC011C968D91EA
:101820009C911D97DC01ED91FC910284F385E02DE4
:101830000994FC01A485B585ED91FC911197019067
:10184000F081E02DCD010994FC01A485B585ED91D1
:10185000FC9111970280F381E02DCD010994CF9383
:10186000DF93EC01CB011B821A8248EE53E060E06B
:1018700070E04C835D836E837F8325EF33E0398393
:101880002883D093B506C093B4069D878C87CE017C
:101890000E94281A1E861F86DF91CF9108952F92ED
:1018A0003F924F925F926F927F928F929F92AF92F0
:1018B000BF92CF92DF92EF92FF920F931F93CF933D
:1018C000DF931F92CDB7DEB78C015B014A0129017E
:1018D00061157105A1F130E0212C312C662457FCF3
:1018E0006094762C28C0D801ED91FC91D501A20D11
:1018F000B31D0190F081E02D6C91C80139830995E9
:101900003981019729F4BFEF2B1A3B0A30E013C04D
:10191000332361F00E944C1B6C197D098E099F09CD
:10192000461657066806790660F004C00E944C1BF4
:101930006B017C0131E028143904ACF202C0212C87
:10194000312CC1010F90DF91CF911F910F91FF902A
:10195000EF90DF90CF90BF90AF909F908F907F904F
:101960006F905F904F903F902F900895EF92FF926D
:101970000F931F93CF93DF937C01EA018901FB0151
:1019800001900020E9F7AF0141505109461B570B68
:1019900086DF209711F481E013C0A801662757FD68
:1019A0006095762FC7010E94281A0E944C1BBE0129
:1019B000C7010E94A01A8111EECF0E944C1B80E04B
:1019C000DF91CF911F910F91FF90EF900895CF93EA
:1019D000DF93EC018E85882319F089898230C0F06D
:1019E00028EE33E040E153E064E173E0CE01BEDF76
:1019F000882319F081E08E870CC028EE33E048E19F
:101A000053E069E972E0CE01B1DF8111F3CF01C08B
:101A100081E0DF91CF910895CF93DF93EC018E8524
:101A20008823C1F028EE33E04CE153E061E273E03B
:101A3000CE019CDF882311F01E860CC028EE33E017
:101A400048E153E069E972E0CE0190DF8823A1F319
:101A500080E001C081E0DF91CF9108954F925F92C5
:101A60006F927F928F929F92AF92BF92CF92DF92AE
:101A7000EF92FF920F931F93CF93DF935C014A0184
:101A80008B01C0E0D0E02901662457FC6094762CDD
:101A90001AC00E944C1B6B017C01C40CD51CE61CB7
:101AA000F71CD501ED91FC910680F781E02DC50171
:101AB000099597FF0CC00E944C1B6C157D058E0587
:101AC0009F0578F309C0C815D9051CF305C0F801B6
:101AD00081938F012196F7CFCE01DF91CF911F9196
:101AE0000F91FF90EF90DF90CF90BF90AF909F90BD
:101AF0008F907F906F905F904F9008950F931F93FA
:101B0000CF93DF931F92CDB7DEB78C012AE030E090
:101B100041E050E0BE016F5F7F4FC8019FDF01973A
:101B2000A9F30F90DF91CF911F910F9108950F931B
:101B30001F93CF93DF9300D000D000D0CDB7DEB796
:101B40008C012D833E834B835C8369837A83D6DF4C
:101B5000C8013DDF2D813E814B815C8169817A81A5
:101B6000C80104DFF801811105C081898F5F818B75
:101B700080E002C0118A81E026960FB6F894DEBF9D
:101B80000FBECDBFDF91CF911F910F910895CF93DD
:101B9000DF93EC0128EE33E040E050E06FE773E0C4
:101BA000C6DF1E8681E0DF91CF91089528EE33E0F5
:101BB00047E853E06CE873E0BACF28EE33E042E93F
:101BC00053E06BE973E0B3CF1F920F920FB60F9201
:101BD00011242F933F934F935F936F937F938F9332
:101BE0009F93AF93BF93EF93FF93E091BA06F09169
:101BF000BB060995FF91EF91BF91AF919F918F9196
:101C00007F916F915F914F913F912F910F900FBEF8
:101C10000F901F901895FC01A3E0440F551F661FFD
:101C2000771FAA95D1F74115510581E06807710525
:101C300014F481E00EC033E075956795579547958C
:101C40003A95D1F74115510581E0680771051CF4FB
:101C500082E0828332C023E075956795579547955A
:101C60002A95D1F74115510581E06807710514F4F3
:101C700083E0EFCF92E075956795579547959A95D4
:101C8000D1F74115510581E06807710514F484E02E
:101C9000E0CF82E075956795579547958A95D1F77E
:101CA00085E082834115510581E0680771050CF4D8
:101CB00004C04FEF5FEF60E070E08FB78383F8946C
:101CC00051834083509387004093860083818FBF68
:101CD00080918100887F8093810080918100928132
:101CE000892B8093810008951092800020E1209339
:101CF000810091CFE1E8F0E02081DC0112968C9127
:101D0000282B208308950F931F93CF93DF93EC012B
:101D10008B01BA01A90114161506160617060CF454
:101D20007ADF1D830C8381E080936F00CE01DF9109
:101D3000CF911F910F91DECF2091FE063091FF06CB
:101D400028173907C1F49091BC068091BD069817F9
:101D500091F0E091BC06F0E0E254F94F80812091CF
:101D6000BC0630E02F5F3F4F2F7333272093BC0614
:101D7000282F30E002C02FEF3FEFC90108952091D6
:101D8000FE063091FF062817390781F49091BC06B2
:101D90008091BD06981751F0E091BC06F0E0E25446
:101DA000F94F2081332727FD309502C02FEF3FEFF9
:101DB000C90108952091FE063091FF0628173907C2
:101DC00039F48FB7F8941092BD061092BC068FBFFD
:101DD00008952091FE063091FF062817390779F4FF
:101DE0008091BD062091BC0690E0805C9F4F821BD5
:101DF000910960E470E00E94ED1C9C0102C020E0AB
:101E000030E0C9010895DC015196ED91FC915297A3
:101E1000208150968C91809582238083089520E0C4
:101E200001972FEF8F3F9207D9F708952091FE0673
:101E30003091FF062817390789F0FC01238D2E7F8A
:101E4000238F2FB7F8941092BD061092BC06909382
:101E5000FF068093FE062FBF81E0089580E008957D
:101E6000EF92FF920F931F93CF93DF93EC018B8D33
:101E7000EE85FF859D8581FF04C08081892329F43B
:101E800042C08081892309F03EC08B899C89C7DFCD
:101E900008E010E0EE24E394F12C8D899E89BFDFE9
:101EA000EE85FF8580819D85892311F0FE2803C082
:101EB0008E2D8095F822EE0C0150110971F78F8953
:101EC000988DADDF8B8D81FDF0948091BD062091C2
:101ED000BC0690E001968F73992730E08217930734
:101EE00079F0E091BD06F0E0E254F94FF082809184
:101EF000BD0690E001968F7399278093BD0603C0BD
:101F00008B8D81608B8FDF91CF911F910F91FF900F
:101F1000EF900895611101C076CFDC015196ED91EB
:101F2000FC915297208150968C91282B2083089504
:101F3000DF92EF92FF920F931F93CF93DF93EC0109
:101F4000E62E898D9A8D892B39F481E090E09B8370
:101F50008A8320E030E03EC0DFB6F8946B8D669552
:101F60006170CE01D7DF898D9A8D059658DF8B8DF4
:101F700008E010E0FF24F39481FF13C08F2D8E2121
:101F800019F0CE0140DF03C061E0CE01C3DF898DCF
:101F90009A8D45DFFF0C0150110981F7CE0133DF27
:101FA00013C08F2D8E2121F061E0CE01B3DF02C07E
:101FB000CE0129DF898D9A8D32DFFF0C0150110986
:101FC00081F761E0CE01A6DFDFBE898D9A8D27DF24
:101FD00021E030E0C901DF91CF911F910F91FF9077
:101FE000EF90DF9008958091FE069091FF06009794
:101FF00009F036CF08951F920F920FB60F92112459
:102000002F933F934F935F936F937F938F939F9300
:10201000AF93BF93EF93FF93E6DFFF91EF91BF91F3
:10202000AF919F918F917F916F915F914F913F9170
:102030002F910F900FBE0F901F9018951F920F9227
:102040000FB60F9211242F933F934F935F936F938B
:102050007F938F939F93AF93BF93EF93FF93C3DFD0
:10206000FF91EF91BF91AF919F918F917F916F9170
:102070005F914F913F912F910F900FBE0F901F9046
:1020800018951F920F920FB60F9211242F933F9322
:102090004F935F936F937F938F939F93AF93BF9370
:1020A000EF93FF93A0DFFF91EF91BF91AF919F91CD
:1020B0008F917F916F915F914F913F912F910F90F1
:1020C0000FBE0F901F9018951F93CF93DF93EC01D5
:1020D000162F61E0812F0E94701C61E0812F0E9409
:1020E0008F1C812F90E0FC01E850FD4FE491E88BBC
:1020F000FC01E45FFC4FE491F0E0EE0FFF1FE65DB2
:10210000FC4F85919491898B9A8BDF91CF911F9190
:1021100008951F93CF93DF93EC01162F60E0812F7A
:102120000E94701C8B8D81FD04C061E0812F0E9494
:102130008F1C1C87812F90E0FC01E850FD4FE4913B
:10214000ED87FC01E45FFC4FE491F0E0EE0FFF1F30
:10215000E05EFC4F859194918E879F87DF91CF91B0
:102160001F910895FF920F931F93CF93DF93EC017C
:10217000F62E522F1B821A8208EE13E020E030E088
:102180000C831D832E833F8385E094E099838883AD
:102190001C8A1B8A1E8A1D8A188E1F8A1A8E198E07
:1021A0008B8D8E7F50FB81F98B8F642FCE018CDF5E
:1021B0006F2DCE01DF91CF911F910F91FF90A9CF8D
:1021C000FF920F931F93CF93DF93EC011A8E198E1A
:1021D000188E1F8A1E8A1D8A1C8A1B8AA0E0B0E006
:1021E0002CE0F22EFA9EC001FB9E900D1124FC0102
:1021F000EC5AFD4F0591159125913491041715075F
:1022000026073707E9F4FC01E85AFD4F2591349180
:102210002B8B3C8BFC01E65AFD4F259134912D8B85
:102220003E8BFC01E45AFD4F259134912F8B388F62
:10223000825A9D4FFC0185919491898F9A8F05C098
:102240001196AC30B10509F0CDCF8F89988D892BCF
:1022500009F448C03C85363108F041C0409168001F
:10226000383068F081E090E03E3010F480E090E09B
:1022700021E030E001C0220F8A95EAF701C024E096
:10228000242B209368003C85383038F03E3040F0F5
:10229000363148F0E0E0F0E008C0EDE6F0E005C0DF
:1022A000EBE6F0E002C0ECE6F0E04081383040F4CC
:1022B00081E090E0282F01C0220F3A95EAF70DC087
:1022C000832F90E03E3010F4089701C00E9721E074
:1022D00030E001C0220F8A95EAF7242B2083898DF4
:1022E0009A8D9DDDCE01DF91CF911F910F91FF90CF
:1022F0009DCDFC014485463150F5483028F04E30E4
:1023000030F4EBE6F0E005C0EDE6F0E002C0ECE60C
:10231000F0E05081483040F481E090E0042E01C0AC
:10232000880F0A94EAF710C0242F30E04E3018F4DA
:102330002850310902C02E50310981E090E0022E70
:1023400001C0880F0A94EAF7809585238083089559
:1023500025E034E0FC0131832083CBCF20910207BC
:1023600030910307809104079091050728173907DA
:1023700021F47093050760930407809104079091FE
:10238000050790930307809302074817590724F025
:1023900050933301409332010895CB010C940821EE
:1023A000CB01642F0E94162181E00895CB01BA0170
:1023B0000E94242181E0089581E0089584E690E060
:1023C000909301078093000708950F93FC01DC01AF
:1023D000AA58BF4F1D921C92DC01AF58BF4F6D939E
:1023E0007C931086DC01AC58BF4F4C93DC01AD5898
:1023F000BF4F2C93DC01AB58BF4F0C9380E4838319
:102400008FE384831282DF01A459BF4F1D921C9277
:10241000DF01A259BF4F1D921C92DF01A659BF4F89
:1024200081E08C9380E090E0DF01A80FB91FA858ED
:10243000BF4F1D921C92029684369105A9F7178210
:102440000F9108950F93C1DF0F910895623348F4FF
:10245000E62FF0E0FC96EE0FFF1FE80FF91F518307
:1024600040830895FC01808181110AC081E080834E
:102470008783EF58FF4F4AE050E0808191819BC7EE
:102480000895F90121E03081341320E0DB013C9113
:102490003083DC01AB58BF4F8C91381302C021113F
:1024A0001082822F08954F925F926F927F928F9247
:1024B0009F92AF92BF92CF92DF92EF92FF920F93D3
:1024C0001F93CF93DF938C01FC0115827B01EB01FD
:1024D0002C01F5E04F0E511C3C0185E7680E711C84
:1024E0004801E4E78E0E911C0FC09201F301408178
:1024F000BE01C801C6DF2196F5012081F40190815B
:10250000291302C0882339F05E016E01CE18DF085E
:1025100088818111EACFC601DF91CF911F910F9180
:10252000FF90EF90DF90CF90BF90AF909F908F90F3
:102530007F906F905F904F900895BF92CF92DF92FF
:10254000EF92FF920F931F93CF93DF936C01B42E02
:1025500079016115710519F4D9016D917C918B0197
:10256000E8014B2DB801C6019EDF892B21F088813F
:10257000811107C014C00F5F1F4F88818111F0CFF8
:10258000F6CF4B2DBE01C6018EDFFE01E80FF91F0D
:10259000808181111192D701ED93FC9302C0C0E0BC
:1025A000D0E0CE01DF91CF911F910F91FF90EF907E
:1025B000DF90CF90BF900895CF93DF93EC01FC01A3
:1025C000E759FF4F8081882351F1813031F4BE01FA
:1025D000675F7F4F82E0808302C060E070E0FE01B1
:1025E000E659FF4F8081882371F09E0122593F4FA9
:1025F000FE01EC58FF4F4081CE019FDFFE01E45900
:10260000FF4F91838083FE01E459FF4F80819181C8
:10261000892B29F0C659DF4F81E0888301C080E013
:10262000DF91CF910895CF93DF93EC01C5DFFE01D9
:10263000E559FF4F882371F0DE01A659BF4F81E0B5
:102640008C938083C459DF4F88819981DF91CF912A
:102650000C94A61E108280E090E0DF91CF91089547
:102660002F923F924F925F926F927F928F929F92A2
:10267000AF92BF92CF92DF92EF92FF920F931F9390
:10268000CF93DF93CDB7DEB72B970FB6F894DEBFAD
:102690000FBECDBF8C017C0181E7E80EF11C580113
:1026A00099E6A90EB11CD801AB58BF4FBD83AC83CE
:1026B000F801ED58FF4FFF83EE831801FCE62F0E63
:1026C000311CC8018A589F4F99878887D801A5591E
:1026D000BF4FBB87AA879BC0F70180819181DC0136
:1026E000ED91FC910480F581E02D09954C01B80134
:1026F000675B7F4FA401F7018081918124D7680136
:10270000C401800F911F9B838A83280196E0490EA4
:10271000511C4801AEE68A0E911C3801BAE66B0ED8
:10272000711C6FC0F601E75BFF4F80818983F50163
:1027300010829201AC81BD814C91BE016F5F7F4FD1
:10274000C8019FDE2981EE81FF813081D801129678
:102750009C911297F801E90FF11D231316C0811106
:1027600014C01186992329F081E0F5018083169623
:102770001C92F8011282D1011D921C92F401118267
:102780001082E1E0D301EC9316C021879F5FD8014E
:1027900012969C93129714968C911497981758F050
:1027A00012961C92F10111821082D4011D921C928A
:1027B00081E0F3018083D5018C918130F9F4C80167
:1027C00032DFF8018183823390F4AA85BB852C9196
:1027D000222369F0FC01FF27FC96EE0FFF1FE00F9C
:1027E000F11F0190F081E02D309709F006C0A88517
:1027F000B985ED91FC91309709F00995BFEFCB1A9F
:10280000DB0AEA81FB81CE16DF0609F08BCFD80107
:1028100017968C9181111DC0F70180819181DC0197
:10282000ED91FC910480F581E02D0995892B89F0CB
:10283000F70180819181DC01ED91FC910480F581AB
:10284000E02D099580970CF447CF30E2832E912C30
:102850004ECF2B960FB6F894DEBF0FBECDBFDF91E3
:10286000CF911F910F91FF90EF90DF90CF90BF908D
:10287000AF909F908F907F906F905F904F903F9020
:102880002F9008952F923F924F925F926F927F9276
:102890008F929F92AF92BF92CF92DF92EF92FF9270
:1028A0000F931F93CF93DF93CDB7DEB765970FB626
:1028B000F894DEBF0FBECDBF8C01D62E5D874C874E
:1028C0002901DC018C91811102C0312CC0C0F801BA
:1028D000ED58FF4F7801B1E7EB0EF11C6081F70175
:1028E0008081918187D4D80118968C91882321F01A
:1028F000F7018081918185D4DD2039F3662457FC6E
:102900006094762CC9D66B017C014B015C01312CA3
:1029100098012F583F4F3D832C83C80187599F4F03
:102920009B838A83D8011696BF87AE87F801EB5840
:10293000FF4FF98BE88B98012D583F4F3B8B2A8B2B
:10294000C80185599F4F9D8B8C8BD801A459BF4FCF
:10295000BF83AE83F801E259FF4FF987E8879801FA
:1029600026593F4F3B872A872224239454C0AC81A9
:10297000BD818D919C91DC01ED91FC910680F781E8
:10298000E02D09958983EA81FB8110822E853F85A0
:10299000A889B9894C91BE016F5F7F4FC80171DD75
:1029A0002981EA89FB893081D80112969C9112977E
:1029B000F801E90FF11D23130CC081110AC0118623
:1029C000992329F0EA81FB81208216961C92F80156
:1029D00007C021879F5FF80192838481981760F078
:1029E0001282AE81BF811D921C92E885F985118209
:1029F0001082AA85BB852C92EA81FB81808181307F
:102A000051F4C80110DE2C853D852817390719F4CB
:102A1000AC89BD893C908C189D08AE08BF08841411
:102A20009504A604B70498F4311011C035D64B01B3
:102A30005C01AC81BD818D919C91DC01ED91FC919B
:102A40000480F581E02D0995892B29F390CFF801B9
:102A500017821082832D65960FB6F894DEBF0FBEE5
:102A6000CDBFDF91CF911F910F91FF90EF90DF903D
:102A7000CF90BF90AF909F908F907F906F905F901E
:102A80004F903F902F900895EF920F93CF93DF9345
:102A9000EC01862F688349832A83EB821D821C8286
:102AA0001F821E8208871A8619861C861B8691E063
:102AB0009D879E8760E014D760E0898111D760E030
:102AC0008A810ED78B81811109C061E0888127D767
:102AD00061E0898124D761E08A8121D7888155D737
:102AE0002B8130E08217930721F483E090E09F83ED
:102AF0008E8389814AD72B8130E08217930731F486
:102B00008E819F8121E082279F838E83DF91CF91E9
:102B10000F91EF900895CF92DF92EF92FF920F9373
:102B20001F93CF93DF93EC01B7D56B017C018E85AA
:102B3000882359F089859A8502979A87898789859C
:102B40009A8597FF02C01A86198688811ED72B8125
:102B500030E08217930711F010E001C013E0898183
:102B600014D72B8130E08217930711F481E01827E6
:102B70002E813F81211B20FF12C0812F992787FDC5
:102B800090959F838E838C819D81227030E02150AF
:102B90003109820F931F9D838C8381E001C080E007
:102BA0009E85992361F0882351F089859A85883E16
:102BB0009B4028F489859A8549969A8789878A81D6
:102BC000882309F46EC04091060750910707609171
:102BD00008077091090797018601041B150B260B46
:102BE000370B0A3011052105310508F45AC0C0928F
:102BF0000607D0920707E0920807F0920907C5D6AA
:102C00002B8130E08217930781F480910A0790911D
:102C10000B07019690930B0780930A07893791055C
:102C200020F083E090E09C878B878A81AED62B8151
:102C300031E0232730E08217930731F580910A07AE
:102C400090910B07892BE1F08B859C85039719F4F4
:102C500084E090E008C080910C07823048F08C330B
:102C600078F486E090E09C878B8710920C0708C070
:102C70008D85882311F08CE301C081E080930C07DF
:102C800010920B0710920A0780910C07882349F0D5
:102C9000825080930C07811104C085E090E09C87EE
:102CA0008B87DF91CF911F910F91FF90EF90DF9075
:102CB000CF900895FC01F89424813581808582307D
:102CC00021F4C9018170992705C0843031F4C9010C
:102CD000837099279583848302C015821482789427
:102CE0008085843029F4359527953595279504C03E
:102CF000823011F4359527958685882329F08185C2
:102D00009285892F992702C080E090E037FF04C0A8
:102D10009C012095309508C0232B21F09C012F5F4A
:102D20003F4F02C020E030E0C9010895FC01238537
:102D3000348583859485039711F014861386C90121
:102D4000089525E134E0FC01318320830895FC01DE
:102D500084859585FC01E05CFF4F20813181FC0179
:102D6000EE5BFF4F80819181281B390B2F73332736
:102D7000C9010895FC0184859585FC01E05CFF4F45
:102D800040815181FC01EE5BFF4F20813181421770
:102D9000530741F00190F081E02DE80FF91F2081E9
:102DA00030E002C02FEF3FEFC9010895FC01848598
:102DB0009585FC01E05CFF4F40815181FC01EE5B99
:102DC000FF4F208131814217530781F0A081B181EB
:102DD000A80FB91F8C91208131812F5F3F4F2F7336
:102DE000332731832083282F30E002C02FEF3FEFBD
:102DF000C9010895FC0186859785FC01E05CFF4FC1
:102E0000DC01AE5BBF4F408151812D913C91119708
:102E100042175307C1F708951F93CF93DF93FC0127
:102E2000162F26853785E901C05CDF4F888199819F
:102E3000019660E470E0D1D5D901AE5BBF4F4D91F2
:102E40005C91119784179507D1F3A881B981A20FDE
:102E5000B31F1C93A685B785A05CBF4F11969C93AA
:102E60008E93A689B7892C9181E090E0058C02C0F1
:102E7000880F991F0A94E2F7282B2C9381E090E0A9
:102E8000DF91CF911F91089525E134E0FC0131835A
:102E90002083B7C308951F920F920FB60F9211248B
:102EA0002F933F934F938F939F93EF93FF93409173
:102EB000C6008091B0079091B10701968F73992752
:102EC0002091B2073091B3078217930759F0E09130
:102ED000B007F091B107E059F84F40839093B107E4
:102EE0008093B007FF91EF919F918F914F913F9108
:102EF0002F910F900FBE0F901F9018958DE097E0C7
:102F000026DF892B09F0C6CF08951F920F920FB6C6
:102F10000F9211242F933F935F936F937F938F931F
:102F20009F93AF93BF93EF93FF9320916C073091E2
:102F30006D0780916E0790916F072817390731F45C
:102F40008091C1008F7D8093C10015C0E0916E0714
:102F5000F0916F07E45DF84F208180916E079091AA
:102F60006F07019660E470E038D590936F07809307
:102F70006E072093C600FF91EF91BF91AF919F9193
:102F80008F917F916F915F913F912F910F900FBE25
:102F90000F901F901895CF92DF92EF92FF92CF93F0
:102FA000DF93EC016A017B01411581EE5807610551
:102FB0007105F1F0EC89FD8981E090E00E8C02C092
:102FC000880F991F0A94E2F7808360E079E08DE32F
:102FD00090E0A701960114D521503109410951090A
:102FE0005695479537952795211580E1380790F03C
:102FF000EC89FD89108260E874E88EE190E0A70119
:103000009601FED421503109410951095695479541
:1030100037952795E889F9893083EA89FB892083E8
:10302000EE89FF89408181E090E09C010A8C02C01A
:10303000220F331F0A94E2F7422B4083EE89FF8967
:1030400040819C010B8C02C0220F331F0A94E2F7CF
:10305000422B4083EE89FF8940819C010C8C02C089
:10306000220F331F0A94E2F7422B4083EE89FF8937
:1030700020810D8C02C0880F991F0A94E2F7809579
:1030800082238083DF91CF91FF90EF90DF90CF90EC
:1030900008951092100710920F0788EE93E0A0E0B9
:1030A000B0E08093110790931207A0931307B09399
:1030B000140785E194E090930E0780930D0780E755
:1030C00097E090931A07809319078CE297E090930A
:1030D0001C0780931B0785EC90E090931E0780935C
:1030E0001D0784EC90E09093200780931F0780ECED
:1030F00090E0909322078093210781EC90E09093D9
:1031000024078093230786EC90E090932607809312
:10311000250784E08093270783E08093280787E0D2
:103120008093290785E080932A0781E080932B070D
:10313000089585E194E090930E0780930D0708951C
:10314000DB010D900020E9F7AD0141505109461B0C
:10315000570BDC01ED91FC910280F381E02D099485
:10316000CF92DF92EF92FF920F931F93CF93DF9353
:103170006C01EB017A01E60EF71E00E010E00BC0D7
:103180006991D601ED91FC910190F081E02DC6018D
:103190000995080F191FCE15DF0591F7C801DF91BA
:1031A000CF911F910F91FF90EF90DF90CF900895F6
:1031B000EF92FF920F931F93CF93DF937C01EB016C
:1031C00000E010E0FE0121966491662351F0F701C2
:1031D000A081B181ED91FC91C7010995080F191FDC
:1031E000F1CFC801DF91CF911F910F91FF90EF9028
:1031F0000895A6CFDC01ED91FC910190F081E02DC6
:1032000009940F931F93CF93DF93EC016DE0F2DFEE
:103210008C016AE0CE01EEDF9C01200F311FC90155
:10322000DF91CF911F910F9108950F931F93CF932B
:10323000DF93EC01BDDF8C01CE01E3DF9C01200FA9
:10324000311FC901DF91CF911F910F9108950F9305
:103250001F93CF93DF93EC0173DF8C01CE01D1DF9D
:103260009801280F391FC901DF91CF911F910F914C
:1032700008954F925F926F927F929F92AF92BF920A
:10328000CF92DF92EF92FF920F931F93CF93DF9332
:10329000CDB7DEB7A1970FB6F894DEBF0FBECDBF96
:1032A0005C016A017B01922E19A281E0821710F065
:1032B0008AE0982E8E010F5D1F4F492C512C612CF6
:1032C000712CC701B601A30192019AD38C2D929E55
:1032D00080191124015011098A3014F4805D01C055
:1032E000895CF801808369017A01C114D104E10489
:1032F000F10439F7B801C50123DFA1960FB6F894A0
:10330000DEBF0FBECDBFDF91CF911F910F91FF9018
:10331000EF90DF90CF90BF90AF909F907F906F9095
:103320005F904F900895CF92DF92EF92FF920F93AC
:103330001F93CF93DF93EC016A017B0121153105C7
:1033400079F4E881F9810190F081E02D642FDF911B
:10335000CF911F910F91FF90EF90DF90CF90099444
:103360002A30310519F477FD0DC02AE0B701A60116
:10337000CE01DF91CF911F910F91FF90EF90DF90E1
:10338000CF9077CF6DE236DF8C0144275527BA0105
:103390004C195D096E097F092AE0CE016ADF080F2A
:1033A000191FC801DF91CF911F910F91FF90EF90EE
:1033B000DF90CF9008959A01AB01662757FD609585
:1033C000762FB1CF0F931F93CF93DF93EC019A0128
:1033D000AB01662757FD6095762FA5DF8C01CE01E6
:1033E00010DF9801280F391FC901DF91CF911F917C
:1033F0000F9108950F931F93CF93DF93EC014CD15E
:10340000688779878A879B87E881F9810680F781B9
:10341000E02DCE0109959C0197FF14C03DD1088590
:1034200019852A853B85601B710B820B930B0C81E0
:103430001D812E813F81601771078207930720F35A
:103440002FEF3FEFC901DF91CF911F910F910895A9
:10345000FC01448355836683778308956F927F923E
:103460008F929F92AF92BF92CF92DF92EF92FF9294
:103470000F931F93CF93DF935C016B014A013901D6
:10348000FB018081882399F1C0E0D0E0E12CF12C90
:1034900027C0F601EE0DFF1D2081332727FD309553
:1034A0008217930739F4FFEFEF1AFF0AE814F904C3
:1034B00018F01DC0E12CF12C0115110579F0F30174
:1034C000EC0FFD1F2081332727FD309582179307CE
:1034D00029F42196C017D10718F007C0C0E0D0E04A
:1034E000C50188DF18161906A4F280E001C081E04A
:1034F000DF91CF911F910F91FF90EF90DF90CF90D0
:10350000BF90AF909F908F907F906F9008950F9392
:103510001F939A01DA010D900020E9F78D01015007
:103520001109041B150BFB0101900020E9F7AF0105
:1035300041505109461B570B91DF1F910F91089580
:1035400040E050E0E4CFCF92DF92EF92FF920F93F2
:103550001F93CF93DF937C018B016A01C0E0D0E021
:1035600008C0C70147DF97FD07C0F80181938F01AD
:103570002196CC15DD05A9F7CE01DF91CF911F91E2
:103580000F91FF90EF90DF90CF900895AF92BF9290
:10359000CF92DF92EF92FF920F931F93CF93DF931F
:1035A0006C018A017901C0E0D0E02115310591F06C
:1035B000A62EBB24A7FCB094C6011CDF97FD0AC051
:1035C0008A159B0539F0F80181938F012196CE155C
:1035D000DF0591F7CE01DF91CF911F910F91FF9001
:1035E000EF90DF90CF90BF90AF900895B5D00E943C
:1035F0006202CEE7D7E10E9484032097E1F37EDCEC
:10360000FACF0BC31F920F920FB60F9211242F9374
:103610003F938F939F93AF93BF938091B407909103
:10362000B507A091B607B091B7073091BC07232F1B
:103630002D5F2D3720F40196A11DB11D05C0232F4C
:103640002A570296A11DB11D2093BC078093B40791
:103650009093B507A093B607B093B7078091B807CA
:103660009091B907A091BA07B091BB070196A11D2F
:10367000B11D8093B8079093B907A093BA07B09390
:10368000BB07BF91AF919F918F913F912F910F9069
:103690000FBE0F901F9018950F931F938FB7F8943C
:1036A0000091B4071091B5072091B6073091B70784
:1036B0008FBFB801C9011F910F9108950F931F93F8
:1036C0009FB7F8940091B8071091B9072091BA07F5
:1036D0003091BB0786B5A89B06C08F3F21F00F5FD6
:1036E0001F4F2F4F3F4F9FBF322F212F102F0027EB
:1036F000080F111D211D311D42E0000F111F221F57
:10370000331F4A95D1F7B801C9011F910F91089550
:10371000CF92DF92EF92FF92CF93DF936B017C0108
:10372000CDDFEB010DC0CADF6C1B7D0B683E734023
:1037300038F081E0C81AD108E108F108C851DC4F1F
:10374000C114D104E104F10471F7DF91CF91FF902E
:10375000EF90DF90CF900895789484B5826084BD17
:1037600084B5816084BD85B5826085BD85B5816085
:1037700085BDEEE6F0E0808181608083E1E8F0E0E5
:103780001082808182608083808181608083E0E814
:10379000F0E0808181608083E1EBF0E080818460F3
:1037A0008083E0EBF0E0808181608083EAE7F0E0F5
:1037B0008081846080838081826080838081816059
:1037C00080838081806880831092C10008951F9358
:1037D000CF93DF93182FEB0161E082D0209711F493
:1037E00060E004C0CF3FD10531F461E0812FDF916B
:1037F000CF911F9194C0E12FF0E0EC51FD4FE49187
:10380000E330B9F028F4E13051F0E230B1F50CC00A
:10381000E63019F1E73049F1E43079F514C084B5A8
:10382000806884BDC7BD2EC084B5806284BDC8BD1C
:1038300029C080918000806880938000D0938900A7
:10384000C09388001FC080918000806280938000B8
:10385000D0938B00C0938A0015C08091B00080681F
:103860008093B000C093B3000DC08091B00080621F
:103870008093B000C093B40005C0C038D1050CF0EF
:10388000B4CFAECFDF91CF911F910895833069F00F
:1038900028F48130A1F0823011F514C08630B1F0E7
:1038A0008730C1F08430D9F404C0809180008F77D4
:1038B00003C0809180008F7D80938000089584B53F
:1038C0008F7702C084B58F7D84BD08958091B0004C
:1038D0008F7703C08091B0008F7D8093B0000895F2
:1038E00090E0FC01E850FD4F2491FC01E45FFC4FA7
:1038F000E491EE2399F0F0E0EE0FFF1FEC5CFC4F3B
:1039000085919491DC019FB7F8948C91611103C06B
:103910002095822301C0822B8C939FBF08950F9323
:103920001F93CF93DF931F92CDB7DEB7282F30E0E0
:10393000F901EC51FD4F8491F901E850FD4F1491CC
:10394000F901E45FFC4F04910023C9F0882319F0CA
:1039500069839CDF6981E02FF0E0EE0FFF1FE65DD9
:10396000FC4F85919491DC019FB7F8948C91611183
:1039700003C01095812301C0812B8C939FBF0F90B2
:10398000DF91CF911F910F910895CF93DF93282F4F
:1039900030E0F901EC51FD4F8491F901E850FD4F01
:1039A000D491F901E45FFC4FC491CC2381F08111E3
:1039B0006DDFEC2FF0E0EE0FFF1FE05EFC4F859116
:1039C0009491DC018C918D2321E030E011F420E012
:1039D00030E0C901DF91CF91089597FB072E16F4CF
:1039E000009406D077FD08D02DD007FC05D03EF41A
:1039F000909581959F4F0895709561957F4F08959B
:103A0000A1E21A2EAA1BBB1BFD010DC0AA1FBB1FE2
:103A1000EE1FFF1FA217B307E407F50720F0A21B54
:103A2000B30BE40BF50B661F771F881F991F1A94C1
:103A300069F760957095809590959B01AC01BD01EB
:103A4000CF010895AA1BBB1B51E107C0AA1FBB1FD2
:103A5000A617B70710F0A61BB70B881F991F5A951A
:103A6000A9F780959095BC01CD0108952F923F92C2
:103A70004F925F926F927F928F929F92AF92BF927E
:103A8000CF92DF92EF92FF920F931F93CF93DF932A
:103A9000CDB7DEB7CA1BDB0B0FB6F894DEBF0FBE87
:103AA000CDBF09942A88398848885F846E847D84D4
:103AB0008C849B84AA84B984C884DF80EE80FD80D6
:103AC0000C811B81AA81B981CE0FD11D0FB6F8944C
:103AD000DEBF0FBECDBFED010895EE0FFF1F0590B5
:103AE000F491E02D0994CF93DF938230910510F487
:103AF00082E090E0E091BF07F091C00740E050E025
:103B000020E030E026C06081718168177907E0F01D
:103B10006817790781F4828193812115310531F08D
:103B2000D90113969C938E9312972BC09093C00744
:103B30008093BF0726C04115510519F0641775071A
:103B400018F4AB01E901DF019F0172816381E72F66
:103B5000F62F3097C1F64115510501F1481B590B5D
:103B60004430510580F412968D919C9113972097C3
:103B700019F09B838A8304C09093C0078093BF078A
:103B8000FD01329646C0FD01E40FF51F819391932C
:103B90004250504011965C934E933BC02091BD071C
:103BA0003091BE072115310541F420910201309179
:103BB00003013093BE072093BD072091040130918B
:103BC00005012115310541F42DB73EB740910001A3
:103BD00050910101241B350BE091BD07F091BE0708
:103BE000E217F307A0F42E1B3F0B2817390778F0D4
:103BF000AC014E5F5F4F2417350748F04E0F5F1F33
:103C00005093BE074093BD078193919302C0E0E0BB
:103C1000F0E0CF01DF91CF910895CF93DF9300972C
:103C200009F491C0FC013297138212826091BF07A0
:103C30007091C0076115710581F420813181280FD1
:103C4000391F8091BD079091BE078217930799F5A0
:103C5000F093BE07E093BD0776C0DB0180E090E003
:103C600002C0CD01D901AE17BF0748F412962D91BD
:103C70003C91139721153105A1F7CD0121C0B383E4
:103C8000A283EF01499159919E01240F351FA2177C
:103C9000B30779F42D913C911197240F351F2E5FB6
:103CA0003F4F3183208312962D913C91139733839C
:103CB0002283009729F4F093C007E093BF0743C025
:103CC000DC011396FC93EE9312974D915D91A40F36
:103CD000B51FEA17FB0769F420813181240F351FD6
:103CE0002E5F3F4FEC0139832883228133813B8350
:103CF0002A83E0E0F0E002C0FB01BC01DB01129688
:103D00008D919C9113970097B9F79B012E5F3F4FC0
:103D10008D919C911197820F931F4091BD075091F7
:103D2000BE074817590779F4309729F41092C00755
:103D30001092BF0702C0138212822250304030938B
:103D4000BE072093BD07DF91CF910895FC0188271E
:103D50009927E89421912032E9F3293010F02E3090
:103D6000C8F32B3239F02D3231F4689403C012D0ED
:103D7000820F911D219120532A30C8F31EF4909593
:103D800081959F4F0895FB01DC0101900D92002069
:103D9000E1F708957AE0979F902D879F802D910DF0
:103DA00011240895AEE0B0E0E7EDFEE16DCE0D899F
:103DB0001E898F89988D26E02C831A83098397FFAB
:103DC00002C080E090E801979E838D839E01255E6E
:103DD0003F4FCE010196698D7A8DA90131D04D8179
:103DE0005E8157FD0AC02F813885421753070CF4B6
:103DF0009A01020F131FF80110822E96E4E060CEA4
:103E0000AEE0B0E0E5E0FFE13FCE0D891E8986E03F
:103E10008C831A8309838FEF9FE79E838D839E0196
:103E2000275E3F4FCE0101966F89788DA90108D09A
:103E3000EF81F885E00FF11F10822E96E4E040CE6E
:103E4000ACE0B0E0E5E2FFE111CE6C011B018A01BC
:103E5000FC0117821682838181FFC4C12E01089460
:103E6000411C511CF6019381F10193FD859193FF53
:103E700081911F01882309F4B1C1853239F493FD82
:103E8000859193FF81911F01853221F490E0B60165
:103E9000F4D1E8CFEE24FF2420E02032B0F48B32BE
:103EA00069F08C3228F4803251F0833271F40BC007
:103EB0008D3239F0803349F421602CC022602460B7
:103EC00029C0286027C0206125C027FD2CC0382FBD
:103ED00030533A3098F426FF08C08E2D880FE82E14
:103EE000EE0CEE0CE80EE30E15C08F2D880FF82EA9
:103EF000FF0CFF0CF80EF30E20620CC08E3221F482
:103F000026FD6CC1206406C08C3611F4206802C006
:103F1000883649F4F10193FD859193FF81911F014A
:103F2000882309F0BACF982F9554933018F0905207
:103F3000933028F40C5F1F4FFFE3F9830DC08336E5
:103F400031F0833771F0833509F05CC021C0F8018E
:103F5000808189830E5F1F4F420171E0A72EB12C33
:103F600015C062E0662E712C600E711EF801808013
:103F7000918026FF03C06E2D70E002C06FEF7FEFCF
:103F8000C4012C876FD15C0183012C852F7716C06B
:103F900052E0652E712C600E711EF80180809180B8
:103FA00026FF03C06E2D70E002C06FEF7FEFC401EB
:103FB0002C874DD15C012C852068830123FD1EC018
:103FC00007C080E290E0B6012C8757D1FA942C8587
:103FD0008F2D90E0A816B906A0F310C0F40127FDBC
:103FE000859127FF81914F0190E0B6012C8745D143
:103FF0002C85F110FA940894A108B108A114B10419
:1040000069F7E9C0843611F0893641F527FF08C009
:10401000F80160817181828193810C5F1F4F09C01B
:10402000F80160817181882777FD8095982F0E5F58
:104030001F4F4FE6B42EB22297FF09C0909580958E
:10404000709561957F4F8F4F9F4FF0E8BF2AA20177
:104050002AE030E03ED1782E741844C0853731F420
:104060003FEEB32EB2222AE030E025C099EFB92E00
:10407000B2228F36C1F0803720F4883509F0AEC007
:104080000DC0803721F0883709F0A8C002C020E1B8
:10409000B22AB4FE0BC084E0B82A08C0B4FE09C03E
:1040A000E6E0BE2A06C028E030E005C020E130E0AE
:1040B00002C020E132E0B7FE08C0F80160817181E2
:1040C000828193810C5F1F4F07C0F801608171816D
:1040D00080E090E00E5F1F4FA201FBD0782E741895
:1040E000FFE7BF22B6FE0BC02EEFB2227E1438F4DB
:1040F000B4FE07C0B2FC05C08FEEB82202C0A72CE8
:1041000001C0AE2C8B2D90E0B4FE0DC0FE01E70D7A
:10411000F11D2081203319F4E9EEBE2209C0A394D9
:10412000B2FE06C004C086789070009709F0A39490
:104130008B2C9924B3FC13C0B0FE0EC0AF1428F42E
:10414000E72CEF0CEA18AF2C07C0E72C05C080E283
:1041500090E0B60192D0A394AF14C8F304C0AF149A
:1041600010F4FA1801C0FF2484FE0EC080E390E032
:10417000B60183D082FE1DC081FE03C088E590E0B9
:1041800010C088E790E00DC0C40186789070009759
:1041900081F081FC02C080E201C08BE2B7FC8DE2BD
:1041A00090E0B6016AD005C080E390E0B60165D02A
:1041B000EA947E14C8F37A94F201E70DF11D808130
:1041C00090E0B6015AD07720B1F705C080E290E0C8
:1041D000B60153D0FA94FF20C9F744CEF6012681E8
:1041E000378102C02FEF3FEFC9012C96E2E15ACC94
:1041F000DC01CB01FC01F999FECF06C0F2BDE1BDA7
:10420000F89A319600B40D9241505040B8F7089595
:10421000A8E1B0E042E050E0EDCFDC01CB0102C00C
:104220002D9105D041505040D8F70895262FF99987
:10423000FECF1FBA92BD81BD20BD0FB6F894FA9A89
:10424000F99A0FBE01960895F1DF272FF0CFFC01F8
:104250000590615070400110D8F7809590958E0FB1
:104260009F1F0895FC016150704001900110D8F724
:10427000809590958E0F9F1F08950F931F93CF9356
:10428000DF938C01EB018B8181FF1BC082FF0DC08E
:104290002E813F818C819D812817390764F4E88144
:1042A000F9810193F983E88306C0E885F985802FB9
:1042B0000995009731F48E819F8101969F838E83AB
:1042C00002C00FEF1FEFC801DF91CF911F910F9137
:1042D0000895FA01AA27283051F1203181F1E8949C
:1042E0006F936E7F6E5F7F4F8F4F9F4FAF4FB1E0E9
:1042F0003ED0B4E03CD0670F781F891F9A1FA11DE4
:10430000680F791F8A1F911DA11D6A0F711D811DE4
:10431000911DA11D20D009F468943F912AE0269FA9
:1043200011243019305D3193DEF6CF010895462F08
:104330004770405D4193B3E00FD0C9F7F6CF462FE9
:104340004F70405D4A3318F0495D31FD4052419352
:1043500002D0A9F7EACFB4E0A6959795879577950F
:104360006795BA95C9F700976105710508959B0196
:10437000AC010A2E06945795479537952795BA951F
:10438000C9F7620F731F841F951FA01D089513E0C6
:10439000C6E4D3E003C0FE01A2DB2296CA34D107F3
:0643A000D1F7F894FFCFF5
:1043A6002000C10700000000140028006400C800B7
:1043B600FE000000320064009600C800FF00FFFF08
:1043C600320032000000DC0564000000F401F40154
:1043D60000000002526F746172794B6E6F62005278
:1043E6006F74617279206B6E6F622064656D6F20E9
:1043F600736869656C6400202000736574207320FF
:104406006920307831300D00736574207320732075
:1044160025640D0047573D007365742075206220A2
:10442600393630300D004D616320416464723D00C1
:10443600676574206D0D007365742077206A2037D8
:104446000D007365742077206320360D0073657444
:1044560020612073204361726574616B65722D253E
:104466006325632563256325632563256325632506
:10447600632563256325630D0073657420612070D1
:104486002030333437333432640D00736574206959
:10449600206420340D007365742069206120313951
:1044A600322E3136382E302E310D00736574206968
:1044B600206E203235352E3235352E3235352E30BA
:1044C6000D0073657420692067203139322E31362C
:1044D600382E302E310D002A4F50454E2A002A43E1
:1044E6004C4F532A007365742069206820302E30A3
:1044F6002E302E300D0073657420692066203078CA
:1045060034300D007365742069206420310D00730A
:1045160065742069207020310D0073657420622057
:104526006920370D007365742077206120340D00F3
:104536007365742077206320300D007365742077CF
:10454600206A20310D00736574207720732025734F
:104556000D00736574207720702025730D00736538
:1045660074206F20642025730D002A53455256454A
:10457600522A0A002D2042726F61646361737420AF
:10458600726573706F6E73652066726F6D207365EA
:10459600727665723A202573007365742069206807
:1045A6002025730D007365742062206920300D008C
:1045B600434D440024242400455252004558495492
:1045C60000657869740D00446541757468006C6512
:1045D6006176650D0073686F77206E0D00736F63EB
:1045E6003D4F006A6F696E2025730D00414F4B00E9
:1045F6007365742069206420300D0073657420692A
:1046060020612025730D007365742069206E2025B6
:10461600730D00736574206920672025730D007281
:1046260065626F6F740D0072696E670073617665FF
:104636000D0044656661756C747300666163746F22
:10464600727920520D006F70656E0D00636C6F738A
:10465600650D006F70656E2025732025640D00734F
:104666006574207720612025640D007365742077BA
:10467600206B2025730D004173736F636961746548
:1046860064006A6F696E0D00566572007665720D7C
:104696000000000000190C240CE90BF50B010C0DB1
:1046A6000C00000000980FB018E90E9C0EBF0EDA41
:1046B6000E000000000C17B018A716D616BA16FA88
:0646C60016A116441700C6
:00000001FF
