:1000000066C000008CC000008AC0000088C00000EC
:1000100086C0000084C0000082C0000080C00000D4
:100020007EC000007CC000007AC0000078C00000E4
:1000300076C0000074C0000072C0000070C00000F4
:100040000C94431C6CC000000C9431180C946B1879
:1000500066C0000064C0000062C0000060C0000014
:100060005EC000005CC0000000000007000201004C
:100070000003040600000000000000000102040864
:100080001020408001020408102001020408102002
:10009000040404040404040402020202020203032E
:1000A00003030303000000002300260029000000D2
:1000B0000000250028002B0000000000240027007D
:1000C0002A004E08BD096D122F195E087F191124F0
:1000D0001FBECFEFD8E0DEBFCDBF14E0A0E0B1E09F
:1000E000EEE3F7E402C005900D92A232B107D9F712
:1000F00017E0A2E2B4E001C01D92A136B107E1F71A
:1001000010E0CAECD0E004C02297FE010E94221F3A
:10011000C23CD107C9F70E94371C0C94932370CFBF
:10012000CF92DF92EF92FF920F931F936B017C01AE
:1001300020E030E040E05FE44ED387FD0CC020E0DB
:1001400030E040E05FE4C701B60197D1F7D38B01FF
:100150009C01305805C0C701B601F0D38B019C014A
:10016000B801C9011F910F91FF90EF90DF90CF90E0
:100170000895A4E0B0E0EFEBF0E00C94EB1E7C01FE
:100180006A01FC018081823008F44AC1FB01908140
:10019000923008F442C1843079F4943009F040C1BF
:1001A000F7019181FB018181981709F439C1ABE115
:1001B000EA2EA1E0FA2E34C1943009F42EC1923017
:1001C00091F4823009F02CC188E0F701DA01019046
:1001D0000D928A95E1F7FB018181F70191818923D5
:1001E000FA0181831CC1823009F417C1F7018281B1
:1001F0009381FB01A281B381F701048115812681DE
:100200003781FB0184809580A680B780FC01EA1BC2
:10021000FB0BAF01F7FF04C0442755274E1B5F0BB4
:10022000403251050CF074C01E161F06B4F52401AF
:100230003501042E04C076946794579447940A9429
:10024000D2F749825A826B827C82412C512C320136
:10025000439404C0440C551C661C771C4A95D2F785
:1002600041E0441A510861087108482059206A2069
:100270007B20812C912C54018394452846284728C3
:1002800019F4812C912C540149805A806B807C8018
:1002900084289528A628B72846C0EF2B09F443C028
:1002A000840F951F28013901042E04C076946794A9
:1002B000579447940A94D2F749825A826B827C827F
:1002C000412C512C3201439404C0440C551C661C33
:1002D000771C4A95D2F741E0441A51086108710829
:1002E000402251226222732201E010E020E030E03F
:1002F00045284628472819F400E010E09801498075
:100300005A806B807C8004291529262937290BC047
:10031000A817B90724F4812C912C540104C0CD01F5
:1003200000E010E09801F7014181FB015181451780
:1003300009F446C0442349F024013501401A510A0A
:10034000620A730A9301820104C0081919092A0973
:100350003B0937FD05C0F6011182938382830CC0EF
:1003600041E0F60141839383828330952095109577
:1003700001951F4F2F4F3F4F0483158326833783EB
:100380000EC0880F991FAA1FBB1FF6018483958397
:10039000A683B78382819381019793838283F60139
:1003A00084819581A681B781AC01BD01415051097D
:1003B000610971094F3F5F4F6F4F7F4310F30CC0CE
:1003C000F601418393838283080D191D2A1D3B1D6D
:1003D000048315832683378383E0F6018083448179
:1003E00055816681778177FF1AC0DB01CA01817070
:1003F0009927AA27BB277695679557954795842B0C
:10040000952BA62BB72B84839583A683B7838281F4
:10041000938101969383828302C07B0101C07601A0
:10042000C7012496E0E10C94071FA0E2B0E0EBE1E5
:10043000F2E00C94F91E6D8F7E8F8F8F98A3298F19
:100440003A8F4B8F5C8FBE016F5E7F4FCE014D9612
:1004500002D4BE01675F7F4FCE014996FCD3AE0147
:100460004F5F5F4FBE01675F7F4FCE01419681DED8
:1004700028D3A096E2E00C94151FA0E2B0E0E3E4DC
:10048000F2E00C94F91E6D8F7E8F8F8F98A3298FC9
:100490003A8F4B8F5C8FBE016F5E7F4FCE014D96C2
:1004A000DAD3BE01675F7F4FCE014996D4D38A85E8
:1004B00091E089278A87AE014F5F5F4FBE01675F7A
:1004C0007F4FCE01419655DEFCD2A096E2E00C941F
:1004D000151FA0E2B0E0EFE6F2E00C94EB1E6D8F8A
:1004E0007E8F8F8F98A3298F3A8F4B8F5C8FBE01A1
:1004F0006F5E7F4FCE014D96AED3BE01675F7F4FDB
:10050000CE014996A8D39989923008F412C0898502
:10051000823008F41AC0943021F4823009F4B4C057
:1005200008C0843021F4923009F4AEC00EC092307D
:1005300051F481E02A899A85291301C080E08A8BD1
:10054000CE014196A3C0823051F481E02A899A8578
:10055000291301C080E08A87CE01099697C08D8853
:100560009E88AF88B88C0D851E852F853889E0E27E
:10057000F0E080E090E0DC01C12CD12C760140E07D
:1005800050E0BA0180FE18C0400F511F621F731F58
:100590008C0D9D1DAE1DBF1D412C512C320143946D
:1005A000401751076207730718F0412C512C320194
:1005B000840D951DA61DB71DCC0CDD1CEE1CFF1C6B
:1005C00037FF02C06894C0F8000F111F221F331FAD
:1005D000B694A794979487943197A1F62B893C8978
:1005E000EB85FC852E0F3F1F2E5F3F4F3C832B83F7
:1005F00021E0EA893A85E31301C020E02A83EB81F8
:10060000FC810CC080FF05C076956795579547958E
:100610007068B695A795979587953196B7FDF2CFF7
:100620009F010CC0880F991FAA1FBB1F77FD816017
:10063000440F551F661F771F215031090097A105F0
:10064000E0E4BE0778F32B833C838C019D010F7798
:10065000112722273327003411052105310559F4CC
:1006600087FD09C0452B462B472B29F0805C9F4F07
:10067000AF4FBF4F80788D839E83AF83B88783E071
:100680008983CE01019602C08BE191E01AD2A09637
:10069000E0E10C94071FA8E1B0E0E1E5F3E00C9481
:1006A000F31E6D8B7E8B8F8B988F298B3A8B4B8BA8
:1006B0005C8BBE01675F7F4FCE014596CCD2BE01F9
:1006C0006F5F7F4FCE014196C6D29985923008F474
:1006D00075C08981823008F474C02A853A81232745
:1006E0002A87943011F0923019F4981367C06CC0C7
:1006F000843039F41D861E861F86188A1C861B8648
:1007000004C0823029F484E08987CE0109965EC056
:100710008B859C852B813C81821B930B9C878B87CF
:100720004D855E856F857889CD80DE80EF80F88489
:100730004C155D056E057F0538F4440F551F661F87
:10074000771F01979C878B87EFE1F0E000E010E0D6
:1007500020E030E480E090E0DC014C155D056E05A2
:100760007F0540F0802B912BA22BB32B4C195D09F8
:100770006E097F093695279517950795440F551FE4
:10078000661F771F319749F78C019D010F7711275D
:1007900022273327003411052105310559F487FD3F
:1007A00009C0452B462B472B29F0805C9F4FAF4F4C
:1007B000BF4F80788D879E87AF87B88BCE01099613
:1007C00005C0CE01019602C08BE191E07AD1689616
:1007D000E8E00C940F1FA8E1B0E0E1EFF3E00C9427
:1007E000F91E6D8B7E8B8F8B988F298B3A8B4B8B61
:1007F0005C8BBE01675F7F4FCE0145962CD2BE0158
:100800006F5F7F4FCE01419626D28985823050F0AE
:100810008981823038F0BE016F5F7F4FCE0109962B
:1008200089D201C08FEF6896E2E00C94151FA8E111
:10083000B0E0EDE1F4E00C94F91E6D8B7E8B8F8BB4
:10084000988F298B3A8B4B8B5C8BBE01675F7F4FF8
:10085000CE01459600D2BE016F5F7F4FCE0141961B
:10086000FAD18985823050F08981823038F0BE011A
:100870006F5F7F4FCE0109965DD201C081E068961F
:10088000E2E00C94151FA8E0B0E0E9E4F4E00C9479
:10089000F71E23E029838B019C01002737FD039578
:1008A000112722273327402F0A83611571058105FF
:1008B000910519F482E0898335C02EE130E03C8354
:1008C0002B83442371F061157105810520E892079F
:1008D00069F1002711279801061B170B280B390B0C
:1008E00002C08B019C01C901B8010E94261F01971B
:1008F000181619062CF00D831E832F83388712C01B
:10090000082E04C0000F111F221F331F0A94D2F7B4
:100910000D831E832F8338872EE130E0281B390B8F
:100920003C832B83CE010196CCD004C060E070E004
:1009300080E09FEC2896E4E00C94131FACE0B0E05C
:10094000E4EAF4E00C94F71E69877A878B879C872A
:10095000BE016F5F7F4FCE0109967DD189818230C4
:1009600091F1823080F1843041F48A81882331F121
:1009700000E010E020E030E829C02B813C8137FD09
:1009800022C02F3131058CF78EE190E0821B930B52
:100990000D811E812F81388504C0369527951795C6
:1009A00007958A95D2F78A81882381F03095209522
:1009B000109501951F4F2F4F3F4F08C00FEF1FEFAE
:1009C0002FEF3FE703C000E010E09801B801C90134
:1009D0002C96E4E00C94131FA8E0B0E0E2EFF4E002
:1009E0000C94F31E8B019C011A826115710581051F
:1009F000910519F482E089835DC083E089834EE12B
:100A000050E05C834B83C901B8010E94261F019707
:100A100097FF39C0EE27FF27E81BF90B41E050E0B4
:100A200060E070E00E2E04C0440F551F661F771F54
:100A30000A94D2F7415051096109710940235123A9
:100A400062237323C12CD12C7601C394452B462BF2
:100A5000472B19F4C12CD12C760104C0369527956B
:100A600017950795EA95D2F70C291D292E293F29BC
:100A70000D831E832F8338872EE130E0281B390B2E
:100A80003C832B8317C0009729F40D831E832F838B
:100A9000388710C0082E04C0000F111F221F331FFB
:100AA0000A94D2F70D831E832F833887481B590B76
:100AB0005C834B83CE01019604D02896E8E00C9429
:100AC0000F1F0F931F93CF93DF93DC0114964D916B
:100AD0005D916D917C9117971196EC9111978C9186
:100AE000823020F460618FEF90E0A6C0843009F47A
:100AF0009EC0823009F495C041155105610571050C
:100B000009F492C012962D913C91139722388FEFE1
:100B100038070CF058C0C2E8DFEFC21BD30BCA3154
:100B2000D1056CF58A019B010C2E04C036952795E2
:100B3000179507950A94D2F781E090E0A0E0B0E025
:100B40000C2E04C0880F991FAA1FBB1F0A94D2F74E
:100B50000197A109B10984239523A623B72341E076
:100B600050E060E070E0892B8A2B8B2B19F440E079
:100B700050E0BA01402B512B622B732B03C040E095
:100B800050E0BA01DB01CA018F779927AA27BB275A
:100B900080349105A105B10539F447FF09C0405CD7
:100BA0005F4F6F4F7F4F04C0415C5F4F6F4F7F4F70
:100BB00081E090E041155105610520E4720748F598
:100BC00080E090E026C0203831058CF5DB01CA01B9
:100BD0008F779927AA27BB2780349105A105B105F6
:100BE00039F447FF09C0405C5F4F6F4F7F4F04C02F
:100BF000415C5F4F6F4F7F4F77FD04C0C901815843
:100C00009F4F07C07695679557954795C9018058BE
:100C10009F4F97E076956795579547959A95D1F7A9
:100C20000BC080E090E005C080E090E005C08FEF51
:100C300090E040E050E0BA01982F9695E0FB97F9DC
:100C4000362F80FB37F9642F752F832FDF91CF91DB
:100C50001F910F910895CF92DF92EF92DC01FB017B
:100C6000CC901196DC90119712968C9112973FE7D9
:100C7000E32EE8226E2DA60170E0982F991F992788
:100C8000991F13962C91822F880F892B90E027FBB8
:100C9000222720F92183009729F541155105610587
:100CA000710511F482E027C082E89FEF938382836D
:100CB00027E0440F551F661F771F2A95D1F783E061
:100CC000808309C0440F551F661F771F828193815F
:100CD00001979383828341155105610580E478076C
:100CE00088F320C08F3F910579F4411551056105C6
:100CF000710519F484E0808319C0E4FE03C081E02B
:100D0000808310C010820EC08F5791099383828315
:100D100083E0808387E0440F551F661F771F8A9505
:100D2000D1F770644483558366837783EF90DF90B7
:100D3000CF900895CF93FC01DB019081923008F4AD
:100D400052C08C91823008F44EC0943071F48430DB
:100D500039F411962C9130E08181281B310948C06B
:100D60008181882309F43FC03BC0843029F4119667
:100D70008C91811138C034C0923019F48230B9F7A7
:100D800035C0823069F3C18111968C911197C813D7
:100D90001DC02281338112968D919C9113978217E9
:100DA00093070CF413C0281739070CF417C04481BB
:100DB00055816681778114968D919D910D90BC919E
:100DC000A02D84179507A607B70718F4C11108C00E
:100DD0000AC0481759076A077B0740F4C11103C0CE
:100DE0002FEF3FEF05C021E030E002C020E030E00F
:100DF000C901CF91089547E757E06DE08091550410
:100E0000909156040C94691483E291E09093480405
:100E10008093470486E391E090934A0480934904C9
:100E20008DE090E090934C0480934B048CE090E034
:100E300090934E0480934D048BEF96E09093500472
:100E400080934F048EE497E0909352048093510472
:100E500087E494E0BBC10F931F93CF93DF938B0183
:100E6000FC0120812223A9F0EC58FF4FEC01CF5860
:100E7000DF4F6081888199810E94BF194AE050E06C
:100E8000B80188819981DF91CF911F910F910C94C6
:100E90008E1ADF91CF911F910F910895CF93DF9319
:100EA000C5E5D4E062E070E088819981D4DF61E03B
:100EB00070E088819981CFDF66EF7FEF888199812B
:100EC000CADF65E570E088819981C5DF62E070E086
:100ED00088819981C0DF60E070E088819981BBDF03
:100EE0006FEF73E088819981DF91CF91B4CFCF927A
:100EF000DF92EF92FF92CF93DF936EE070E08091EC
:100F00005504909156040E94751460E070E0809141
:100F10005504909156049FDFC0902F04D090300468
:100F2000E0903104F0903204E0915504F0915604C1
:100F30008081882399F0DF01AC58BF4FEF01CF5873
:100F4000DF4F6C91888199810E94BF1922E030E0C7
:100F5000B701A601888199810E943A1B61E070E087
:100F6000809155049091560476DF86E294E00E94C9
:100F7000851E6B017C01E0915504F091560480813F
:100F8000882399F0DF01AC58BF4FEF01CF58DF4FF6
:100F90006C91888199810E94BF1922E030E0B701ED
:100FA000A601888199810E943A1B28E833E141E03B
:100FB00050E060E08091550490915604DF91CF910C
:100FC000FF90EF90DF90CF900C9485160F931F93B6
:100FD00018D259D1882309F45EC00E948D1C00915B
:100FE0002204109123042091240430912504061733
:100FF00017072807390708F04EC08DE00E94D21D60
:10100000682F8DE00E949C1D83E394E00E942613CC
:1010100060E083E394E00E94061460932F047093D1
:10102000300480933104909332048EE00E94321D8C
:10103000BC01882777FD8095982F25DC20E030E0E3
:1010400048EC52E446DA20E030E040E85AE341DA86
:10105000AB01BC0186E294E00E942D1E61E08DE0B0
:101060000E949C1D69E170E080E090E00E94C91C34
:1010700060E08DE00E949C1D3ADF0E948D1C66504E
:101080007F4F8F4F9F4F6093220470932304809370
:101090002404909325041F910F91089568E089E33B
:1010A00094E00E948B1169E374E083E394E00E9472
:1010B00074126AE086E294E00C941B1E86E294E0CF
:1010C0000C94FA1D80917A06843069F485E080934F
:1010D0007A06E0919605F09197050484F585E02D58
:1010E000309709F00994089580919E0581110FC0F1
:1010F00063E070E08EE995E00E94751428E833E122
:1011000041E050E060E08EE995E00C94851608958A
:101110000F931F93CF93DF938C01EB0120E830E016
:1011200043E155E06AE081E095E00E94071C9C01E4
:10113000009779F0C817D9070CF49E01F901ED5E0C
:10114000FA4F108263E175E0C8010E948F2081E0B0
:1011500001C080E0DF91CF911F910F9108950F930F
:101160001F939093950580939405E0919605F091D7
:10117000970584819581181619062CF560E00E9468
:101180009C1D8091940590919505892BE1F010921A
:101190009905109298050E948D1CE0919405F0919C
:1011A000950500811181222717FD2095322F600FB0
:1011B000711F821F931F60939A0570939B05809304
:1011C0009C0590939D051F910F910895CF93DF93F8
:1011D000EC0140E054E060E070E087EA96E00E94B5
:1011E0003D12D0939705C09396058EE995E09F87B1
:1011F0008E878C819D81181619065CF461E00E942F
:101200007D1DE0919605F091970560E084810E9434
:101210009C1D1092950510929405E0919605F09111
:10122000970586819781181619065CF460E00E9484
:101230007D1DE0919605F091970561E086810E9401
:101240009C1D42E658E062E08EE995E00E94691438
:1012500044E758E063E08EE995E00E946914E0916C
:101260009605F09197050084F185E02D309709F0FF
:10127000099540E051EE60E070E08DEA96E0DF9184
:10128000CF910C94B11881E090917A06953009F0D5
:1012900080E00895CF92DF92EF92FF920F931F9319
:1012A000CF93DF936A01E9017B01B9016E0D7F1DC8
:1012B0000E946B12811110C0C0E0D0E012C0B801D2
:1012C0006E0D7F1D41E050E0C601800F911F0E940E
:1012D000C4220F5F1F4F02C000E010E00C171D0773
:1012E00070F3CE01DF91CF911F910F91FF90EF909E
:1012F000DF90CF9008958F929F92AF92BF92CF923E
:10130000DF92EF92FF920F931F93CF93DF936C01C5
:101310004A018901EB017901E60EF71EB7010E942F
:101320006B12811117C000E010E019C05E018FEF51
:10133000A81AB80AB501C6010E946B12882341F0B1
:1013400041E050E0BE01C4018C0F9D1F0E94D922D4
:10135000E50102C08C1A9D0ACE15DF0539F7C801D8
:10136000DF91CF911F910F91FF90EF90DF90CF9081
:10137000BF90AF909F908F9008950F936DEA76E0A5
:1013800081E095E0E3D40FE22BE34CE261E075E00D
:101390008EE995E00E9465140F910895DF92EF9217
:1013A000FF920F931F93CF93DF938C01EC01099071
:1013B0000020E9F72197C81BD90B81E095E080D484
:1013C0008C179D077CF480E014C081E095E084D404
:1013D000F801EE0DFF1D208130E08217930799F789
:1013E000D39401C0D12CED2CF12CEC16FD066CF33E
:1013F00081E0DF91CF911F910F91FF90EF90DF90EF
:101400000895FF920F931F93CF93DF93E09196057A
:10141000F09197058481958118161906DCF5809165
:10142000940590919505892BA9F10E948D1C00913E
:101430009A0510919B0520919C0530919D050617FA
:1014400017072807390708F40CC424C0109299051F
:10145000109298050E948D1C209198053091990555
:10146000220F331FE0919405F0919505E20FF31FD1
:1014700000811181222717FD2095322F600F711FE7
:10148000821F931F60939A0570939B0580939C0520
:1014900090939D0580917A06873009F466C180F4A7
:1014A000833009F411C330F4813009F413C208F019
:1014B000BCC219C0853009F4A4C308F09FC086C31C
:1014C0008B3009F4ADC130F4893009F479C108F0EA
:1014D0008DC156C18D3009F458C008F49FC18E30BB
:1014E00009F0E8C379C0E0919605F09197058681EF
:1014F000978118161906BCF40E94D21D892B99F405
:1015000086E091E02CDE0E948D1C6854744F8F4F52
:101510009F4F60937B0670937C0680937D0690932B
:101520007E068DE063C360E070E087EA96E0C4D792
:10153000909300058093FF048E3F9A4C09F06EC192
:1015400024E230E04AED54E062E070E087EA96E0A1
:10155000A1DE20E230E049EB54E067E270E087EA88
:1015600096E098DE20E230E048E954E068E470E07C
:1015700087EA96E08FDE20E430E047E554E069E654
:1015800070E087EA96E086DEA3C1E0919605F091CF
:10159000970586819781181619060CF08BC30E9457
:1015A000D21D019739F46AE070E080E090E00E947B
:1015B000C91C1EC00E948D1C00917B0610917C06E8
:1015C00020917D0630917E060617170728073907F8
:1015D00008F070C38EE00AC3C0E0D0E04FEFBE0158
:1015E00087EA96E06CD72196C11584E0D807B1F759
:1015F00080E090E0B4DD10927A065CC38CE091E06C
:10160000AEDD81E095E050D528EE33E040E050E0DB
:1016100061E871E081E095E001D528EE33E040E932
:1016200051E06AE971E081E095E0F8D428EE33E01A
:1016300041E150E06FE776E081E095E086D41092DA
:10164000900628EE33E047E553E061EA71E081E07F
:1016500095E0E4D428EE33E047E553E06CEA71E02E
:1016600081E095E0DBD480918F061F928F9380916B
:101670008E061F928F9380918C061F928F9380917C
:101680008B061F928F93809189061F928F93809172
:1016900088061F928F93809186061F928F93809168
:1016A00085061F928F93809183061F928F9380915E
:1016B00082061F928F93809180061F928F93809154
:1016C0007F061F928F9387EB91E09F938F9383E127
:1016D00095E09F938F930E94CC2028EE33E047E55E
:1016E00053E063E175E081E095E098D428EE33E0C3
:1016F00047E553E063EE71E081E095E08FD428EE9A
:1017000033E047E553E065EF71E081E095E086D492
:1017100028EE33E047E553E060E072E081E095E0D9
:101720007DD428EE33E047E553E065E172E081E0E7
:1017300095E074D428EE33E047E553E06CE272E0C4
:1017400081E095E06BD481E095E0A7D481E095E05D
:1017500095D487E080937A068DB79EB74C960FB6E6
:10176000F8949EBF0FBE8DBFA5C281E492E016DE45
:10177000882309F49FC282E191E0F1DC88E036C25F
:1017800081E095E00E94C6196FE776E081E095E080
:101790000E94DA19E0919605F091970560817181B8
:1017A00081E095E00E94DA19E0919605F0919705A5
:1017B0006281738181E095E00E94DA1989E016C2A6
:1017C00088E492E0EBDD882309F474C20E948D1C4A
:1017D00060527C468B4F9F4F60937B0670937C06D4
:1017E00080937D0690937E068AE000C281E492E0B9
:1017F000D5DD882311F08BE0F9C10E948D1C00918A
:101800007B0610917C0620917D0630917E0606179E
:1018100017072807390708F04DC225C086E0E6C142
:1018200081E095E00E94C61964E270E08AED94E0E0
:101830006FDC811101C017C060E270E089EB94E0B9
:1018400067DC811101C00FC060E270E088E994E0BC
:101850005FDC811101C007C060E470E087E594E0BF
:1018600057DC811102C08CE0C1C188E492E096DDB2
:101870008823D9F34EEF5AEC60E070E087EA96E0F7
:1018800024D624E230E04AED54E062E070E087EADA
:1018900096E031DD20E230E049EB54E067E270E0B1
:1018A00087EA96E028DD20E230E048E954E068E489
:1018B00070E087EA96E01FDD20E430E047E554E081
:1018C00069E670E087EA96E016DD80E090E047DCAC
:1018D00081E08CC181E095E0E7D328EE33E040E081
:1018E00050E061E871E081E095E098D328EE33E0C4
:1018F00047E553E06FE472E081E095E08FD328EE96
:1019000033E047E553E060E672E081E095E086D39E
:1019100028EE33E047E553E06EE672E081E095E0C3
:101920007DD328EE33E047E553E069E772E081E0DC
:1019300095E074D328EE33E047E553E064E872E0C5
:1019400081E095E06BD328EE33E047E553E06FE8A4
:1019500072E081E095E062D328EE33E047E553E0A2
:101960006AE972E081E095E059D328EE33E047E57B
:1019700053E065EA72E081E095E050D388E994E0B5
:101980009F938F9380EB92E09F938F931F92C0E879
:10199000CF9303E115E01F930F930E949E2028EE42
:1019A00033E047E553E0B80181E095E037D387E5C0
:1019B00094E09F938F938CEB92E09F938F931F9271
:1019C000CF931F930F930E949E2028EE33E047E5AC
:1019D00053E0B80181E095E021D389EB94E09F9337
:1019E0008F9388EC92E09F938F931F92CF931F93D6
:1019F0000F930E949E2028EE33E047E553E0B801A4
:101A000081E095E00BD381E095E047D381E095E05C
:101A100035D382E080937A068DB79EB748960FB68D
:101A2000F8949EBF0FBE8DBF45C184ED92E0B6DC39
:101A3000882309F43FC16FE070E081E996E068DB3C
:101A4000882309F437C1C1E9D6E0DF93CF938EED47
:101A500092E09F938F931F9230E8F32EFF9203E161
:101A600015E01F930F930E949E20DF93CF9383E096
:101A700093E09F938F931F92FF921F930F930E9467
:101A80009E2028EE33E047E553E0B80181E095E081
:101A9000C5D228EE33E047E553E06FE073E081E024
:101AA00095E0BCD281E095E0F8D281E095E02BD2C0
:101AB00083E080937A068DB79EB740960FB6F89470
:101AC0009EBF0FBE8DBFF6C061E070E08EE995E06D
:101AD0000CD780919E05882381F060911206809139
:101AE0000F06909110060E94BF196AED74E0809174
:101AF0000F06909110060E94BE19E0919605F09194
:101B00009705C081D18180919E05882379F06091ED
:101B1000120680910F06909110060E94BF19BE0117
:101B200080910F06909110060E94BE1980919E052B
:101B3000882381F06091120680910F069091100623
:101B40000E94BF1969EB74E080910F069091100616
:101B50000E94BE19E0919605F0919705C281D3814C
:101B600080919E05882379F06091120680910F067E
:101B7000909110060E94BF19BE0180910F069091AE
:101B800010060E94BE19E0919605F0919705028417
:101B9000F385E02D309709F0099528E833E141E01D
:101BA00050E060E08EE995E00E9485160E948D1C51
:101BB000605E714B8F4F9F4F60937B0670937C06E6
:101BC00080937D0690937E0684E010C00E948D1C59
:101BD00000917B0610917C0620917D0630917E0657
:101BE000061717072807390720F483E080937A0641
:101BF00061C08EE995E0DF91CF911F910F91FF9029
:101C000072C70E948D1C0091A1061091A20620911E
:101C1000A3063091A406061717072807390748F7C7
:101C200080919E0581110EC063E070E08EE995E021
:101C30005CD628E833E141E050E060E08EE995E0D1
:101C40000E9485160E948D1C60527C468B4F9F4FD0
:101C50006093A1067093A2068093A3069093A406B6
:101C6000C8CFE0919605F091970584810E94D21D1E
:101C700061E0019709F460E0E0919605F091970525
:101C800084810E949C1D80919805909199050196F0
:101C90009093990580939805880F991FE09194057A
:101CA000F0919505E80FF91F80819181892B09F446
:101CB000CDCBD0CBDF91CF911F910F91FF900895A5
:101CC000DC011C968D919C911D97DC01ED91FC919E
:101CD0000480F581E02D0994DC011C968D919C9186
:101CE0001D97DC01ED91FC910680F781E02D0994B0
:101CF000DC011C968D919C911D97DC01ED91FC916E
:101D00000084F185E02D0994DC011C968D919C9155
:101D10001D97DC01ED91FC910284F385E02D09947F
:101D2000FC01A485B585ED91FC9111970190F0819E
:101D3000E02DCD010994FC01A485B585ED91FC91C0
:101D400011970280F381E02DCD010994CF93DF93A9
:101D5000EC01CB011B821A8248EE53E060E070E098
:101D60004C835D836E837F832FEF33E03983288339
:101D7000D093A606C093A5069D878C87CE010E94AE
:101D8000691B1E861F86DF91CF9108952F923F9287
:101D90004F925F926F927F928F929F92AF92BF927B
:101DA000CF92DF92EF92FF920F931F93CF93DF9327
:101DB0001F92CDB7DEB78C015B014A012901611585
:101DC0007105A1F130E0212C312C662457FC609480
:101DD000762C28C0D801ED91FC91D501A20DB31D40
:101DE0000190F081E02D6C91C8013983099539810A
:101DF000019729F4BFEF2B1A3B0A30E013C03323BD
:101E000061F00E948D1C6C197D098E099F09461690
:101E100057066806790660F004C00E948D1C6B01AD
:101E20007C0131E028143904ACF202C0212C312CA1
:101E3000C1010F90DF91CF911F910F91FF90EF9013
:101E4000DF90CF90BF90AF909F908F907F906F90DA
:101E50005F904F903F902F900895EF92FF920F93D5
:101E60001F93CF93DF937C01EA018901FB0101906D
:101E70000020E9F7AF0141505109461B570B86DF9F
:101E8000209711F481E013C0A801662757FD6095E3
:101E9000762FC7010E94691B0E948D1CBE01C701DD
:101EA0000E94E11B8111EECF0E948D1C80E0DF912A
:101EB000CF911F910F91FF90EF900895CF93DF93F3
:101EC000EC018E85882319F089898230C0F028EED4
:101ED00033E04AE153E06EE173E0CE01BEDF8823D8
:101EE00019F081E08E870CC028EE33E042E253E027
:101EF00063EA72E0CE01B1DF8111F3CF01C081E06E
:101F0000DF91CF910895CF93DF93EC018E858823E5
:101F1000C1F028EE33E046E253E06BE273E0CE011D
:101F20009CDF882311F01E860CC028EE33E042E2CD
:101F300053E063EA72E0CE0190DF8823A1F380E0F2
:101F400001C081E0DF91CF9108954F925F926F922F
:101F50007F928F929F92AF92BF92CF92DF92EF9239
:101F6000FF920F931F93CF93DF935C014A018B0184
:101F7000C0E0D0E02901662457FC6094762C1AC09A
:101F80000E948D1C6B017C01C40CD51CE61CF71C47
:101F9000D501ED91FC910680F781E02DC5010995F1
:101FA00097FF0CC00E948D1C6C157D058E059F054A
:101FB00078F309C0C815D9051CF305C0F801819351
:101FC0008F012196F7CFCE01DF91CF911F910F9115
:101FD000FF90EF90DF90CF90BF90AF909F908F9049
:101FE0007F906F905F904F9008950F931F93CF93C2
:101FF000DF931F92CDB7DEB78C012AE030E041E0DD
:1020000050E0BE016F5F7F4FC8019FDF0197A9F3CA
:102010000F90DF91CF911F910F9108950F931F9310
:10202000CF93DF9300D000D000D0CDB7DEB78C01C6
:102030002D833E834B835C8369837A83D6DFC8011B
:102040003DDF2D813E814B815C8169817A81C801B0
:1020500004DFF801811105C081898F5F818B80E0E9
:1020600002C0118A81E026960FB6F894DEBF0FBE3B
:10207000CDBFDF91CF911F910F910895CF93DF9343
:10208000EC0128EE33E040E050E069E873E0C6DFA1
:102090001E8681E0DF91CF91089528EE33E041E97B
:1020A00053E066E973E0BACF28EE33E04CE953E041
:1020B00065EA73E0B3CFFF920F931F93CF93DF9343
:1020C000FC011081C181D281F8948981012F009592
:1020D0008023898378948DE7F82EFA9431F182E099
:1020E00090E00E94ED1C88818123B9F3F8948A81E5
:1020F00080238A838981812B8983789484EF91E07E
:102100000E94ED1CF89489818023898380E590E00A
:102110000E94ED1C88818123C1E009F0C0E0789421
:1021200084EA91E00E94ED1C01C0C0E08C2FDF9199
:10213000CF911F910F91FF9008951F93CF93DF933D
:10214000FC011081C181D281912F9095F8948A81F0
:1021500089238A838981812B898360FF0BC08AE070
:1021600090E00E94ED1C8A81812B8A83789487E31A
:1021700090E00AC081E490E00E94ED1C8A81812BEE
:102180008A83789485E090E0DF91CF911F910C9441
:10219000ED1C0F931F93CF93DF93FC011081C1813E
:1021A000D281F8948981812B89838A81012F0095BE
:1021B00080238A8383E090E00E94ED1C8981802344
:1021C000898389E090E00E94ED1CC881789485E3C2
:1021D00090E00E94ED1C1C2381E009F480E0DF9177
:1021E000CF911F910F910895CF92DF92EF92FF92BE
:1021F0000F931F93CF93DF931F92CDB7DEB76C0180
:10220000E62E08E010E0FF24F3949F2D9E2161E06C
:1022100009F460E0C601498390DFFF0C0150110909
:1022200049810115110589F7411115C0F894D601AE
:102230001196ED91FC91129791818C918095892353
:1022400081831196ED91FC91129792818C918095EA
:102250008923828378940F90DF91CF911F910F9102
:10226000FF90EF90DF90CF900895EF92FF920F9341
:102270001F93CF93DF938C01C8E0D0E0F12CEE24C4
:10228000E394C80186DF8111FE28EE0C2197C9F77F
:102290008F2DDF91CF911F910F91FF90EF900895B7
:1022A000CF92DF92EF92FF920F931F93CF93DF9322
:1022B0001F92CDB7DEB77C01162F40E065E579832C
:1022C00093DFC12E7981D72E00E010E0F6016191F5
:1022D0006F0140E0C70188DF0F5F1F4F0830110515
:1022E000A9F70F90DF91CF911F910F91FF90EF9081
:1022F000DF90CF90089540E06CEC76CFFC01138620
:10230000158614861286118610861782168215820B
:1023100014821382089570E0FB01E458FF4FE491AA
:10232000DC01EC93FB01E057FF4FE491F0E0EE0F8E
:10233000FF1FEC55FF4F2591349111962C93119767
:1023400012963C93DBCFBF92CF92DF92EF92FF9237
:102350000F931F93CF93DF93EC01C62EB72E8D857D
:10236000811151C0CE01A7DE811104C01B861D86DC
:102370001C8664C040E060EFCE0136DF01E0F12C46
:10238000E12C11E0CE0105DFD82ECE0102DF91E075
:10239000D91203C08130A1F42EC0D81219C08B8588
:1023A000181738F4FE01EF0DF11D8381802341F4ED
:1023B00002C0181729F060E01930C8F51C8737C033
:1023C000FE01EF0DF11D8381802B838361E009C045
:1023D0006D2DFE01EF0DF11D202F2095938192238D
:1023E0009383CE01AADE1F5F000F11F4F39401E086
:1023F00087E08F1538F6113430F0EB86E11019C004
:1024000081E08D8716C01B861D861C8680E0EC2D22
:10241000FB2D20E030E0DE01A20FB31F13969C914C
:1024200091932F5F3F4F28303105A9F707C0E12E68
:10243000D0CF8B81882339F381E0E9CFDF91CF9131
:102440001F910F91FF90EF90DF90CF90BF90089574
:10245000FC0180E00FC0419198E0282F30E03595D5
:102460002795842780FF02C08CE82827822F469575
:10247000915099F7615078F708952091A90630910D
:10248000AA068091AB069091AC062817390721F473
:102490007093AC066093AB068091AB069091AC064E
:1024A0009093AA068093A9064817590724F05093E1
:1024B0001901409318010895CB010C94D422CB014B
:1024C000642F0E94E22281E00895CB01BA010E94AC
:1024D000F02281E0089581E0089584E690E09093F1
:1024E000A8068093A7060895FC0175836483138270
:1024F00010828FE190E0928381830895CF93DF93E0
:10250000EB0167E0CE01A4DF91E02F81821390E020
:10251000892FDF91CF910895EF92FF920F931F9330
:10252000CF93DF93EC018B01E42E8C819D81E6DE5D
:10253000F12C06C0B801CE01E1DF811108C009C04D
:10254000B8018C819D81FFDE811107C009C081E047
:1025500008C0F394EF1420F0F3CFFE10FACFEACFC7
:1025600080E0DF91CF911F910F91FF90EF90089540
:10257000EF92FF920F931F93CF93DF9300D0CDB7CD
:10258000DEB77C018A01FC018481958169837A83AD
:1025900092DD69817A81F7018481958181DE40E055
:1025A0006EEBF701848195811FDEF70184819581AF
:1025B0005CDEF8018083F7018481958156DEF801A5
:1025C0008183F7018481958150DEF8018283F701D0
:1025D000848195814ADEF8018383F70184819581A6
:1025E00044DEF8018483F701848195813EDEF801A1
:1025F0008583F7018481958138DEF8018683F701B0
:102600008481958132DEF8018783F7018481958189
:102610002CDEF8018087F701848195810F900F905F
:10262000DF91CF911F910F91FF90EF9044CDCF9309
:10263000DF93EA019DDF68E0CE010ADF91E02885A3
:10264000821390E0892FDF91CF910895CF93DF938C
:10265000EC018C819D812FDD8C819D814CDE488138
:1026600064E48C819D81DF91CF91BECD8F929F924A
:10267000AF92BF92CF92DF92EF92FF921F93CF93D0
:10268000DF93FB01EA01998180E02881BC01622B84
:102690008081823231F0883221F0803109F078C0B7
:1026A00046C08C818F3321F120F48F3109F070C046
:1026B0002EC08F3571F08F3709F06AC0882777FDFB
:1026C0008095982F0E94430420E030E040E85DE3CD
:1026D0000CC075956795882777FD8095982F0E9487
:1026E000430420E030E040E05EE30E94690254C011
:1026F0007595679575956795882777FD8095982FCF
:102700000E94430420E030E040E85EE3EECF23E0A7
:10271000759567952A95E1F7882777FD8095982F1D
:102720000E94430420E030E040E05FE3DECF1F8101
:1027300075956795882777FD8095982F0E944304AB
:1027400020E030E040E85EE30E943D026B017C0146
:10275000612F70E08E81681B7109882777FD809555
:10276000982F0E9443044B015C01612F70E080E0D0
:1027700090E00E94EC049B01AC01C501B4010E94F1
:102780004B039B01AC01C701B6010E94150204C0B6
:1027900060E070E080E090E0DF91CF911F91FF90CA
:1027A000EF90DF90CF90BF90AF909F908F90089563
:1027B000EF92FF920F931F93CF93DF93CDB7DEB7C6
:1027C00029970FB6F894DEBF0FBECDBF8C017B01F9
:1027D000AE014F5F5F4F2BDF882339F0AE014F5FB3
:1027E0005F4FB701C80142DF04C060E070E08EEFC8
:1027F00092EC29960FB6F894DEBF0FBECDBFDF91E5
:10280000CF911F910F91FF90EF9008950F931F9319
:10281000CF93DF93CDB7DEB728970FB6F894DEBF1E
:102820000FBECDBF8C01462FBE016F5F7F4F74DEA0
:10283000BE016F5F7F4FC801BBDF28960FB6F894CB
:10284000DEBF0FBECDBFDF91CF911F910F910895D5
:102850000F93FC01DC01AA58BF4F1D921C92DC01B2
:10286000AF58BF4F6D937C931086DC01AC58BF4FBF
:102870004C93DC01AD58BF4F2C93DC01AB58BF4FDC
:102880000C9380E483838FE384831282DF01A45955
:10289000BF4F1D921C92DF01A259BF4F1D921C9287
:1028A000DF01A659BF4F81E08C9380E090E0DF010B
:1028B000A80FB91FA858BF4F1D921C9202968436CC
:1028C0009105A9F717820F9108950F93C1DF0F911A
:1028D0000895623348F4E62FF0E0FC96EE0FFF1FF8
:1028E000E80FF91F518340830895FC018081811115
:1028F0000AC081E080838783EF58FF4F4AE050E0B1
:10290000808191810BC60895F90121E03081341353
:1029100020E0DB013C913083DC01AB58BF4F8C9150
:10292000381302C021111082822F08954F925F92B6
:102930006F927F928F929F92AF92BF92CF92DF92CF
:10294000EF92FF920F931F93CF93DF938C01FC01C3
:1029500015827B01EB012C01F5E04F0E511C3C016F
:1029600085E7680E711C4801E4E78E0E911C0FC0CC
:102970009201F3014081BE01C801C6DF2196F50135
:102980002081F4019081291302C0882339F05E016F
:102990006E01CE18DF0888818111EACFC601DF9170
:1029A000CF911F910F91FF90EF90DF90CF90BF904C
:1029B000AF909F908F907F906F905F904F90089511
:1029C000BF92CF92DF92EF92FF920F931F93CF931C
:1029D000DF936C01B42E79016115710519F4D901E9
:1029E0006D917C918B01E8014B2DB801C6019EDFF2
:1029F000892B21F08881811107C014C00F5F1F4F00
:102A000088818111F0CFF6CF4B2DBE01C6018EDF3C
:102A1000FE01E80FF91F808181111192D701ED931A
:102A2000FC9302C0C0E0D0E0CE01DF91CF911F91B6
:102A30000F91FF90EF90DF90CF90BF900895CF93CC
:102A4000DF93EC01FC01E759FF4F8081882351F1AE
:102A5000813031F4BE01675F7F4F82E0808302C026
:102A600060E070E0FE01E659FF4F8081882371F03D
:102A70009E0122593F4FFE01EC58FF4F4081CE018D
:102A80009FDFFE01E459FF4F91838083FE01E459EB
:102A9000FF4F80819181892B29F0C659DF4F81E05A
:102AA000888301C080E0DF91CF910895CF93DF93B9
:102AB000EC01C5DFFE01E559FF4F882371F0DE010F
:102AC000A659BF4F81E08C938083C459DF4F888122
:102AD0009981DF91CF910C947220108280E090E078
:102AE000DF91CF9108952F923F924F925F926F9214
:102AF0007F928F929F92AF92BF92CF92DF92EF928E
:102B0000FF920F931F93CF93DF93CDB7DEB72B9731
:102B10000FB6F894DEBF0FBECDBF8C017C0181E7FC
:102B2000E80EF11C580199E6A90EB11CD801AB586A
:102B3000BF4FBD83AC83F801ED58FF4FFF83EE8399
:102B40001801FCE62F0E311CC8018A589F4F998747
:102B50008887D801A559BF4FBB87AA879BC0F701BB
:102B600080819181DC01ED91FC910480F581E02D63
:102B700009954C01B801675B7F4FA401F701808183
:102B8000918122D66801C401800F911F9B838A83A3
:102B9000280196E0490E511C4801AEE68A0E911CB0
:102BA0003801BAE66B0E711C6FC0F601E75BFF4F90
:102BB00080818983F50110829201AC81BD814C91A5
:102BC000BE016F5F7F4FC8019FDE2981EE81FF81CB
:102BD0003081D80112969C911297F801E90FF11DEE
:102BE000231316C0811114C01186992329F081E0A6
:102BF000F501808316961C92F8011282D1011D9274
:102C00001C92F40111821082E1E0D301EC9316C012
:102C100021879F5FD80112969C93129714968C91EE
:102C20001497981758F012961C92F1011182108295
:102C3000D4011D921C9281E0F3018083D5018C9117
:102C40008130F9F4C80132DFF8018183823390F4D6
:102C5000AA85BB852C91222369F0FC01FF27FC96F5
:102C6000EE0FFF1FE00FF11F0190F081E02D309774
:102C700009F006C0A885B985ED91FC91309709F05F
:102C80000995BFEFCB1ADB0AEA81FB81CE16DF067E
:102C900009F08BCFD80117968C9181111DC0F701D7
:102CA00080819181DC01ED91FC910480F581E02D22
:102CB0000995892B89F0F70180819181DC01ED91E3
:102CC000FC910480F581E02D099580970CF447CFA5
:102CD00030E2832E912C4ECF2B960FB6F894DEBFA8
:102CE0000FBECDBFDF91CF911F910F91FF90EF905D
:102CF000DF90CF90BF90AF909F908F907F906F901C
:102D00005F904F903F902F9008952F923F924F9257
:102D10005F926F927F928F929F92AF92BF92CF926B
:102D2000DF92EF92FF920F931F93CF93DF93CDB774
:102D3000DEB765970FB6F894DEBF0FBECDBF8C012E
:102D4000D62E5D874C872901DC018C91811102C050
:102D5000312CC0C0F801ED58FF4F7801B1E7EB0E00
:102D6000F11C6081F7018081918109D3D801189607
:102D70008C91882321F0F7018081918107D3DD2098
:102D800039F3662457FC6094762CC7D56B017C011F
:102D90004B015C01312C98012F583F4F3D832C8310
:102DA000C80187599F4F9B838A83D8011696BF8796
:102DB000AE87F801EB58FF4FF98BE88B98012D583F
:102DC0003F4F3B8B2A8BC80185599F4F9D8B8C8B26
:102DD000D801A459BF4FBF83AE83F801E259FF4F1A
:102DE000F987E887980126593F4F3B872A87222495
:102DF000239454C0AC81BD818D919C91DC01ED91F7
:102E0000FC910680F781E02D09958983EA81FB8199
:102E100010822E853F85A889B9894C91BE016F5FCC
:102E20007F4FC80171DD2981EA89FB893081D80192
:102E300012969C911297F801E90FF11D23130CC013
:102E400081110AC01186992329F0EA81FB81208231
:102E500016961C92F80107C021879F5FF8019283A4
:102E60008481981760F01282AE81BF811D921C92FE
:102E7000E885F98511821082AA85BB852C92EA81AA
:102E8000FB818081813051F4C80110DE2C853D85A5
:102E90002817390719F4AC89BD893C908C189D0816
:102EA000AE08BF0884149504A604B70498F4311042
:102EB00011C033D54B015C01AC81BD818D919C91DA
:102EC000DC01ED91FC910480F581E02D0995892BC1
:102ED00029F390CFF80117821082832D65960FB6E3
:102EE000F894DEBF0FBECDBFDF91CF911F910F9140
:102EF000FF90EF90DF90CF90BF90AF909F908F901A
:102F00007F906F905F904F903F902F9008952FE0AB
:102F100034E0FC01318320830895FC01848595858C
:102F2000FC01E05CFF4F20813181FC01EE5BFF4F33
:102F300080819181281B390B2F733327C901089594
:102F4000FC0184859585FC01E05CFF4F4081518147
:102F5000FC01EE5BFF4F208131814217530741F0A6
:102F60000190F081E02DE80FF91F208130E002C0D0
:102F70002FEF3FEFC9010895FC0184859585FC0181
:102F8000E05CFF4F40815181FC01EE5BFF4F2081EF
:102F900031814217530781F0A081B181A80FB91F79
:102FA0008C91208131812F5F3F4F2F7333273183E5
:102FB0002083282F30E002C02FEF3FEFC901089592
:102FC000FC0186859785FC01E05CFF4FDC01AE5B70
:102FD000BF4F408151812D913C911197421753076A
:102FE000C1F708951F93CF93DF93FC01162F268519
:102FF0003785E901C05CDF4F88819981019660E4E3
:1030000070E09ED6D901AE5BBF4F4D915C91119798
:1030100084179507D1F3A881B981A20FB31F1C9320
:10302000A685B785A05CBF4F11969C938E93A68909
:10303000B7892C9181E090E0058C02C0880F991F20
:103040000A94E2F7282B2C9381E090E0DF91CF9156
:103050001F9108952FE034E0FC013183208312C4D6
:1030600008951F920F920FB60F9211242F933F9342
:103070004F938F939F93EF93FF934091C60080915E
:1030800050079091510701968F739927209152070D
:10309000309153078217930759F0E0915007F09150
:1030A0005107E05FF84F408390935107809350079A
:1030B000FF91EF919F918F914F913F912F910F90A1
:1030C0000FBE0F901F9018958DEA96E026DF892B92
:1030D00009F0C6CF08951F920F920FB60F921124D8
:1030E0002F933F935F936F937F938F939F93AF93B0
:1030F000BF93EF93FF9320910C0730910D078091C0
:103100000E0790910F072817390731F48091C100FD
:103110008F7D8093C10015C0E0910E07F0910F07DD
:10312000E453F94F208180910E0790910F0701968B
:1031300060E470E005D690930F0780930E0720930C
:10314000C600FF91EF91BF91AF919F918F917F91B9
:103150006F915F913F912F910F900FBE0F901F9035
:103160001895CF92DF92EF92FF92CF93DF93EC010D
:103170006A017B01411581EE580761057105F1F087
:10318000EC89FD8981E090E00E8C02C0880F991FC8
:103190000A94E2F7808360E079E08DE390E0A70194
:1031A0009601E1D5215031094109510956954795BC
:1031B00037952795211580E1380790F0EC89FD8936
:1031C000108260E874E88EE190E0A7019601CBD50B
:1031D0002150310941095109569547953795279551
:1031E000E889F9893083EA89FB892083EE89FF89A0
:1031F000408181E090E09C010A8C02C0220F331FC5
:103200000A94E2F7422B4083EE89FF8940819C01BA
:103210000B8C02C0220F331F0A94E2F7422B40832B
:10322000EE89FF8940819C010C8C02C0220F331F64
:103230000A94E2F7422B4083EE89FF8920810D8CAE
:1032400002C0880F991F0A94E2F780958223808339
:10325000DF91CF91FF90EF90DF90CF900895109283
:10326000B0061092AF0688EE93E0A0E0B0E0809345
:10327000B1069093B206A093B306B093B4068FE064
:1032800094E09093AE068093AD0680E197E0909332
:10329000BA068093B9068CEC96E09093BC068093B6
:1032A000BB0685EC90E09093BE068093BD0684EC4F
:1032B00090E09093C0068093BF0680EC90E09093DE
:1032C000C2068093C10681EC90E09093C40680937F
:1032D000C30686EC90E09093C6068093C50684E012
:1032E0008093C70683E08093C80687E08093C90671
:1032F00085E08093CA0681E08093CB0608958FE035
:1033000094E09093AE068093AD060895DB010D9096
:103310000020E9F7AD0141505109461B570BDC0174
:10332000ED91FC910280F381E02D0994CF92DF9220
:10333000EF92FF920F931F93CF93DF936C01EB01FA
:103340007A01E60EF71E00E010E00BC06991D6018D
:10335000ED91FC910190F081E02DC6010995080FD7
:10336000191FCE15DF0591F7C801DF91CF911F918D
:103370000F91FF90EF90DF90CF900895C7CFDC01C1
:10338000ED91FC910190F081E02D09940F931F9332
:10339000CF93DF93EC016DE0F2DF8C016AE0CE01A8
:1033A000EEDF9C01200F311FC901DF91CF911F91EA
:1033B0000F9108950F931F93CF93DF93EC01A6DF36
:1033C0008C01CE01E3DF9801280F391FC901DF917D
:1033D000CF911F910F9108954F925F926F927F92BC
:1033E0009F92AF92BF92CF92DF92EF92FF920F9394
:1033F0001F93CF93DF93CDB7DEB7A1970FB6F894A5
:10340000DEBF0FBECDBF5C016A017B01922E19A207
:1034100081E0821710F08AE0982E8E010F5D1F4F19
:10342000492C512C612C712CC701B601A3019201CA
:103430009AD48C2D929E80191124015011098A3042
:1034400014F4805D01C0895CF801808369017A0110
:10345000C114D104E104F10439F7B801C50156DF04
:10346000A1960FB6F894DEBF0FBECDBFDF91CF910E
:103470001F910F91FF90EF90DF90CF90BF90AF9092
:103480009F907F906F905F904F900895CF92DF92C2
:10349000EF92FF920F931F93CF93DF93EC016A019A
:1034A0007B012115310579F4E881F9810190F081E2
:1034B000E02D642FDF91CF911F910F91FF90EF903E
:1034C000DF90CF9009942A30310519F477FD0DC0B3
:1034D0002AE0B701A601CE01DF91CF911F910F9194
:1034E000FF90EF90DF90CF9077CF6DE248DF8C01B7
:1034F00044275527BA014C195D096E097F092AE056
:10350000CE016ADF080F191FC801DF91CF911F910B
:103510000F91FF90EF90DF90CF9008959A01AB014B
:10352000662757FD6095762FB1CF7F928F929F923D
:10353000AF92BF92CF92DF92EF92FF920F931F93C1
:10354000CF93DF938C014A015B01F22E20E030E043
:10355000A901C501B4010E94170487FF09C06DE2EB
:10356000C8010DDFEC01B7FAB094B7F8B09402C00F
:10357000C0E0D0E0E12C60E070E080E09FE307C0B5
:1035800020E030E040E251E40E944B03E394EF106E
:10359000F7CF262F372F482F592FC501B4010E948E
:1035A0001502762E872E982EA92E0E949000B62EF8
:1035B000C72ED82EE92E0E94EC049B01AC01672D8A
:1035C000782D892D9A2D0E943D02A62E972E882EA9
:1035D000792E2AE04B2D5C2D6D2D7E2DC801FCDE51
:1035E000C80FD91FFF20A9F16FE174E0C8018EDE7A
:1035F000C80FD91F2EC020E030E040E251E46A2D10
:10360000792D882D972D0E946902762EC72ED82EEF
:10361000E92E0E949E044B01AA2497FCA094BA2C88
:103620002AE030E0B501A401C80130DFC80FD91F7E
:10363000C501B4010E9443049B01AC01672D7C2DA0
:103640008D2D9E2D0E943D02A62E972E882E792E1E
:10365000FA94F110D0CFCE01DF91CF911F910F914D
:10366000FF90EF90DF90CF90BF90AF909F908F90A2
:103670007F9008955ACF0F931F93CF93DF93EC0160
:103680004CD1688779878A879B87E881F981068092
:10369000F781E02DCE0109959C0197FF14C03DD123
:1036A000088519852A853B85601B710B820B930B5E
:1036B0000C811D812E813F8160177107820793075E
:1036C00020F32FEF3FEFC901DF91CF911F910F91B1
:1036D0000895FC01448355836683778308956F9230
:1036E0007F928F929F92AF92BF92CF92DF92EF9292
:1036F000FF920F931F93CF93DF935C016B014A01FD
:103700003901FB018081882399F1C0E0D0E0E12CF0
:10371000F12C27C0F601EE0DFF1D2081332727FD78
:1037200030958217930739F4FFEFEF1AFF0AE81478
:10373000F90418F01DC0E12CF12C0115110579F0E8
:10374000F301EC0FFD1F2081332727FD30958217F1
:10375000930729F42196C017D10718F007C0C0E0DD
:10376000D0E0C50188DF18161906A4F280E001C078
:1037700081E0DF91CF911F910F91FF90EF90DF904B
:10378000CF90BF90AF909F908F907F906F90089553
:103790000F931F939A01DA010D900020E9F78D0134
:1037A00001501109041B150BFB0101900020E9F7E2
:1037B000AF0141505109461B570B91DF1F910F91EB
:1037C000089540E050E0E4CFCF92DF92EF92FF9275
:1037D0000F931F93CF93DF937C018B016A01C0E0AD
:1037E000D0E008C0C70147DF97FD07C0F80181930B
:1037F0008F012196CC15DD05A9F7CE01DF91CF9180
:103800001F910F91FF90EF90DF90CF900895AF92AE
:10381000BF92CF92DF92EF92FF920F931F93CF93BD
:10382000DF936C018A017901C0E0D0E021153105F8
:1038300091F0A62EBB24A7FCB094C6011CDF97FD17
:103840000AC08A159B0539F0F80181938F012196F2
:10385000CE15DF0591F7CE01DF91CF911F910F912A
:10386000FF90EF90DF90CF90BF90AF900895BFD0C2
:103870000E940407C4E6D8E10E94E6072097E1F31E
:1038800023DCFACF96C31F920F920FB60F9211242A
:103890002F933F938F939F93AF93BF938091540740
:1038A00090915507A0915607B091570730915C074A
:1038B000232F2D5F2D3720F40196A11DB11D05C0CA
:1038C000232F2A570296A11DB11D20935C078093D8
:1038D000540790935507A0935607B09357078091CC
:1038E000580790915907A0915A07B0915B0701962C
:1038F000A11DB11D8093580790935907A0935A07B3
:10390000B0935B07BF91AF919F918F913F912F91A2
:103910000F900FBE0F901F9018950F931F938FB7A6
:10392000F894009154071091550720915607309153
:1039300057078FBFB801C9011F910F9108950F93C9
:103940001F939FB7F8940091580710915907209141
:103950005A0730915B0786B5A89B06C08F3F21F0C0
:103960000F5F1F4F2F4F3F4F9FBF322F212F102F21
:103970000027080F111D211D311D42E0000F111FEE
:10398000221F331F4A95D1F7B801C9011F910F912A
:103990000895CF92DF92EF92FF92CF93DF936B0166
:1039A0007C01CDDFEB010DC0CADF6C1B7D0B683ED7
:1039B000734038F081E0C81AD108E108F108C85115
:1039C000DC4FC114D104E104F10471F7DF91CF9110
:1039D000FF90EF90DF90CF900895019739F0880F16
:1039E000991F880F991F02970197F1F7089578940E
:1039F00084B5826084BD84B5816084BD85B58260F4
:103A000085BD85B5816085BDEEE6F0E08081816091
:103A10008083E1E8F0E01082808182608083808191
:103A200081608083E0E8F0E0808181608083E1EB69
:103A3000F0E0808184608083E0EBF0E08081816051
:103A40008083EAE7F0E08081846080838081826007
:103A500080838081816080838081806880831092F0
:103A6000C10008958E3008F08E50877020911A01A1
:103A700040E4249F90011124822B80937C0080914C
:103A80007A00806480937A0080917A0086FDFCCF72
:103A90002091780030917900932F80E0AC01422B87
:103AA0009A01C9010895833069F028F48130A1F0AA
:103AB000823011F514C08630B1F08730C1F0843007
:103AC000D9F404C0809180008F7703C0809180007A
:103AD0008F7D80938000089584B58F7702C084B570
:103AE0008F7D84BD08958091B0008F7703C0809151
:103AF000B0008F7D8093B000089590E0FC01E45801
:103B0000FF4F2491FC01E057FF4FE491EE2399F021
:103B1000F0E0EE0FFF1FE854FF4F85919491DC0118
:103B20009FB7F8948C91611103C02095822301C046
:103B3000822B8C939FBF08950F931F93CF93DF9396
:103B40001F92CDB7DEB7282F30E0F901E859FF4FBB
:103B50008491F901E458FF4F1491F901E057FF4FA8
:103B600004910023C9F0882319F069839CDF6981DF
:103B7000E02FF0E0EE0FFF1FE255FF4F859194918B
:103B8000DC019FB7F8948C91611103C010958123DB
:103B900001C0812B8C939FBF0F90DF91CF911F911C
:103BA0000F910895CF93DF93282F30E0F901E85962
:103BB000FF4F8491F901E458FF4FD491F901E05788
:103BC000FF4FC491CC2381F081116DDFEC2FF0E029
:103BD000EE0FFF1FEC55FF4F85919491DC018C9106
:103BE0008D2321E030E011F420E030E0C901DF91C5
:103BF000CF910895FC0187819085009709F0D9C184
:103C00000895FC0111821282138214821582168299
:103C100080E00DC0A781B08594E0899FA00DB11D03
:103C200011241D921D921D921C9213978F5F9081FB
:103C3000891780F30895CF93DF93EC01688324E024
:103C4000629FC00111241BD198878F83009709F4CC
:103C50001882CE01DF91CF91D4CFAF92BF92CF9295
:103C6000DF92EF92FF920F931F93CF93DF93EC01BC
:103C70006A017B010F81188501151105D9F18A812F
:103C8000580194E0899FA00CB11C1124F5012081FA
:103C90003181428153816B817C818D819E810E9423
:103CA0003D026B837C838D839E83F501C082D1822C
:103CB000E282F382FA80F80184E0F89EE00DF11DC3
:103CC000112420813181428153816B817C818D81DE
:103CD0009E810E9415026B837C838D839E83F39467
:103CE000FA829881F91201C01A828981891710F429
:103CF0008F5F8983DF91CF911F910F91FF90EF909C
:103D0000DF90CF90BF90AF900895CF93DF93EC01F9
:103D10006981662371F070E080E090E00E944304C6
:103D20009B01AC016B817C818D819E810E944B0344
:103D300004C060E070E080EC9FE7DF91CF910895D0
:103D400097FB072E16F4009406D077FD08D02DD0EF
:103D500007FC05D03EF4909581959F4F089570958E
:103D600061957F4F0895A1E21A2EAA1BBB1BFD018E
:103D70000DC0AA1FBB1FEE1FFF1FA217B307E4074A
:103D8000F50720F0A21BB30BE40BF50B661F771FA2
:103D9000881F991F1A9469F7609570958095909582
:103DA0009B01AC01BD01CF010895AA1BBB1B51E1D2
:103DB00007C0AA1FBB1FA617B70710F0A61BB70B9B
:103DC000881F991F5A95A9F780959095BC01CD0140
:103DD00008952F923F924F925F926F927F928F92AF
:103DE0009F92AF92BF92CF92DF92EF92FF920F938A
:103DF0001F93CF93DF93CDB7DEB7CA1BDB0B0FB694
:103E0000F894DEBF0FBECDBF09942A883988488850
:103E10005F846E847D848C849B84AA84B984C884E6
:103E2000DF80EE80FD800C811B81AA81B981CE0FDD
:103E3000D11D0FB6F894DEBF0FBECDBFED010895C2
:103E4000EE0FFF1F0590F491E02D099406D084FF3A
:103E50000895CB0102D0805F0895AA27992329F401
:103E6000A85F982B11F480E10895903118F4AD5FAC
:103E70009295A395990FE8F78A2F99270895CF93E4
:103E8000DF938230910510F482E090E0E0915F07CB
:103E9000F091600740E050E020E030E026C0608113
:103EA000718168177907E0F06817790781F48281DA
:103EB00093812115310531F0D90113969C938E938E
:103EC00012972BC09093600780935F0726C041151F
:103ED000510519F06417750718F4AB01E901DF010A
:103EE0009F0172816381E72FF62F3097C1F641154C
:103EF000510501F1481B590B4430510580F41296CD
:103F00008D919C911397209719F09B838A8304C00D
:103F10009093600780935F07FD01329646C0FD01D4
:103F2000E40FF51F819391934250504011965C939A
:103F30004E933BC020915D0730915E0721153105FE
:103F400041F4209102013091030130935E072093E8
:103F50005D0720910401309105012115310541F4DF
:103F60002DB73EB74091000150910101241B350B44
:103F7000E0915D07F0915E07E217F307A0F42E1BB6
:103F80003F0B2817390778F0AC014E5F5F4F2417BD
:103F9000350748F04E0F5F1F50935E0740935D0753
:103FA0008193919302C0E0E0F0E0CF01DF91CF91E7
:103FB0000895CF93DF93009709F491C0FC013297E5
:103FC0001382128260915F0770916007611571051D
:103FD00081F420813181280F391F80915D079091F4
:103FE0005E078217930799F5F0935E07E0935D07EC
:103FF00076C0DB0180E090E002C0CD01D901AE17B0
:10400000BF0748F412962D913C9113972115310565
:10401000A1F7CD0121C0B383A283EF01499159914A
:104020009E01240F351FA217B30779F42D913C91FF
:104030001197240F351F2E5F3F4F31832083129637
:104040002D913C91139733832283009729F4F093A9
:104050006007E0935F0743C0DC011396FC93EE9387
:1040600012974D915D91A40FB51FEA17FB0769F4F4
:1040700020813181240F351F2E5F3F4FEC013983A2
:104080002883228133813B832A83E0E0F0E002C071
:10409000FB01BC01DB0112968D919C911397009757
:1040A000B9F79B012E5F3F4F8D919C911197820F25
:1040B000931F40915D0750915E074817590779F4A7
:1040C000309729F41092600710925F0702C01382A4
:1040D00012822250304030935E0720935D07DF91BB
:1040E000CF910895FC0188279927E89421912032E7
:1040F000E9F3293010F02E30C8F32B3239F02D328D
:1041000031F4689403C012D0820F911D2191205385
:104110002A30C8F31EF4909581959F4F0895FB01B6
:10412000DC0101900D920020E1F708957AE0979F5D
:10413000902D879F802D910D11240895AEE0B0E061
:10414000E3EAF0E254CE0D891E898F89988D26E02E
:104150002C831A83098397FF02C080E090E80197BF
:104160009E838D839E01255E3F4FCE010196698D12
:104170007A8DA90131D04D815E8157FD0AC02F8112
:104180003885421753070CF49A01020F131FF801E8
:1041900010822E96E4E047CEAEE0B0E0E1EDF0E232
:1041A00026CE0D891E8986E08C831A8309838FEFC2
:1041B0009FE79E838D839E01275E3F4FCE01019630
:1041C0006F89788DA90108D0EF81F885E00FF11F84
:1041D00010822E96E4E027CEACE0B0E0E1EFF0E212
:1041E000F8CD6C011B018A01FC01178216828381C4
:1041F00081FFC4C12E010894411C511CF60193811A
:10420000F10193FD859193FF81911F01882309F4AA
:10421000B1C1853239F493FD859193FF81911F01DE
:10422000853221F490E0B601F4D1E8CFEE24FF24EA
:1042300020E02032B0F48B3269F08C3228F48032E6
:1042400051F0833271F40BC08D3239F0803349F470
:1042500021602CC02260246029C0286027C0206112
:1042600025C027FD2CC0382F30533A3098F426FF54
:1042700008C08E2D880FE82EEE0CEE0CE80EE30E33
:1042800015C08F2D880FF82EFF0CFF0CF80EF30EC3
:1042900020620CC08E3221F426FD6CC1206406C061
:1042A0008C3611F4206802C0883649F4F10193FD80
:1042B000859193FF81911F01882309F0BACF982F30
:1042C0009554933018F09052933028F40C5F1F4FA0
:1042D000FFE3F9830DC0833631F0833771F0833506
:1042E00009F05CC021C0F801808189830E5F1F4FF7
:1042F000420171E0A72EB12C15C062E0662E712C30
:10430000600E711EF8018080918026FF03C06E2D23
:1043100070E002C06FEF7FEFC4012C876FD15C01AA
:1043200083012C852F7716C052E0652E712C600E0C
:10433000711EF8018080918026FF03C06E2D70E011
:1043400002C06FEF7FEFC4012C874DD15C012C853B
:104350002068830123FD1EC007C080E290E0B60103
:104360002C8757D1FA942C858F2D90E0A816B9068A
:10437000A0F310C0F40127FD859127FF81914F0123
:1043800090E0B6012C8745D12C85F110FA94089461
:10439000A108B108A114B10469F7E9C0843611F08D
:1043A000893641F527FF08C0F8016081718182815B
:1043B00093810C5F1F4F09C0F801608171818827CC
:1043C00077FD8095982F0E5F1F4F4FE6B42EB222D7
:1043D00097FF09C090958095709561957F4F8F4F9D
:1043E0009F4FF0E8BF2AA2012AE030E03ED1782EAC
:1043F000741844C0853731F43FEEB32EB2222AE060
:1044000030E025C099EFB92EB2228F36C1F0803747
:1044100020F4883509F0AEC00DC0803721F0883710
:1044200009F0A8C002C020E1B22AB4FE0BC084E0AB
:10443000B82A08C0B4FE09C0E6E0BE2A06C028E0DB
:1044400030E005C020E130E002C020E132E0B7FEFC
:1044500008C0F80160817181828193810C5F1F4FD8
:1044600007C0F8016081718180E090E00E5F1F4F0E
:10447000A201FBD0782E7418FFE7BF22B6FE0BC056
:104480002EEFB2227E1438F4B4FE07C0B2FC05C091
:104490008FEEB82202C0A72C01C0AE2C8B2D90E06D
:1044A000B4FE0DC0FE01E70DF11D2081203319F48B
:1044B000E9EEBE2209C0A394B2FE06C004C086780D
:1044C0009070009709F0A3948B2C9924B3FC13C02F
:1044D000B0FE0EC0AF1428F4E72CEF0CEA18AF2C96
:1044E00007C0E72C05C080E290E0B60192D0A3940B
:1044F000AF14C8F304C0AF1410F4FA1801C0FF24BD
:1045000084FE0EC080E390E0B60183D082FE1DC021
:1045100081FE03C088E590E010C088E790E00DC000
:10452000C40186789070009781F081FC02C080E21F
:1045300001C08BE2B7FC8DE290E0B6016AD005C005
:1045400080E390E0B60165D0EA947E14C8F37A94D3
:10455000F201E70DF11D808190E0B6015AD077207D
:10456000B1F705C080E290E0B60153D0FA94FF2085
:10457000C9F744CEF6012681378102C02FEF3FEF05
:10458000C9012C96E2E141CCDC01CB01FC01F99997
:10459000FECF06C0F2BDE1BDF89A319600B40D928F
:1045A00041505040B8F70895A8E1B0E042E050E033
:1045B000EDCFDC01CB0102C02D9105D04150504020
:1045C000D8F70895262FF999FECF1FBA92BD81BD65
:1045D00020BD0FB6F894FA9AF99A0FBE0196089585
:1045E000F1DF272FF0CFFC010590615070400110E2
:1045F000D8F7809590958E0F9F1F0895FC0161500C
:10460000704001900110D8F7809590958E0F9F1FF4
:1046100008950F931F93CF93DF938C01EB018B8150
:1046200081FF1BC082FF0DC02E813F818C819D8147
:104630002817390764F4E881F9810193F983E88345
:1046400006C0E885F985802F0995009731F48E81A1
:104650009F8101969F838E8302C00FEF1FEFC801D9
:10466000DF91CF911F910F910895FA01AA27283069
:1046700051F1203181F1E8946F936E7F6E5F7F4F2F
:104680008F4F9F4FAF4FB1E03ED0B4E03CD0670FAB
:10469000781F891F9A1FA11D680F791F8A1F911DFE
:1046A000A11D6A0F711D811D911DA11D20D009F44E
:1046B00068943F912AE0269F11243019305D319390
:1046C000DEF6CF010895462F4770405D4193B3E079
:1046D0000FD0C9F7F6CF462F4F70405D4A3318F020
:1046E000495D31FD4052419302D0A9F7EACFB4E0D1
:1046F000A6959795879577956795BA95C9F7009789
:104700006105710508959B01AC010A2E0694579529
:10471000479537952795BA95C9F7620F731F841F80
:10472000951FA01D089510E0CAECD0E003C0FE0163
:0E47300089DB2296CE3CD107D1F7F894FFCF5B
:10473E00200061070000320032000000DC0564003A
:10474E000000F401F401000000020100000000006E
:10475E0000000044656D6F536869656C642D536588
:10476E006E736F65730041726475696E6F20446578
:10477E006D6F20536869656C642077697468205486
:10478E00656D7020616E64204272696768746E6533
:10479E007373007365742073206920307831300D87
:1047AE0000736574207320732025640D0047573DF8
:1047BE0000736574207520622035373630300D0059
:1047CE004D616320416464723D00676574206D0D18
:1047DE00007365742077206A20370D00736574208E
:1047EE0077206320360D007365742061207320439B
:1047FE0061726574616B65722D2563256325632572
:10480E00632563256325632563256325632563255A
:10481E00630D00736574206120702030333437339C
:10482E003432640D007365742069206420340D00E9
:10483E0073657420692061203139322E3136382E5D
:10484E00302E310D007365742069206E203235359F
:10485E002E3235352E3235352E300D0073657420DF
:10486E00692067203139322E3136382E302E310DF7
:10487E00002A4F50454E2A002A434C4F532A0073AC
:10488E0065742069206820302E302E302E300D00B9
:10489E007365742069206620307834300D0073659E
:1048AE00742069206420310D0073657420692070B6
:1048BE0020310D007365742062206920370D00735E
:1048CE0065742077206120340D0073657420772085
:1048DE006320300D007365742077206A20310D003F
:1048EE00736574207720732025730D007365742013
:1048FE007720702025730D00736574206F2064205F
:10490E0025730D002A5345525645522A0A002D2072
:10491E0042726F61646361737420726573706F6E3F
:10492E0073652066726F6D207365727665723A20BC
:10493E00257300736574206920682025730D00733C
:10494E0065742062206920300D00434D44002424FC
:10495E002400455252004558495400657869740D3B
:10496E0000446541757468006C656176650D007371
:10497E00686F77206E0D00736F633D4F006A6F692D
:10498E006E2025730D00414F4B0073657420692016
:10499E006420300D00736574206920612025730D2D
:1049AE00007365742069206E2025730D0073657485
:1049BE00206920672025730D007265626F6F740D7C
:1049CE000072696E6700736176650D0044656661FD
:1049DE00756C747300666163746F727920520D008A
:1049EE006F70656E0D00636C6F73650D006F706593
:1049FE006E2025732025640D007365742077206169
:104A0E002025640D007365742077206B2025730DAF
:104A1E00004173736F636961746564006A6F696ED8
:104A2E000D00566572007665720D00000000009054
:104A3E000E9B0E600E6C0E780E840E00000000F2BF
:104A4E001796198D17BC17A017E01787172A182E5F
:024A5E00000056
:00000001FF
