:1000000065C000008BC0000089C0000087C00000F0
:1000100085C0000083C0000081C000007FC00000D8
:100020007DC000007BC0000079C0000077C00000E8
:1000300075C0000073C0000071C000006FC00000F8
:100040000C94FA116BC000000C947C0E0C94B60E4C
:1000500065C0000063C0000061C000005FC0000018
:100060005DC000005BC0000000000007000201004E
:100070000003040600000000000000000102040864
:100080001020408001020408102001020408102002
:10009000040404040404040402020202020203032E
:1000A00003030303000000002300260029000000D2
:1000B0000000250028002B0000000000240027007D
:1000C0002A00B6011403DF097A0FCA0F11241FBEDC
:1000D000CFEFD8E0DEBFCDBF14E0A0E0B1E0E6E9AD
:1000E000F1E302C005900D92A630B107D9F717E0F1
:1000F000A6E0B4E001C01D92A233B107E1F710E021
:10010000CAECD0E004C02297FE010E946714C23CF2
:10011000D107C9F70E94EE110C94BF1871CFCF938D
:10012000DF93C6E2D4E043E651E067E0888199813D
:100130000E94270A44E051E068E088819981DF91BC
:10014000CF910C94270A61E089E00E94681361E076
:100150008BE00E94681361E08AE00E94681360E00F
:1001600089E00E94871360E08BE00E94871360E0C3
:100170008AE00E94871360E08CE00E94681361E0CF
:100180008CE00E9487138AE191E090931904809398
:10019000180489E291E090931B0480931A048DE087
:1001A00090E090931D0480931C048CE090E0909369
:1001B0001F0480931E048FE890E0909321048093A5
:1001C000200488E194E05FC11F93CF93DF93162F43
:1001D000FC0120812223A1F0EC58FF4FEC01CF5805
:1001E000DF4F6081888199810E940A104AE050E0C7
:1001F000612F88819981DF91CF911F910C949D107F
:10020000DF91CF911F910895CF93DF93C6E2D4E0A1
:1002100069E070E0888199810E94330A6091080446
:1002200088819981D1DF6091070488819981CCDF31
:100230006091060488819981C7DF28E833E141E0B5
:1002400050E060E088819981DF91CF910C94430C5C
:10025000809308046093070440930604682F70E0BD
:1002600089E00E94DF126091070470E08BE00E9439
:10027000DF126091060470E08AE00E94DF12C4CFB2
:1002800080910804811108C080910704811104C085
:1002900080910604882321F040E060E080E003C004
:1002A0004FEF6FEF8FEFD4CF02D247D1882351F0B9
:1002B00089E094E00E948F0D89E094E00E94C90DCE
:1002C0008111DECF08951F93CF93DF931F92CDB797
:1002D000DEB780912604909127040E94140B83308E
:1002E000910581F13CF48130910579F074F4892B0A
:1002F00041F037C08530910529F13CF0069789F52A
:100300002BC040E060E080E018C08091260490910E
:1003100027040E94140B182F809126049091270423
:100320000E94140B682F8091260490912704698302
:100330000E94140B482F6981812F0F90DF91CF917C
:100340001F9186CF40910604405E60910704605E75
:1003500080910804805EF1CF0F90DF91CF911F91C3
:100360008FCF0F90DF91CF911F9108952AE030E059
:1003700040E050E06CE089E094E00C94450D809101
:100380004B06843069F485E080934B06E091670565
:10039000F09168050484F585E02D309709F0099403
:1003A000089580916F0581110FC063E070E08FE6C2
:1003B00095E00E94330A28E833E141E050E060E034
:1003C0008FE695E00C94430C08950F931F93CF9301
:1003D000DF938C01EB0120E830E044EE54E06AE06A
:1003E00082ED94E00E94BE119C01009779F0C8173D
:1003F000D9070CF49E01F901EC51FB4F108264EE19
:1004000074E0C8010E94BB1581E001C080E0DF916B
:10041000CF911F910F9108950F931F9390936605AD
:1004200080936505E0916705F09168058481958169
:10043000181619062CF560E00E9487138091650557
:1004400090916605892BE1F010926A05109269057A
:100450000E944412E0916505F091660500811181CA
:10046000222717FD2095322F600F711F821F931FC7
:1004700060936B0570936C0580936D0590936E058A
:100480001F910F910895CF93DF93EC0140E054E06A
:1004900060E070E088E796E062D7D0936805C0938B
:1004A00067058FE695E09F878E878C819D81181662
:1004B00019065CF461E00E946813E0916705F09111
:1004C000680560E084810E9487131092660510928F
:1004D0006505E0916705F09168058681978118169A
:1004E00019065CF460E00E946813E0916705F091E2
:1004F000680561E086810E9487134FEB51E062E05E
:100500008FE695E0A4D741ED51E063E08FE695E0FA
:100510009ED7E0916705F09168050084F185E02D94
:10052000309709F0099540E051EE60E070E08EE709
:1005300096E0DF91CF910C94FC0E81E090914B06F8
:10054000953009F080E00895CF92DF92EF92FF920C
:100550000F931F93CF93DF936A01E9017B01B901E8
:100560006E0D7F1D2AD7811110C0C0E0D0E012C0EF
:10057000B8016E0D7F1D41E050E0C601800F911F54
:100580000E94F0170F5F1F4F02C000E010E00C1731
:100590001D0770F3CE01DF91CF911F910F91FF9056
:1005A000EF90DF90CF9008958F929F92AF92BF927D
:1005B000CF92DF92EF92FF920F931F93CF93DF932F
:1005C0006C014A018901EB017901E60EF71EB701C2
:1005D000F4D6811116C000E010E018C05E018FEF64
:1005E000A81AB80AB501C601E8D6882341F041E04F
:1005F00050E0BE01C4018C0F9D1F0E940518E5014B
:1006000002C08C1A9D0ACE15DF0541F7C801DF91A3
:10061000CF911F910F91FF90EF90DF90CF90BF90FF
:10062000AF909F908F9008950F936EE776E082EDE4
:1006300094E0E0D40FE22BE34CE262ED74E08FE64D
:1006400095E001D70F910895DF92EF92FF920F93FB
:100650001F93CF93DF938C01EC0109900020E9F701
:100660002197C81BD90B82ED94E07ED48C179D078F
:100670007CF480E014C082ED94E082D4F801EE0DA9
:10068000FF1D208130E08217930799F7D39401C0B2
:10069000D12CED2CF12CEC16FD066CF381E0DF91F2
:1006A000CF911F910F91FF90EF90DF900895FF92EF
:1006B0000F931F93CF93DF93E0916705F091680547
:1006C0008481958118161906DCF580916505909155
:1006D0006605892BA9F10E94441200916B051091C7
:1006E0006C0520916D0530916E05061717072807D8
:1006F000390708F40AC424C010926A0510926905EB
:100700000E9444122091690530916A05220F331F1F
:10071000E0916505F0916605E20FF31F00811181FC
:10072000222717FD2095322F600F711F821F931F04
:1007300060936B0570936C0580936D0590936E05C7
:1007400080914B06873009F466C180F4833009F448
:1007500011C330F4813009F413C208F0BCC219C0CF
:10076000853009F4A3C308F09FC085C38B3009F41A
:10077000ADC130F4893009F479C108F08DC156C19A
:100780008D3009F458C008F49FC18E3009F0E6C3DB
:1007900079C0E0916705F091680586819781181608
:1007A0001906BCF40E94BD13892B99F486E091E0F0
:1007B00033DE0E9444126854744F8F4F9F4F6093F2
:1007C0004C0670934D0680934E0690934F068DE035
:1007D00062C360E070E088E796E0E0D59093D104D2
:1007E0008093D0048E3F9A4C09F06EC124E230E031
:1007F0004BEA54E062E070E088E796E0A5DE20E294
:1008000030E04AE854E067E270E088E796E09CDE7A
:1008100020E230E049E654E068E470E088E796E0E2
:1008200093DE20E430E048E254E069E670E088E7D7
:1008300096E08ADEA3C1E0916705F09168058681A4
:100840009781181619060CF089C30E94BD130197F1
:1008500039F46AE070E080E090E00E9480121EC0EF
:100860000E94441200914C0610914D0620914E06B4
:1008700030914F06061717072807390708F06EC38F
:100880008EE009C3C0E0D0E04FEFBE0188E796E0FC
:1008900088D52196C11584E0D807B1F780E090E0B3
:1008A000BBDD10924B065AC38CE091E0B5DD82EDC2
:1008B00094E04ED528EE33E040E050E068E671E089
:1008C00082ED94E0FFD428EE33E047E751E061E8A1
:1008D00071E082ED94E0F6D428EE33E041E150E09F
:1008E00060E576E082ED94E084D41092610628EE13
:1008F00033E04EE353E068E871E082ED94E0E2D447
:1009000028EE33E04EE353E063E971E082ED94E0DA
:10091000D9D4809160061F928F9380915F061F92B9
:100920008F9380915D061F928F9380915C061F923A
:100930008F9380915A061F928F93809159061F9230
:100940008F93809157061F928F93809156061F9226
:100950008F93809154061F928F93809153061F921C
:100960008F93809151061F928F93809150061F9212
:100970008F938EE991E09F938F9384EE94E09F9301
:100980008F930E94F81528EE33E04EE353E064EEB7
:1009900074E082ED94E096D428EE33E04EE353E029
:1009A0006AEC71E082ED94E08DD428EE33E04EE302
:1009B00053E06CED71E082ED94E084D428EE33E0F6
:1009C0004EE353E067EE71E082ED94E07BD428EED5
:1009D00033E04EE353E06CEF71E082ED94E072D4CB
:1009E00028EE33E04EE353E063E172E082ED94E001
:1009F00069D482ED94E0A5D482ED94E093D487E0AD
:100A000080934B068DB79EB74C960FB6F8949EBF59
:100A10000FBE8DBFA3C288E292E016DE882309F4E0
:100A20009DC282E191E0F8DC88E035C282ED94E07D
:100A30000E94111060E576E082ED94E00E9425109E
:100A4000E0916705F09168056081718182ED94E025
:100A50000E942510E0916705F0916805628173811D
:100A600082ED94E00E94251089E015C28FE292E0A9
:100A7000EBDD882309F472C20E94441260527C4666
:100A80008B4F9F4F60934C0670934D0680934E069C
:100A900090934F068AE0FFC188E292E0D5DD88237B
:100AA00011F08BE0F8C10E94441200914C061091A5
:100AB0004D0620914E0630914F060617170728075E
:100AC000390708F04BC225C086E0E5C182ED94E00D
:100AD0000E94111064E270E08BEA94E076DC8111F0
:100AE00001C017C060E270E08AE894E06EDC81111A
:100AF00001C00FC060E270E089E694E066DC81111D
:100B000001C007C060E470E088E294E05EDC81111F
:100B100002C08CE0C0C18FE292E096DD8823D9F359
:100B20004EEF5AEC60E070E088E796E040D424E2B3
:100B300030E04BEA54E062E070E088E796E034DDB4
:100B400020E230E04AE854E067E270E088E796E0AF
:100B50002BDD20E230E049E654E068E470E088E70D
:100B600096E022DD20E430E048E254E069E670E0FF
:100B700088E796E019DD80E090E04EDC81E08BC1F3
:100B800082ED94E0E5D328EE33E040E050E068E603
:100B900071E082ED94E096D328EE33E04EE353E02B
:100BA00066E372E082ED94E08DD328EE33E04EE30D
:100BB00053E067E472E082ED94E084D328EE33E002
:100BC0004EE353E065E572E082ED94E07BD328EEDE
:100BD00033E04EE353E060E672E082ED94E072D3DE
:100BE00028EE33E04EE353E06BE672E082ED94E0F2
:100BF00069D328EE33E04EE353E066E772E082ED1E
:100C000094E060D328EE33E04EE353E061E872E015
:100C100082ED94E057D328EE33E04EE353E06CE8E6
:100C200072E082ED94E04ED389E694E09F938F9337
:100C300087E992E09F938F931F92C0E8CF9304EED1
:100C400014E01F930F930E94CA1528EE33E04EE381
:100C500053E0B80182ED94E035D388E294E09F93AD
:100C60008F9383EA92E09F938F931F92CF931F936A
:100C70000F930E94CA1528EE33E04EE353E0B8010B
:100C800082ED94E01FD38AE894E09F938F938FEADC
:100C900092E09F938F931F92CF931F930F930E9485
:100CA000CA1528EE33E04EE353E0B80182ED94E03C
:100CB00009D382ED94E045D382ED94E033D382E012
:100CC00080934B068DB79EB748960FB6F8949EBF9B
:100CD0000FBE8DBF43C18BEB92E0B6DC882309F4D5
:100CE0003DC16FE070E082E696E06FDB882309F497
:100CF00035C1C2E6D6E0DF93CF9385EC92E09F93B7
:100D00008F931F9230E8F32EFF9204EE14E01F93AE
:100D10000F930E94CA15DF93CF938AEE92E09F93C0
:100D20008F931F92FF921F930F930E94CA1528EE74
:100D300033E04EE353E0B80182ED94E0C3D228EEF5
:100D400033E04EE353E066EF72E082ED94E0BAD216
:100D500082ED94E0F6D282ED94E029D283E0809394
:100D60004B068DB79EB740960FB6F8949EBF0FBE48
:100D70008DBFF4C061E070E08FE695E074D38091A0
:100D80006F05882381F06091E3058091E0059091E3
:100D9000E1050E940A106BEA74E08091E0059091F1
:100DA000E1050E940910E0916705F0916805C08196
:100DB000D18180916F05882379F06091E30580915E
:100DC000E0059091E1050E940A10BE018091E005C6
:100DD0009091E1050E94091080916F05882381F0B0
:100DE0006091E3058091E0059091E1050E940A1071
:100DF0006AE874E08091E0059091E1050E94091095
:100E0000E0916705F0916805C281D38180916F05FB
:100E1000882379F06091E3058091E0059091E105E8
:100E20000E940A10BE018091E0059091E1050E94A8
:100E30000910E0916705F09168050284F385E02DC3
:100E4000309709F0099528E833E141E050E060E08F
:100E50008FE695E018D50E944412605E714B8F4F6B
:100E60009F4F60934C0670934D0680934E0690936F
:100E70004F0684E010C00E94441200914C0610916D
:100E80004D0620914E0630914F060617170728078A
:100E9000390720F483E080934B0660C08FE695E02D
:100EA000DF91CF911F910F91FF90DBC30E944412FD
:100EB00000917206109173062091740630917506A8
:100EC000061717072807390748F780916F05811122
:100ED0000DC063E070E08FE695E0C5D228E833E10D
:100EE00041E050E060E08FE695E0CDD40E944412EE
:100EF00060527C468B4F9F4F6093720670937306CF
:100F00008093740690937506C9CFE0916705F091C0
:100F1000680584810E94BD1361E0019709F460E0D7
:100F2000E0916705F091680584810E9487138091A4
:100F3000690590916A05019690936A058093690509
:100F4000880F991FE0916505F0916605E80FF91F7C
:100F500080819181892B09F4CFCBD2CBDF91CF91C6
:100F60001F910F91FF900895DC011C968D919C912B
:100F70001D97DC01ED91FC910480F581E02D099431
:100F8000DC011C968D919C911D97DC01ED91FC91EB
:100F90000680F781E02D0994DC011C968D919C91CF
:100FA0001D97DC01ED91FC910084F185E02D099401
:100FB000DC011C968D919C911D97DC01ED91FC91BB
:100FC0000284F385E02D0994FC01A485B585ED919B
:100FD000FC9111970190F081E02DCD010994FC0165
:100FE000A485B585ED91FC9111970280F381E02DE8
:100FF000CD010994CF93DF93EC01CB011B821A82C0
:1010000048EE53E060E070E04C835D836E837F8345
:1010100026EE33E039832883D0937706C093760693
:101020009D878C87CE010E9420111E861F86DF912E
:10103000CF9108952F923F924F925F926F927F923D
:101040008F929F92AF92BF92CF92DF92EF92FF92D8
:101050000F931F93CF93DF931F92CDB7DEB78C0111
:101060005B014A01290161157105A1F130E0212CD4
:10107000312C662457FC6094762C28C0D801ED9161
:10108000FC91D501A20DB31D0190F081E02D6C9172
:10109000C801398309953981019729F4BFEF2B1ACB
:1010A0003B0A30E013C0332361F00E9444126C19F4
:1010B0007D098E099F09461657066806790660F075
:1010C00004C00E9444126B017C0131E028143904F1
:1010D000ACF202C0212C312CC1010F90DF91CF91D5
:1010E0001F910F91FF90EF90DF90CF90BF90AF9046
:1010F0009F908F907F906F905F904F903F902F9038
:101100000895EF92FF920F931F93CF93DF937C018B
:10111000EA018901FB0101900020E9F7AF0141508C
:101120005109461B570B86DF209711F481E013C04D
:10113000A801662757FD6095762FC7010E942011F0
:101140000E944412BE01C7010E9498118111EECF86
:101150000E94441280E0DF91CF911F910F91FF9088
:10116000EF900895CF93DF93EC018E85882319F0DB
:1011700089898230C0F028EE33E041E053E065E039
:1011800073E0CE01BEDF882319F081E08E870CC0AA
:1011900028EE33E049E053E06AE872E0CE01B1DFC7
:1011A0008111F3CF01C081E0DF91CF910895CF93FA
:1011B000DF93EC018E858823C1F028EE33E04DE00B
:1011C00053E062E173E0CE019CDF882311F01E86BC
:1011D0000CC028EE33E049E053E06AE872E0CE014B
:1011E00090DF8823A1F380E001C081E0DF91CF91FF
:1011F00008954F925F926F927F928F929F92AF92DB
:10120000BF92CF92DF92EF92FF920F931F93CF93F3
:10121000DF935C014A018B01C0E0D0E02901662424
:1012200057FC6094762C1AC00E9444126B017C011A
:10123000C40CD51CE61CF71CD501ED91FC91068071
:10124000F781E02DC501099597FF0CC00E9444125B
:101250006C157D058E059F0578F309C0C815D90565
:101260001CF305C0F80181938F012196F7CFCE01C1
:10127000DF91CF911F910F91FF90EF90DF90CF9072
:10128000BF90AF909F908F907F906F905F904F90A6
:1012900008950F931F93CF93DF931F92CDB7DEB7BF
:1012A0008C012AE030E041E050E0BE016F5F7F4FEB
:1012B000C8019FDF0197A9F30F90DF91CF911F9194
:1012C0000F9108950F931F93CF93DF9300D000D019
:1012D00000D0CDB7DEB78C012D833E834B835C837A
:1012E00069837A83D6DFC8013DDF2D813E814B8142
:1012F0005C8169817A81C80104DFF801811105C030
:1013000081898F5F818B80E002C0118A81E02696FF
:101310000FB6F894DEBF0FBECDBFDF91CF911F9106
:101320000F910895CF93DF93EC0128EE33E040E076
:1013300050E060E773E0C6DF1E8681E0DF91CF9169
:10134000089528EE33E048E753E06DE773E0BACF45
:1013500028EE33E043E853E06CE873E0B3CF20912C
:101360007A0630917B0680917C0690917D06281745
:10137000390721F470937D0660937C0680917C068A
:1013800090917D0690937B0680937A0648175907C3
:1013900024F050931901409318010895CB010C9447
:1013A0000018CB01642F0E940E1881E00895CB0134
:1013B000BA010E941C1881E0089581E0089584E636
:1013C00090E0909379068093780608950F93FC013E
:1013D000DC01AA58BF4F1D921C92DC01AF58BF4FD1
:1013E0006D937C931086DC01AC58BF4F4C93DC01AD
:1013F000AD58BF4F2C93DC01AB58BF4F0C9380E42A
:1014000083838FE384831282DF01A459BF4F1D922F
:101410001C92DF01A259BF4F1D921C92DF01A659F9
:10142000BF4F81E08C9380E090E0DF01A80FB91FEF
:10143000A858BF4F1D921C92029684369105A9F7B9
:1014400017820F9108950F93C1DF0F9108956233B2
:1014500048F4E62FF0E0FC96EE0FFF1FE80FF91FAF
:10146000518340830895FC01808181110AC081E08D
:1014700080838783EF58FF4F4AE050E0808191815D
:10148000AAC60895F90121E03081341320E0DB0180
:101490003C913083DC01AB58BF4F8C91381302C0B4
:1014A00021111082822F08954F925F926F927F9246
:1014B0008F929F92AF92BF92CF92DF92EF92FF9264
:1014C0000F931F93CF93DF938C01FC0115827B0157
:1014D000EB012C01F5E04F0E511C3C0185E7680E35
:1014E000711C4801E4E78E0E911C0FC09201F301BC
:1014F0004081BE01C801C6DF2196F5012081F401BB
:101500009081291302C0882339F05E016E01CE1844
:10151000DF0888818111EACFC601DF91CF911F9149
:101520000F91FF90EF90DF90CF90BF90AF909F9082
:101530008F907F906F905F904F900895BF92CF9261
:10154000DF92EF92FF920F931F93CF93DF936C0183
:10155000B42E79016115710519F4D9016D917C9151
:101560008B01E8014B2DB801C6019EDF892B21F0CC
:101570008881811107C014C00F5F1F4F88818111BE
:10158000F0CFF6CF4B2DBE01C6018EDFFE01E80F76
:10159000F91F808181111192D701ED93FC9302C054
:1015A000C0E0D0E0CE01DF91CF911F910F91FF906D
:1015B000EF90DF90CF90BF900895CF93DF93EC0131
:1015C000FC01E759FF4F8081882351F1813031F4CC
:1015D000BE01675F7F4F82E0808302C060E070E001
:1015E000FE01E659FF4F8081882371F09E01225948
:1015F0003F4FFE01EC58FF4F4081CE019FDFFE01BF
:10160000E459FF4F91838083FE01E459FF4F8081AD
:101610009181892B29F0C659DF4F81E0888301C071
:1016200080E0DF91CF910895CF93DF93EC01C5DF88
:10163000FE01E559FF4F882371F0DE01A659BF4F27
:1016400081E08C938083C459DF4F88819981DF9139
:10165000CF910C949E15108280E090E0DF91CF91A5
:1016600008952F923F924F925F926F927F928F9246
:101670009F92AF92BF92CF92DF92EF92FF920F9321
:101680001F93CF93DF93CDB7DEB72B970FB6F894A8
:10169000DEBF0FBECDBF8C017C0181E7E80EF11CDF
:1016A000580199E6A90EB11CD801AB58BF4FBD83B4
:1016B000AC83F801ED58FF4FFF83EE831801FCE681
:1016C0002F0E311CC8018A589F4F99878887D801EF
:1016D000A559BF4FBB87AA879BC0F7018081918125
:1016E000DC01ED91FC910480F581E02D09954C0120
:1016F000B801675B7F4FA401F701808191811BD600
:101700006801C401800F911F9B838A83280196E0A2
:10171000490E511C4801AEE68A0E911C3801BAE60A
:101720006B0E711C6FC0F601E75BFF4F80818983F0
:10173000F50110829201AC81BD814C91BE016F5FB9
:101740007F4FC8019FDE2981EE81FF813081D80162
:1017500012969C911297F801E90FF11D231316C000
:10176000811114C01186992329F081E0F50180834D
:1017700016961C92F8011282D1011D921C92F4015E
:1017800011821082E1E0D301EC9316C021879F5FA4
:10179000D80112969C93129714968C9114979817CF
:1017A00058F012961C92F10111821082D4011D9200
:1017B0001C9281E0F3018083D5018C918130F9F492
:1017C000C80132DFF8018183823390F4AA85BB859A
:1017D0002C91222369F0FC01FF27FC96EE0FFF1FDE
:1017E000E00FF11F0190F081E02D309709F006C065
:1017F000A885B985ED91FC91309709F00995BFEF67
:10180000CB1ADB0AEA81FB81CE16DF0609F08BCF0B
:10181000D80117968C9181111DC0F70180819181AB
:10182000DC01ED91FC910480F581E02D0995892B77
:1018300089F0F70180819181DC01ED91FC910480B8
:10184000F581E02D099580970CF447CF30E2832E87
:10185000912C4ECF2B960FB6F894DEBF0FBECDBFA6
:10186000DF91CF911F910F91FF90EF90DF90CF907C
:10187000BF90AF909F908F907F906F905F904F90B0
:101880003F902F9008952F923F924F925F926F92C8
:101890007F928F929F92AF92BF92CF92DF92EF9200
:1018A000FF920F931F93CF93DF93CDB7DEB765976A
:1018B0000FB6F894DEBF0FBECDBF8C01D62E5D876C
:1018C0004C872901DC018C91811102C0312CC0C0F0
:1018D000F801ED58FF4F7801B1E7EB0EF11C608184
:1018E000F7018081918196D3D80118968C91882335
:1018F00021F0F7018081918194D3DD2039F36624B2
:1019000057FC6094762CC0D56B017C014B015C01C7
:10191000312C98012F583F4F3D832C83C8018759A4
:101920009F4F9B838A83D8011696BF87AE87F801A5
:10193000EB58FF4FF98BE88B98012D583F4F3B8BAD
:101940002A8BC80185599F4F9D8B8C8BD801A45938
:10195000BF4FBF83AE83F801E259FF4FF987E88795
:10196000980126593F4F3B872A872224239454C04D
:10197000AC81BD818D919C91DC01ED91FC91068043
:10198000F781E02D09958983EA81FB8110822E85FC
:101990003F85A889B9894C91BE016F5F7F4FC8010F
:1019A00071DD2981EA89FB893081D80112969C91E9
:1019B0001297F801E90FF11D23130CC081110AC021
:1019C0001186992329F0EA81FB81208216961C92C8
:1019D000F80107C021879F5FF801928384819817DF
:1019E00060F01282AE81BF811D921C92E885F9855C
:1019F00011821082AA85BB852C92EA81FB818081AD
:101A0000813051F4C80110DE2C853D852817390737
:101A100019F4AC89BD893C908C189D08AE08BF08AC
:101A200084149504A604B70498F4311011C02CD581
:101A30004B015C01AC81BD818D919C91DC01ED91EC
:101A4000FC910480F581E02D0995892B29F390CF35
:101A5000F80117821082832D65960FB6F894DEBFC9
:101A60000FBECDBFDF91CF911F910F91FF90EF90EF
:101A7000DF90CF90BF90AF909F908F907F906F90AE
:101A80005F904F903F902F9008951F93CF93DF93D7
:101A9000EC01162F2C833D834E835F8318861986B5
:101AA0001A861B86F1D4688379838A839B83812F6E
:101AB00064D68C871D87DF91CF911F910895FF9287
:101AC0000F931F93CF93DF93EC018D8556D6F82E9D
:101AD0008C858F1103C020E030E01AC0D5D4088176
:101AE00019812A813B81601B710B820B930B0C8146
:101AF0001D812E813F81601771078207930758F37C
:101B0000C3D4688379838A839B83FC8621E030E099
:101B1000C901DF91CF911F910F91FF9008950F930D
:101B20001F93CF93DF93EC01CADF892B09F01FC00D
:101B300088859985AA85BB85892B8A2B8B2B01F1FA
:101B4000A3D4088119812A813B81601B710B820B10
:101B5000930B088519852A853B85601771078207D5
:101B6000930770F091D4688379838A839B83188666
:101B700019861A861B8681E08E8721E030E003C03B
:101B80001E8620E030E0C901DF91CF911F910F91B7
:101B90000895FC018685882319F081E094859111D0
:101BA00080E0089526EF33E0FC013183208308951F
:101BB000FC0184859585FC01E05CFF4F208131812B
:101BC000FC01EE5BFF4F80819181281B390B2F7345
:101BD0003327C9010895FC0184859585FC01E05CEB
:101BE000FF4F40815181FC01EE5BFF4F208131812D
:101BF0004217530741F00190F081E02DE80FF91FE3
:101C0000208130E002C02FEF3FEFC9010895FC01B1
:101C100084859585FC01E05CFF4F40815181FC018A
:101C2000EE5BFF4F208131814217530781F0A08185
:101C3000B181A80FB91F8C91208131812F5F3F4F57
:101C40002F73332731832083282F30E002C02FEFFA
:101C50003FEFC9010895FC0186859785FC01E05C92
:101C6000FF4FDC01AE5BBF4F408151812D913C9114
:101C7000119742175307C1F708951F93CF93DF932E
:101C8000FC01162F26853785E901C05CDF4F88816E
:101C90009981019660E470E098D5D901AE5BBF4FA1
:101CA0004D915C91119784179507D1F3A881B98163
:101CB000A20FB31F1C93A685B785A05CBF4F1196DA
:101CC0009C938E93A689B7892C9181E090E0058C36
:101CD00002C0880F991F0A94E2F7282B2C9381E009
:101CE00090E0DF91CF911F91089526EF33E0FC0142
:101CF000318320837EC308951F920F920FB60F92F7
:101D000011242F933F934F938F939F93EF93FF93C0
:101D10004091C600809121079091220701968F7310
:101D2000992720912307309124078217930759F0B0
:101D3000E0912107F0912207EF51F94F40839093F2
:101D4000220780932107FF91EF919F918F914F91EF
:101D50003F912F910F900FBE0F901F9018958EE717
:101D600096E026DF892B09F0C6CF08951F920F92C7
:101D70000FB60F9211242F933F935F936F937F932E
:101D80008F939F93AF93BF93EF93FF932091DD06C3
:101D90003091DE068091DF069091E0062817390722
:101DA00031F48091C1008F7D8093C10015C0E09116
:101DB000DF06F091E006E356F94F20818091DF06BF
:101DC0009091E006019660E470E0FFD49093E00605
:101DD0008093DF062093C600FF91EF91BF91AF91F2
:101DE0009F918F917F916F915F913F912F910F9074
:101DF0000FBE0F901F901895CF92DF92EF92FF9237
:101E0000CF93DF93EC016A017B01411581EE580706
:101E100061057105F1F0EC89FD8981E090E00E8C9F
:101E200002C0880F991F0A94E2F7808360E079E08E
:101E30008DE390E0A7019601DBD4215031094109DF
:101E400051095695479537952795211580E1380713
:101E500090F0EC89FD89108260E874E88EE190E0F2
:101E6000A7019601C5D42150310941095109569560
:101E7000479537952795E889F9893083EA89FB8961
:101E80002083EE89FF89408181E090E09C010A8CEB
:101E900002C0220F331F0A94E2F7422B4083EE89DF
:101EA000FF8940819C010B8C02C0220F331F0A94D2
:101EB000E2F7422B4083EE89FF8940819C010C8C24
:101EC00002C0220F331F0A94E2F7422B4083EE89AF
:101ED000FF8920810D8C02C0880F991F0A94E2F7B8
:101EE000809582238083DF91CF91FF90EF90DF90E8
:101EF000CF900895109281061092800688EE93E0AC
:101F0000A0E0B0E08093820690938306A0938406BD
:101F1000B093850686EF93E090937F0680937E06CC
:101F200081EE96E090938B0680938A068DE996E089
:101F300090938D0680938C0685EC90E090938F06AD
:101F400080938E0684EC90E09093910680939006A7
:101F500080EC90E0909393068093920681EC90E061
:101F6000909395068093940686EC90E09093970664
:101F70008093960684E08093980683E08093990688
:101F800087E080939A0685E080939B0681E08093AA
:101F90009C06089586EF93E090937F0680937E06DB
:101FA0000895DB010D900020E9F7AD014150510982
:101FB000461B570BDC01ED91FC910280F381E02D73
:101FC0000994CF92DF92EF92FF920F931F93CF93DA
:101FD000DF936C01EB017A01E60EF71E00E010E0E2
:101FE0000BC06991D601ED91FC910190F081E02D3B
:101FF000C6010995080F191FCE15DF0591F7C80115
:10200000DF91CF911F910F91FF90EF90DF90CF90D4
:102010000895C7CFDC01ED91FC910190F081E02D96
:1020200009940F931F93CF93DF93EC016DE0F2DFE0
:102030008C016AE0CE01EEDF9C01200F311FC90147
:10204000DF91CF911F910F9108950F931F93CF931D
:10205000DF93EC01A6DF8C01CE01E3DF9801280FAE
:10206000391FC901DF91CF911F910F9108954F92B0
:102070005F926F927F929F92AF92BF92CF92DF92C8
:10208000EF92FF920F931F93CF93DF93CDB7DEB7FD
:10209000A1970FB6F894DEBF0FBECDBF5C016A01F9
:1020A0007B01922E19A281E0821710F08AE0982E0F
:1020B0008E010F5D1F4F492C512C612C712CC701D3
:1020C000B601A301920194D38C2D929E8019112404
:1020D000015011098A3014F4805D01C0895CF80157
:1020E000808369017A01C114D104E104F10439F754
:1020F000B801C50156DFA1960FB6F894DEBF0FBE3A
:10210000CDBFDF91CF911F910F91FF90EF90DF90A6
:10211000CF90BF90AF909F907F906F905F904F90C7
:1021200008952115310541F4DC01ED91FC910190F8
:10213000F081E02D642F09949ACF9A01462F50E048
:1021400060E070E0EECFCF92DF92EF92FF920F93BC
:102150001F93CF93DF93EC016A017B0121153105B9
:1021600079F4E881F9810190F081E02D642FDF910D
:10217000CF911F910F91FF90EF90DF90CF90099436
:102180002A30310519F477FD0DC02AE0B701A60108
:10219000CE01DF91CF911F910F91FF90EF90DF90D3
:1021A000CF9065CF6DE236DF8C0144275527BA0109
:1021B0004C195D096E097F092AE0CE0158DF080F2E
:1021C000191FC801DF91CF911F910F91FF90EF90E0
:1021D000DF90CF9008959A01AB01662757FD609577
:1021E000762FB1CF0F931F93CF93DF93EC014CD198
:1021F000688779878A879B87E881F9810680F781DC
:10220000E02DCE0109959C0197FF14C03DD10885B2
:1022100019852A853B85601B710B820B930B0C8102
:102220001D812E813F81601771078207930720F37C
:102230002FEF3FEFC901DF91CF911F910F910895CB
:10224000FC01448355836683778308956F927F9260
:102250008F929F92AF92BF92CF92DF92EF92FF92B6
:102260000F931F93CF93DF935C016B014A013901F8
:10227000FB018081882399F1C0E0D0E0E12CF12CB2
:1022800027C0F601EE0DFF1D2081332727FD309575
:102290008217930739F4FFEFEF1AFF0AE814F904E5
:1022A00018F01DC0E12CF12C0115110579F0F30196
:1022B000EC0FFD1F2081332727FD309582179307F0
:1022C00029F42196C017D10718F007C0C0E0D0E06C
:1022D000C50188DF18161906A4F280E001C081E06C
:1022E000DF91CF911F910F91FF90EF90DF90CF90F2
:1022F000BF90AF909F908F907F906F9008950F93B5
:102300001F939A01DA010D900020E9F78D01015029
:102310001109041B150BFB0101900020E9F7AF0127
:1023200041505109461B570B91DF1F910F910895A2
:1023300040E050E0E4CFCF92DF92EF92FF920F9314
:102340001F93CF93DF937C018B016A01C0E0D0E043
:1023500008C0C70147DF97FD07C0F80181938F01CF
:102360002196CC15DD05A9F7CE01DF91CF911F9104
:102370000F91FF90EF90DF90CF900895AF92BF92B2
:10238000CF92DF92EF92FF920F931F93CF93DF9341
:102390006C018A017901C0E0D0E02115310591F08E
:1023A000A62EBB24A7FCB094C6011CDF97FD0AC073
:1023B0008A159B0539F0F80181938F012196CE157E
:1023C000DF0591F7CE01DF91CF911F910F91FF9023
:1023D000EF90DF90CF90BF90AF900895B5D00E945E
:1023E000A300CFEADEE00E9454012097E1F3B7DCBE
:1023F000FACF0BC31F920F920FB60F9211242F9397
:102400003F938F939F93AF93BF93809125079091B4
:102410002607A0912707B091280730912D07232F79
:102420002D5F2D3720F40196A11DB11D05C0232F6E
:102430002A570296A11DB11D20932D0780932507D1
:1024400090932607A0932707B09328078091290728
:1024500090912A07A0912B07B0912C070196A11DFE
:10246000B11D8093290790932A07A0932B07B0935F
:102470002C07BF91AF919F918F913F912F910F901A
:102480000FBE0F901F9018950F931F938FB7F8945E
:1024900000912507109126072091270730912807E2
:1024A0008FBFB801C9011F910F9108950F931F931A
:1024B0009FB7F8940091290710912A0720912B07C4
:1024C00030912C0786B5A89B06C08F3F21F00F5F87
:1024D0001F4F2F4F3F4F9FBF322F212F102F00270D
:1024E000080F111D211D311D42E0000F111F221F79
:1024F000331F4A95D1F7B801C9011F910F91089573
:10250000CF92DF92EF92FF92CF93DF936B017C012A
:10251000CDDFEB010DC0CADF6C1B7D0B683E734045
:1025200038F081E0C81AD108E108F108C851DC4F41
:10253000C114D104E104F10471F7DF91CF91FF9050
:10254000EF90DF90CF900895789484B5826084BD39
:1025500084B5816084BD85B5826085BD85B58160A7
:1025600085BDEEE6F0E0808181608083E1E8F0E007
:102570001082808182608083808181608083E0E836
:10258000F0E0808181608083E1EBF0E08081846015
:102590008083E0EBF0E0808181608083EAE7F0E017
:1025A000808184608083808182608083808181607B
:1025B00080838081806880831092C10008951F937A
:1025C000CF93DF93182FEB0161E082D0209711F4B5
:1025D00060E004C0CF3FD10531F461E0812FDF918D
:1025E000CF911F9194C0E12FF0E0E859FF4FE491A3
:1025F000E330B9F028F4E13051F0E230B1F50CC02D
:10260000E63019F1E73049F1E43079F514C084B5CA
:10261000806884BDC7BD2EC084B5806284BDC8BD3E
:1026200029C080918000806880938000D0938900C9
:10263000C09388001FC080918000806280938000DA
:10264000D0938B00C0938A0015C08091B000806841
:102650008093B000C093B3000DC08091B000806241
:102660008093B000C093B40005C0C038D1050CF011
:10267000B4CFAECFDF91CF911F910895833069F031
:1026800028F48130A1F0823011F514C08630B1F009
:102690008730C1F08430D9F404C0809180008F77F6
:1026A00003C0809180008F7D80938000089584B561
:1026B0008F7702C084B58F7D84BD08958091B0006E
:1026C0008F7703C08091B0008F7D8093B000089514
:1026D00090E0FC01E458FF4F2491FC01E057FF4FCC
:1026E000E491EE2399F0F0E0EE0FFF1FE854FF4F66
:1026F00085919491DC019FB7F8948C91611103C08E
:102700002095822301C0822B8C939FBF08950F9345
:102710001F93CF93DF931F92CDB7DEB7282F30E002
:10272000F901E859FF4F8491F901E458FF4F1491E2
:10273000F901E057FF4F04910023C9F0882319F0F5
:1027400069839CDF6981E02FF0E0EE0FFF1FE25507
:10275000FF4F85919491DC019FB7F8948C916111A2
:1027600003C01095812301C0812B8C939FBF0F90D4
:10277000DF91CF911F910F910895CF93DF93282F71
:1027800030E0F901E859FF4F8491F901E458FF4F17
:10279000D491F901E057FF4FC491CC2381F081110E
:1027A0006DDFEC2FF0E0EE0FFF1FEC55FF4F859132
:1027B0009491DC018C918D2321E030E011F420E034
:1027C00030E0C901DF91CF91089597FB072E16F4F1
:1027D000009406D077FD08D02DD007FC05D03EF43C
:1027E000909581959F4F0895709561957F4F0895BD
:1027F000A1E21A2EAA1BBB1BFD010DC0AA1FBB1F05
:10280000EE1FFF1FA217B307E407F50720F0A21B76
:10281000B30BE40BF50B661F771F881F991F1A94E3
:1028200069F760957095809590959B01AC01BD010D
:10283000CF010895AA1BBB1B51E107C0AA1FBB1FF4
:10284000A617B70710F0A61BB70B881F991F5A953C
:10285000A9F780959095BC01CD0108952F923F92E4
:102860004F925F926F927F928F929F92AF92BF92A0
:10287000CF92DF92EF92FF920F931F93CF93DF934C
:10288000CDB7DEB7CA1BDB0B0FB6F894DEBF0FBEA9
:10289000CDBF09942A88398848885F846E847D84F6
:1028A0008C849B84AA84B984C884DF80EE80FD80F8
:1028B0000C811B81AA81B981CE0FD11D0FB6F8946E
:1028C000DEBF0FBECDBFED010895EE0FFF1F0590D7
:1028D000F491E02D0994CF93DF938230910510F4A9
:1028E00082E090E0E0913007F091310740E050E065
:1028F00020E030E026C06081718168177907E0F040
:102900006817790781F4828193812115310531F0AF
:10291000D90113969C938E9312972BC090933107F5
:102920008093300726C04115510519F064177507CB
:1029300018F4AB01E901DF019F0172816381E72F88
:10294000F62F3097C1F64115510501F1481B590B7F
:102950004430510580F412968D919C9113972097E5
:1029600019F09B838A8304C09093310780933007CA
:10297000FD01329646C0FD01E40FF51F819391934E
:102980004250504011965C934E933BC020912E07CD
:1029900030912F072115310541F42091020130912A
:1029A000030130932F0720932E07209104013091CB
:1029B00005012115310541F42DB73EB740910001C5
:1029C00050910101241B350BE0912E07F0912F0748
:1029D000E217F307A0F42E1B3F0B2817390778F0F6
:1029E000AC014E5F5F4F2417350748F04E0F5F1F55
:1029F00050932F0740932E078193919302C0E0E0FC
:102A0000F0E0CF01DF91CF910895CF93DF9300974E
:102A100009F491C0FC013297138212826091300751
:102A2000709131076115710581F420813181280F82
:102A3000391F80912E0790912F078217930799F5E0
:102A4000F0932F07E0932E0776C0DB0180E090E043
:102A500002C0CD01D901AE17BF0748F412962D91DF
:102A60003C91139721153105A1F7CD0121C0B38306
:102A7000A283EF01499159919E01240F351FA2179E
:102A8000B30779F42D913C911197240F351F2E5FD8
:102A90003F4F3183208312962D913C9113973383BE
:102AA0002283009729F4F0933107E093300743C065
:102AB000DC011396FC93EE9312974D915D91A40F58
:102AC000B51FEA17FB0769F420813181240F351FF8
:102AD0002E5F3F4FEC0139832883228133813B8372
:102AE0002A83E0E0F0E002C0FB01BC01DB011296AA
:102AF0008D919C9113970097B9F79B012E5F3F4FE3
:102B00008D919C911197820F931F40912E075091A8
:102B10002F074817590779F4309729F41092310795
:102B20001092300702C0138212822250304030933C
:102B30002F0720932E07DF91CF910895FC0188275E
:102B40009927E89421912032E9F3293010F02E30B2
:102B5000C8F32B3239F02D3231F4689403C012D00F
:102B6000820F911D219120532A30C8F31EF49095B5
:102B700081959F4F0895FB01DC0101900D9200208B
:102B8000E1F708957AE0979F902D879F802D910D12
:102B900011240895AEE0B0E0EFECF5E16DCE0D89C3
:102BA0001E898F89988D26E02C831A83098397FFCD
:102BB00002C080E090E801979E838D839E01255E90
:102BC0003F4FCE010196698D7A8DA90131D04D819B
:102BD0005E8157FD0AC02F813885421753070CF4D8
:102BE0009A01020F131FF80110822E96E4E060CEC6
:102BF000AEE0B0E0EDEFF5E13FCE0D891E8986E055
:102C00008C831A8309838FEF9FE79E838D839E01B8
:102C1000275E3F4FCE0101966F89788DA90108D0BC
:102C2000EF81F885E00FF11F10822E96E4E040CE90
:102C3000ACE0B0E0EDE1F6E111CE6C011B018A01E0
:102C4000FC0117821682838181FFC4C12E01089482
:102C5000411C511CF6019381F10193FD859193FF75
:102C600081911F01882309F4B1C1853239F493FDA4
:102C7000859193FF81911F01853221F490E0B60187
:102C8000F4D1E8CFEE24FF2420E02032B0F48B32E0
:102C900069F08C3228F4803251F0833271F40BC029
:102CA0008D3239F0803349F421602CC022602460D9
:102CB00029C0286027C0206125C027FD2CC0382FDF
:102CC00030533A3098F426FF08C08E2D880FE82E36
:102CD000EE0CEE0CE80EE30E15C08F2D880FF82ECB
:102CE000FF0CFF0CF80EF30E20620CC08E3221F4A4
:102CF00026FD6CC1206406C08C3611F4206802C029
:102D0000883649F4F10193FD859193FF81911F016C
:102D1000882309F0BACF982F9554933018F0905229
:102D2000933028F40C5F1F4FFFE3F9830DC0833607
:102D300031F0833771F0833509F05CC021C0F801B0
:102D4000808189830E5F1F4F420171E0A72EB12C55
:102D500015C062E0662E712C600E711EF801808035
:102D6000918026FF03C06E2D70E002C06FEF7FEFF1
:102D7000C4012C876FD15C0183012C852F7716C08D
:102D800052E0652E712C600E711EF80180809180DA
:102D900026FF03C06E2D70E002C06FEF7FEFC4010D
:102DA0002C874DD15C012C852068830123FD1EC03A
:102DB00007C080E290E0B6012C8757D1FA942C85A9
:102DC0008F2D90E0A816B906A0F310C0F40127FDDE
:102DD000859127FF81914F0190E0B6012C8745D165
:102DE0002C85F110FA940894A108B108A114B1043B
:102DF00069F7E9C0843611F0893641F527FF08C02C
:102E0000F80160817181828193810C5F1F4F09C03D
:102E1000F80160817181882777FD8095982F0E5F7A
:102E20001F4F4FE6B42EB22297FF09C090958095B0
:102E3000709561957F4F8F4F9F4FF0E8BF2AA20199
:102E40002AE030E03ED1782E741844C0853731F442
:102E50003FEEB32EB2222AE030E025C099EFB92E22
:102E6000B2228F36C1F0803720F4883509F0AEC029
:102E70000DC0803721F0883709F0A8C002C020E1DA
:102E8000B22AB4FE0BC084E0B82A08C0B4FE09C060
:102E9000E6E0BE2A06C028E030E005C020E130E0D0
:102EA00002C020E132E0B7FE08C0F8016081718104
:102EB000828193810C5F1F4F07C0F801608171818F
:102EC00080E090E00E5F1F4FA201FBD0782E7418B7
:102ED000FFE7BF22B6FE0BC02EEFB2227E1438F4FD
:102EE000B4FE07C0B2FC05C08FEEB82202C0A72C0A
:102EF00001C0AE2C8B2D90E0B4FE0DC0FE01E70D9D
:102F0000F11D2081203319F4E9EEBE2209C0A394FB
:102F1000B2FE06C004C086789070009709F0A394B2
:102F20008B2C9924B3FC13C0B0FE0EC0AF1428F450
:102F3000E72CEF0CEA18AF2C07C0E72C05C080E2A5
:102F400090E0B60192D0A394AF14C8F304C0AF14BC
:102F500010F4FA1801C0FF2484FE0EC080E390E054
:102F6000B60183D082FE1DC081FE03C088E590E0DB
:102F700010C088E790E00DC0C4018678907000977B
:102F800081F081FC02C080E201C08BE2B7FC8DE2DF
:102F900090E0B6016AD005C080E390E0B60165D04C
:102FA000EA947E14C8F37A94F201E70DF11D808152
:102FB00090E0B6015AD07720B1F705C080E290E0EA
:102FC000B60153D0FA94FF20C9F744CEF60126810A
:102FD000378102C02FEF3FEFC9012C96E2E15ACCB6
:102FE000DC01CB01FC01F999FECF06C0F2BDE1BDC9
:102FF000F89A319600B40D9241505040B8F70895B8
:10300000A8E1B0E042E050E0EDCFDC01CB0102C02E
:103010002D9105D041505040D8F70895262FF999A9
:10302000FECF1FBA92BD81BD20BD0FB6F894FA9AAB
:10303000F99A0FBE01960895F1DF272FF0CFFC011A
:103040000590615070400110D8F7809590958E0FD3
:103050009F1F0895FC016150704001900110D8F746
:10306000809590958E0F9F1F08950F931F93CF9378
:10307000DF938C01EB018B8181FF1BC082FF0DC0B0
:103080002E813F818C819D812817390764F4E88166
:10309000F9810193F983E88306C0E885F985802FDB
:1030A0000995009731F48E819F8101969F838E83CD
:1030B00002C00FEF1FEFC801DF91CF911F910F9159
:1030C0000895FA01AA27283051F1203181F1E894BE
:1030D0006F936E7F6E5F7F4F8F4F9F4FAF4FB1E00B
:1030E0003ED0B4E03CD0670F781F891F9A1FA11D06
:1030F000680F791F8A1F911DA11D6A0F711D811D07
:10310000911DA11D20D009F468943F912AE0269FCB
:1031100011243019305D3193DEF6CF010895462F2A
:103120004770405D4193B3E00FD0C9F7F6CF462F0B
:103130004F70405D4A3318F0495D31FD4052419374
:1031400002D0A9F7EACFB4E0A69597958795779531
:103150006795BA95C9F700976105710508959B01B8
:10316000AC010A2E06945795479537952795BA9541
:10317000C9F7620F731F841F951FA01D089510E0EB
:10318000CAECD0E003C0FE01A2DB2296CC3CD10702
:06319000D1F7F894FFCF17
:10319600200032070000320032000000DC05640027
:1031A6000000F401F4010000000244656D6F5368ED
:1031B60069656C64205247420041726475696E6F9E
:1031C6002044656D6F20536869656C642077697467
:1031D6006820524742204C45440073657420732092
:1031E6006920307831300D007365742073207320A8
:1031F60025640D0047573D007365742075206220D5
:1032060035373630300D004D616320416464723DC0
:1032160000676574206D0D007365742077206A2041
:10322600370D007365742077206320360D007365B3
:103236007420612073204361726574616B65722D21
:103246002563256325632563256325632563256338
:1032560025632563256325630D007365742061204E
:10326600702030333437333432640D007365742084
:1032760069206420340D0073657420692061203153
:1032860039322E3136382E302E310D0073657420CA
:1032960069206E203235352E3235352E3235352EB3
:1032A600300D0073657420692067203139322E3164
:1032B60036382E302E310D002A4F50454E2A002A20
:1032C600434C4F532A007365742069206820302EC2
:1032D600302E302E300D0073657420692066203044
:1032E6007834300D007365742069206420310D0038
:1032F6007365742069207020310D00736574206237
:10330600206920370D007365742077206120340D05
:10331600007365742077206320300D007365742078
:1033260077206A20310D007365742077207320257D
:10333600730D00736574207720702025730D00735C
:103346006574206F20642025730D002A534552565C
:1033560045522A0A002D2042726F616463617374BC
:1033660020726573706F6E73652066726F6D207361
:1033760065727665723A202573007365742069203C
:10338600682025730D007365742062206920300D56
:1033960000434D4400242424004552520045584918
:1033A6005400657869740D00446541757468006C55
:1033B600656176650D0073686F77206E0D00736F1B
:1033C600633D4F006A6F696E2025730D00414F4BB8
:1033D600007365742069206420300D0073657420C5
:1033E6006920612025730D007365742069206E20A5
:1033F60025730D00736574206920672025730D0001
:103406007265626F6F740D0072696E670073617624
:10341600650D0044656661756C747300666163745E
:103426006F727920520D006F70656E0D00636C6FC0
:1034360073650D006F70656E2025732025640D0081
:10344600736574207720612025640D0073657420F0
:1034560077206B2025730D004173736F6369617468
:103466006564006A6F696E0D005665720076657256
:103476000D0000000000E407EF07B407C007CC0703
:10348600D807000000003D0EE10FD80D070EEB0D2A
:063496002B0ED20D750E95
:00000001FF
